:107000000C943E380C945B380C945B380C945B38D1
:107010000C945B380C945B380C945B380C945B38A4
:107020000C945B380C945B380C945B380C945B3894
:107030000C945B380C945B380C945B380C945B3884
:107040000C945B380C945B380C945B380C945B3874
:107050000C945B380C945B380C945B380C945B3864
:107060000C945B380C945B380C945B380C945B3854
:107070000C9489390C945B380C945B3811241FBE36
:10708000CFEFD8E0DEBFCDBF11E0A0E0B1E0E0EC93
:10709000F8E702C005900D92A830B107D9F712E0C9
:1070A000A8E0B1E001C01D92A633B107E1F70E944C
:1070B000573A0C945E3C0C940038813011F41798C8
:1070C00003C0882309F4179A613011F4109803C0A3
:1070D000662309F4109A413011F44298089544232C
:1070E00009F4429A08958330A1F0843028F4813065
:1070F000E1F08230B8F409C08530E9F0853068F0FD
:10710000863071F08730E1F402C080E007C081E092
:107110000DC081E061E040E00BC081E060E0FBCFAA
:1071200080E001C081E060E002C080E061E041E019
:107130000E945D38089580E061E040E00E945D3883
:107140000895F89481E085BF15BEE091AD01F091FE
:10715000AE010995F999FECF92BD81BDF89A80B52F
:107160000895F999FECF92BD81BD60BDFA9AF99A52
:107170000895E9ECF0E0808180688083E8ECF0E03D
:1071800080818260808389E18093CC0086E880934F
:10719000CA000895E9ECF0E080818860808308955A
:1071A000E9ECF0E08081806180830895982F8091E0
:1071B000C8008F7B8093C8008091C80085FFFCCFFA
:1071C0009093CE008091C8008670E1F30895089AEC
:1071D000109A0F9A179A3A9A429A3E98469850985F
:1071E0005898519A5998539A5B9852985A98559A28
:1071F0005D98569A5E98579A5F983F9A479A0A9870
:107200001298219829983D984598249A2C9A089587
:10721000109292011092930124E030E0909192013B
:10722000F901E85FFE4F8081890F80939201909170
:10723000930180818927809393012F5F3F4F2438EA
:10724000310561F720919201809108019091090127
:10725000820F890F80939201909193018091080190
:107260008927809393019091930180910901892747
:10727000809393019091920180910A01981711F0E7
:1072800020E009C09091930180910B0120E09813B8
:1072900021E081E02827822F08951F93CF93DF9369
:1072A000EC0183E0FB0180935700E89507B600FCF2
:1072B000FDCF40E050E011E016C0FA01E055FE4F6E
:1072C0009081FA01EF54FE4F8081382F20E0F901C0
:1072D000E90FF11DCF01FD010C0110935700E89556
:1072E00011244E5F5F4FDA01A60FB71F4C175D07E1
:1072F00020F385E0FB0180935700E89507B600FC7A
:10730000FDCF81E180935700E895DF91CF911F91E8
:1073100008951F920F920FB60F9211241F932F936F
:107320003F934F935F936F937F938F939F93AF930D
:10733000BF93EF93FF938091CE0080930001E09183
:107340008C01F0918D0180910001E85FFE4F8083F8
:1073500080918C0190918D01019690938D01809385
:107360008C01809108018E3FB1F4809109018D3F1D
:1073700091F410928D0110928C01109299011DEDE3
:107380001093000180E40E94D638109308011093F6
:1073900009010E94A13880918C0190918D0184385F
:1073A000910508F44DC080919401882319F0813033
:1073B00071F406C081E08093940183E061E004C031
:1073C0001092940183E060E043E00E945D380E94E7
:1073D00008398093910180919101813051F580911C
:1073E000080190910901382F20E0290F311D3093B9
:1073F000900120938F0190E0E92FF0E0DF01A45F7E
:10740000BE4F8C91E055FE4F80839F5F9038A1F76F
:1074100080918F01909190018050904750F460913D
:107420008F017091900180E890E00E944D3987E4CF
:1074300001C082E40E94D63810928D0110928C0116
:10744000FF91EF91BF91AF919F918F917F916F913C
:107450005F914F913F912F911F910F900FBE0F9011
:107460001F9018951F938CE30E94D6388EE60E94D9
:10747000D63885E10E94D6388EE30E94D6388091B6
:107480009F010E94D63880919E010E94D63880913B
:107490009D010E94D6388DED8093000110E080E0C0
:1074A0000E94D6381F5F1231D1F71F9108959F9225
:1074B000AF92BF92CF92DF92EF92FF920F931F9302
:1074C000CF93DF93F8942FE088E190E00FB6F89423
:1074D000A895809360000FBE20936000A8950E943D
:1074E000E7380E94B9388091C90088608093C9004C
:1074F0008091C90080618093C900F999FECF8EE127
:1075000090E092BD81BDF89A80B58093030182E33B
:1075100090E092BD81BD80910301813011F40E9401
:10752000A138F999FECF84E690E092BD81BDF89A2A
:1075300080B580939D01F999FECF85E690E092BDDC
:1075400081BDF89A80B580939E01F999FECF86E6B9
:1075500090E092BD81BDF89A80B580939F01F99922
:10756000FECF87E690E092BD81BDF89A80B580930A
:10757000020120919D0180919E0190919F01820FB7
:10758000890F8093A0019091A0018091020198172A
:1075900039F08FEF80939D0180939E0180939F012E
:1075A000F999FECF88EC90E092BD81BDF89A80B544
:1075B0008093A201F999FECF89EC90E092BD81BD44
:1075C000F89A80B58093A301F999FECF8AEC90E0F8
:1075D00092BD81BDF89A80B58093A401F999FECF40
:1075E0008AE090E092BD81BDF89A80B580939A01BF
:1075F000C2E3D0E0D2BDC1BD80E060E040E00E94C7
:107600005D3810919A011130A9F410929A011092EC
:10761000A1018AE090E060E00E94B138D2BDC1BD16
:107620001093990181E20E94D63810928D01109238
:107630008C0103C081E08093A10181E085BF82E0DD
:1076400085BF789447E3B42E36E9C32ED12C22ECC3
:10765000E22E21E0F22EC8ECD0E098E3A92E89E3D7
:10766000982E0DED8091A9019091AA01A091AB01F6
:10767000B091AC010196A11DB11D8093A901909319
:10768000AA01A093AB01B093AC018091A9019091A4
:10769000AA01A091AB01B091AC018D529140A040E4
:1076A000B04008F479C01092A9011092AA0110927A
:1076B000AB011092AC0135996FC08091A501823069
:1076C00008F05BC08091A6019091A701019690936C
:1076D000A7018093A6012091040130910501821732
:1076E000930708F459C080910701883339F1893331
:1076F00079F18733E9F58091A8018F5F8093A80124
:10770000823039F0833041F0813051F48091A20110
:1077100005C08091A30102C08091A4010E9473382A
:107720008091A801833019F49092070102C0A092C1
:107730000701D0930501C09304011AC080E00E94A4
:107740007338B0920701D0920501C092040110C0B5
:1077500080E00E9473381092A8018091A5018F5F8C
:107760008093A501B0920701F0920501E092040117
:107770001092A7011092A6010FC0109281001092E2
:1077800085001092840010928900109288008091E8
:107790006F008D7F80936F0080918E01882309F4A4
:1077A000A895809108018C3481F4809199018823F7
:1077B00061F480919601882341F410928D0110921A
:1077C0008C01009308010E94A138809108018D3638
:1077D000A1F480919901882381F4809196018823F6
:1077E00061F410928D0110928C01009308010E94A7
:1077F000323A10928D0110928C01809108018136ED
:10780000F1F4809199018823D1F480919601882325
:10781000B1F410928D0110928C01009308018CE359
:107820000E94D6388CE60E94D63880E00E94D63876
:107830008EE30E94D63810928D0110928C018091B7
:107840000801843509F00ECF80919901882309F051
:1078500009CF80919601882309F004CF1091A101EE
:10786000113009F0FFCE1093960180918C01909118
:107870008D010497E9F49091090180919F01981777
:10788000B9F490910A0180919E01981789F4909122
:107890000B0180919D01981759F481E20E94D6381E
:1078A00010928D0110928C01109399011092A101F8
:1078B00010929601D7CE86B180720895F894FFCFCA
:0878C000DD010102C8003937A7
:027FFA0016006F
:027FFC000A0079
:027FFE00000081
:040000030000700089
:00000001FF
