:020000040000FA
:10000000D4C00000EFC00000EDC00000EBC0000055
:10001000E9C00000E7C000000C94E109E3C0000063
:10002000E1C000000C94600CDDC00000DBC00000EB
:10003000D9C000000C946C0AD5C00000D3C00000E9
:100040000C94E80BCFC00000CDC00000CBC0000076
:100050000C944B0BC7C00000C5C00000C3C000001B
:10006000C1C00000BFC00000BDC00000BBC0000098
:100070000C941B0FB7C00000B5C000002903520349
:1000800059036603730380038D03D90321042D04F0
:100090003A0442044B0419031903520419031903C7
:1000A0001903190319031903190319031903190370
:1000B0001903190319031903190319035A046C04CA
:1000C0001903190319031903190319031903190350
:1000D0001903190319031903190319031903190340
:1000E0001903190319031903190319031903190330
:1000F000190319031903190319031903730482045B
:1001000096040303190319031903190319031903A7
:1001100019031903190319031903190319031903FF
:1001200019031903190319031903190319031903EF
:1001300019031903190319031903190319031903DF
:1001400019031903190319031903190319031903CF
:1001500019031903190319031903190319031903BF
:1001600019031903190319031903190319031903AF
:10017000190319031903190319031D03530A580A14
:100180005D0A620A670A440A490A4E0AE10C7E0CBB
:10019000020D090D150DBF0CD60C221611160A16EC
:1001A000FE15F715DC15CD152E1611241FBECFEF49
:1001B000D8E0DEBFCDBF11E0A0E0B1E0E8E6F6E3B5
:1001C00002C005900D92A632B107D9F725E0A6E24C
:1001D000B1E001C01D92AD3FB207E1F70E9471107E
:1001E0000C94321B0C94D70980912901811104C011
:1001F00084E00E943B0AFCCF86E291E00C94431518
:1002000008950F931F93CF93DF93D82FC62F80911C
:10021000CD01823821F484E00E943B0AFCCF6CE3DC
:100220008AEC91E00E942F158091CD01823821F453
:1002300084E00E943B0AFCCF6D2F8AEC91E00E9483
:100240002F158091CD01823821F484E00E943B0A71
:10025000FCCF6C2F8AEC91E00E942F158091CD018C
:10026000823821F484E00E943B0AFCCF6EE38AECE2
:1002700091E00E942F15CC2351F06091580280919B
:10028000CD01823849F484E00E943B0AFCCFDF9123
:10029000CF911F910F91089509E512E0C150D0E070
:1002A000C75ADD4F8AEC91E00E942F150C171D07ED
:1002B00071F3F80161918F018091CD01823819F3BA
:1002C000F1CFA3E0B0E0E7E6F1E00C94061BD0909C
:1002D00057048DEF8D0D90915B049A3AD9F190916E
:1002E0005B049C3A09F467C090915B04973A09F467
:1002F00077C090915B049093580290915A04909328
:1003000059029091590490935A02909158049093F5
:100310005B0280935C028823A9F00DE512E08CEF6C
:100320008D0D90E09C01225A3D4F7901809154043B
:10033000909155040E944315F80181938F01EE15A9
:10034000FF05A1F762E06D0D82EE5BDF2396E7E02B
:100350000C94221B60915A049091F202691709F4DF
:100360006EC090915B049093580290915A049093C0
:1003700059029091590490935A0290915804909385
:100380005B0280935C028823E9F20DE512E08CEFBA
:100390008D0D90E09C01225A3D4F790180915404CB
:1003A000909155040E944315F80181938F01EE1539
:1003B000FF05A1F7C7CF81E08093FF0214E102C0DF
:1003C000115021F22091F7023091F80280915602EB
:1003D000909157022817390798F70E947D0EF0CFA9
:1003E00080915404909155040E94431580915404C7
:1003F000909155040E9443158091540290915502AA
:1004000001969093550280935402209152023091AC
:1004100053028217930780F514E103C0115009F4C9
:1004200095CF2091F7023091F80280915602909179
:1004300057022817390790F70E947D0EEFCF4091A1
:1004400059049091F30249138CCF20915804909154
:10045000F402291386CF84E189838091560290911A
:1004600057029A838B8353E0E52E8E010F5F1F4F57
:100470008BEA0E9455166ACF8091560290915702DE
:100480009C01220F331FC901880F991F880F991FE4
:10049000880F991F820F931F429780935802909361
:1004A00059028091F20280935A028091F302809364
:1004B0005B028091F40280935C0265E084EEA1DE31
:1004C00081E0898310923C0310923D0310923F0318
:1004D0000E94031410E0812F0E94F7131F5F153054
:1004E000D1F7EE24E3948E010F5F1F4F2091F402A9
:1004F0004091F3026091F20288EA0E945516109230
:10050000FF02109216031092580261E082EA79DE2F
:1005100087E0809351021ACFA8E0B0E0E2E9F2E070
:100520000C940B1B29833A834B835C836D837E83FE
:100530008F839887359B08C02091CD0182E890E099
:10054000821B91090A972CF42896E2E00C94271B51
:100550001CC08981809358028A81809359028B81C3
:1005600080935A028C818F7080935B028C8182957C
:10057000877080935C028E8180935D0266E085EED9
:1005800040DE2896E2E00C94271BA8E0B0E0EBECFC
:10059000F2E00C940B1B29833A834B835C836D83BD
:1005A0007E838F839887359B08C02091CD0182E898
:1005B00090E0821B910907972CF42896E2E00C94B6
:1005C000271B10C08981809358028A818093590229
:1005D0008B8180935A0263E086EE13DE2896E2E078
:1005E0000C94271BA3E1B0E0E8EFF2E00C94011BB0
:1005F00090E0FC013197E038F105D8F4162FE25C69
:10060000FF4F0C94E61A6330A1F4EEDDF82EECDD1A
:10061000082FEADD182F482F602F8F2D12D791E079
:10062000F11005C0011103C0111101C090E09093B9
:1006300016036396ECE00C941D1BF89498E088E197
:100640000FB6F894A895809360000FBE9093600059
:10065000FFCF82E08093580281E08093590210928C
:100660005A0294E090935B0210925C0210925D0239
:1006700090935E0280935F02109260029091F30566
:10068000909361029091F405909362029091F50528
:100690009093630280936402109265026EE081E899
:1006A000B0DDC7CF81E08093580261E082E8A9DD28
:1006B000C0CF613009F447C181E08093580283E0E4
:1006C0008093590262E080EE9CDDB3CF633009F481
:1006D00074C481E08093580284E08093590262E000
:1006E00080EE8FDDA6CF643008F052C181E08093A8
:1006F000580285E08093590262E080EE82DD99CF56
:10070000633009F429C481E08093580286E0809325
:10071000590262E080EE75DD8CCF80E090E060E011
:1007200038E0FC01EE0FFF1FEE0FFF1FEE0FFF1F63
:10073000E35AFB4FDE011996232F01900D922A9563
:10074000E1F72889222369F12985E62FF0E0E85AAC
:10075000FD4F20832A85E1E0E60FF0E0E85AFD4FE7
:1007600020832B85E2E0E60FF0E0E85AFD4F20837E
:100770002C852F70E3E0E60FF0E0E85AFD4F208370
:100780002C8522952770E4E0E60FF0E0E85AFD4F53
:1007900020832E85E5E0E60FF0E06A5FE85AFD4F22
:1007A000208301968931910509F0BBCF87E829DDC7
:1007B00040CF613009F4CCC341E050E020E030E0AC
:1007C00060E078E006C02F5F3F4F2931310509F422
:1007D000B7C0F901EE0FFF1FEE0FFF1FEE0FFF1F57
:1007E000E35AFB4FDE011196872F01900D928A95F7
:1007F000E1F78C818F7090E08417950721F7888549
:10080000882309F38981E62FF0E0E85AFD4F8083C1
:100810008A81E1E0E60FF0E0E85AFD4F80838B81AA
:10082000E2E0E60FF0E0E85AFD4F80838C8182958C
:100830008770E3E0E60FF0E06C5FE85AFD4F8083DD
:10084000C2CF8BEF860F8A3108F078C380912901DF
:100850008111F8C284E00FD6FDCF633009F4C0C225
:1008600081E0809358028AE08093590262E080EE32
:10087000C8DCDFCE1092B7011092580261E08BE81D
:10088000C0DCD7CE60E080EF90E00E94D81A60E034
:100890008CE8B7DCCECE8091290181116DC284E055
:1008A000EAD5FDCF8091CD01823809F059C284E0AC
:1008B000E2D5FDCFE5D711E0109316031092FE02AA
:1008C00010930A031093090339D5809129018111EE
:1008D000DFC084E0D0D5FDCF809129018111CBC04C
:1008E00084E0C9D5FDCF862F837009F0A2CE16957E
:1008F000169509F49ECE8091290181116FC084E084
:10090000BAD5FDCF8BEA689FF12C1124F6948F2D78
:10091000880F8F0D68138DCEFF2009F48ACE809149
:10092000290181114EC084E0A6D5FDCF613009F0C8
:1009300080CE5ADC182F9FD591E0111178CE76CE5B
:1009400088E85FDC76CE50DC8130E1F0811171CE39
:10095000F89461E08AE090E00E94D81A60E08EE1AD
:1009600090E00E94D81A82E390E092BD81BD98E0A9
:1009700088E10FB6F894A895809360000FBE90931D
:100980006000FFCF1093580261E083E83ADC51CE5B
:100990002BDC8B8B29DC8A8B27DC898B25DC8093F5
:1009A000D40581E08093D50502E029894A896B89C5
:1009B00080E70E9411158093580261E085E821DCF0
:1009C00038CE10E086E291E00E944315E82E809137
:1009D0002901811112C084E04ED5FDCFF12CEE2407
:1009E000E39486E291E00E944315D82E809129017C
:1009F00081110FC084E03FD5FDCF86E291E00E94D7
:100A00004315482F8091290181110FC084E033D50F
:100A1000FDCF86E291E00E944315C82E8091290106
:100A200081111DC084E027D5FDCF86E291E04A8B7D
:100A30000E9443151092D4051092D50502E0282F8C
:100A40004A896E2D80E70E9411151F5F1F1509F45A
:100A5000F0CD80912901882309F465CFB3CF86E2D8
:100A600091E00E944315282F8091290181111EC019
:100A700084E001D5FDCF86E291E00E94431580938A
:100A8000F9028091290181112BC084E0F4D4FDCFBB
:100A900086E291E00E944315082F8093B601809171
:100AA000290181112AC084E0E6D4FDCF86E291E0DD
:100AB000298B0E9443158093D405E092D50502E06E
:100AC00029894C2D6D2D80E70E941115F394F116A4
:100AD00009F4AFCD80912901882309F410CF81CF8B
:100AE00086E291E00E9443158093F20280912901F1
:100AF00081110FC084E0BFD4FDCF86E291E00E9457
:100B00004315D82E80912901811110C084E0B3D4FF
:100B1000FDCF86E291E00E9443158093F30280911D
:100B2000290181111AC084E0A6D4FDCF86E291E0AC
:100B30000E944315282F30E03D293093570220931F
:100B400056022F38F3E03F0708F492C081E080930B
:100B5000580261E081EA55DB6CCD86E291E00E94AB
:100B60004315482F8093F4022091F90230E0F901F7
:100B7000ED5DFC4FE081F0E0FE2FEE27D901AE5D88
:100B8000BC4F8C91E82BF0935702E09356029F01E3
:100B9000220F331FC901880F991F880F991F880FD3
:100BA000991F280F391F3093B5012093B40110927B
:100BB000F8021092F7021092F6021092F5029F01CD
:100BC000ADECBCEC0E94EC1A9C01329522952F7082
:100BD00023273F7023273093530220935202109211
:100BE00055021092540254E1529FC001539F900D40
:100BF0001124E817F90731F02F5F3F4F309353026C
:100C0000209352026091F3028091F2020E9412142A
:100C10008F3F61F0E82FF0E0EE0FFF1FEE0FFF1F98
:100C2000EE0FFF1FE35AFB4F8FEF878388E280931D
:100C3000510210923C0310923D0310923F030E9418
:100C4000031410E0812F0E94F7131F5F1530D1F7B6
:100C50001982EE24E3948E010F5F1F4F2091F4025E
:100C60004091F3026091F20288EA0E945516E1CCAD
:100C7000220F331FA901440F551F440F551F440F66
:100C8000551F240F351F3093B5012093B401E02E7A
:100C9000F12CF701ED5DFC4FD082F701EE5DFC4FCA
:100CA0008083A2DAF701EC5DFC4F80839DDAF701C7
:100CB000EF5DFC4F808398DAF701E05EFC4F8083A4
:100CC00093DAF701E15EFC4F80838EDAF701E25E92
:100CD000FC4F808389DAF701E35EFC4F80838091CB
:100CE000190340911A0350E060E070E0BA01552703
:100CF0004427782B80911C03482B80911B03582B91
:100D000081E090E0A0E0B0E0002E04C0880F991FC1
:100D1000AA1FBB1F0A94D2F7482B592B6A2B7B2B97
:100D20007093190360931A0350931B0340931C03A1
:100D300081E001110CCFD5D21093B3011092B20112
:100D40001092B10180E090E4A0E0B0E08093AD01AA
:100D50009093AE01A093AF01B093B00180E0F7CEC5
:100D60006CE38AEC91E00E942F158091CD018238CE
:100D700051F584E080D3FDCF86E291E00E944315D7
:100D8000898B7ED589898093D3037FD46FD482E009
:100D90008093B00094E09093B10080937000109223
:100DA000B20084BD95BD80936E0016BC8FEF87BDE9
:100DB00080E58093B30080E031D42ED4EFD460E09E
:100DC0008DE81FDA36CC60E98AEC91E00E942F159D
:100DD0008091CD01823809F041C084E04CD3FDCF31
:100DE00003DA082F01DA182FFFD9982FEAEBF1E088
:100DF00020E030E006C02F5F3F4F339626303105AC
:100E0000F9F0DF0112978C910813F5CF11968C91B0
:100E10001813F1CF80819813EECF81E090E001C0EC
:100E2000880F2A95EAF780959091B70189238093DE
:100E3000B70180E08093580261E08AE8E2D9F9CBFB
:100E400081E0F8CF86E291E00E944315B82E8091B0
:100E5000290181110FC084E00ED3FDCF612F8AECF0
:100E600091E00E942F158091CD01823879F484E0C1
:100E700002D3FDCF86E291E00E944315A82E809117
:100E80002901811112C084E0F6D2FDCF6EE38AEC15
:100E900091E00E942F15112309F4CBCB80912901F9
:100EA00081110FC084E0E7D2FDCF86E291E00E947D
:100EB0004315982E8091290181110FC084E0DBD267
:100EC000FDCF00E086E291E00E9443159091CD01B4
:100ED000923879F484E0CFD2FDCF86E291E00E948F
:100EE0004315882E80912901811111C084E0C3D25D
:100EF000FDCF682F8AEC91E00E942F150F5F01173C
:100F000009F497CB80912901882361F2DBCF86E237
:100F100091E00E944315082FE82FF0E03596812FCD
:100F200090E0E817F90751F4002309F483C0809199
:100F30002901811164C084E09ED2FDCF81E08093BD
:100F4000580289E08093590262E080EE5AD971CB51
:100F50004BD9482F50E032CC47D9082F45D9182F0C
:100F600043D94091B70150E020E030E006C02F5F48
:100F70003F4F2630310509F43BC0BA01022E02C0B2
:100F8000759567950A94E2F760FDF1CFF901EE0FD0
:100F9000FF1FE20FF31FE854FE4F0083118382838B
:100FA00081E090E001C0880F2A95EAF79091B7019F
:100FB000892B8093B70180E01CC016D9182F14D953
:100FC0008B8B12D9109358026B89609359028093CE
:100FD0005A02482F812F0E9412148F3FB9F51092A8
:100FE0005B0281E080935C0265E084E80AD921CB52
:100FF00081E08093580261E086E803D91ACBB4ED12
:10100000CB2EB5E0DB2EEFEFE00FF0E0CF018B52FF
:101010009A4F7C0186E291E00E944315F60181938C
:101020006F01EE15FF0531F080912901882309F445
:1010300082CFF0CF282D492D6A2D8B2D0E941115BE
:101040008093580261E089E8DCD8F3CAE82FF0E029
:10105000EE0FFF1FEE0FFF1FEE0FFF1FE35AFB4FB8
:10106000848180935B0210925C02BECF8091C600A7
:101070008093CE038091CE03853618F084E680936A
:10108000CE0386E008958091C6008093C6039091B8
:101090003F0382E8891B843080F08FE7891B8093AF
:1010A0003A039091C603953630F49091C6038917A0
:1010B00010F082E008958AE0089580E0F0CF109269
:1010C0003C041092C6031092CE038BE280933B0443
:1010D00085E0809338031092C5038FEF80933B0324
:1010E0000895A1E0B0E0E7E7F8E00C94051B072FB6
:1010F000182F292F33276C01EE24FF242C9846E06B
:101100004EBD0DB407FEFDCF4EB5409337032C9A6C
:101110002C9840E24EBD0DB407FEFDCF4EB5409376
:101120003703CEBC0DB407FEFDCF4EB54093370359
:101130000EBD0DB407FEFDCF2EB5209337036EBD57
:101140000DB407FEFDCF8EB5809337032C9A2C98F3
:1011500085E08EBD0DB407FEFDCF8EB580933703BD
:101160009FEF9EBD0DB407FEFDCF8EB589838981AB
:1011700080FDF7CF2C9A2196E8E00C94211B9091EA
:1011800017032091170340911703809117033091A3
:10119000170382958F704695469546954827892F67
:1011A00086958695982F9227842F8927879588275B
:1011B0008795932F9695892B80931703809117031A
:1011C0000895CF92DF92EF92FF920F931F93072F14
:1011D000182F292F33276C01EE24FF242C98EBE0E5
:1011E000EEBD0DB407FEFDCFEEB5E0933703CEBCE8
:1011F0000DB407FEFDCFEEB5E09337030EBD0DB481
:1012000007FEFDCF2EB5209337036EBD0DB407FE4C
:10121000FDCF8EB58093370383E68EBD0DB407FEF8
:10122000FDCF8EB5809337034115510571F0E5E28E
:10123000F3E04B5D5C4F9FEF9EBD0DB407FEFDCF0D
:101240008EB58193E417F507B9F72C9A1F910F918A
:10125000FF90EF90DF90CF900895CF92DF92EF92C2
:10126000FF920F931F93072F182F292F33276C01FD
:10127000EE24FF242C9856E05EBD0DB407FEFDCF92
:101280005EB5509337032C9A2C9852E05EBD0DB496
:1012900007FEFDCF5EB550933703CEBC0DB407FEFD
:1012A000FDCF5EB5509337030EBD0DB407FEFDCFE5
:1012B0002EB5209337036EBD0DB407FEFDCF8EB55E
:1012C000809337034EBD0DB407FEFDCF8EB58093DE
:1012D00037032C9A1F910F91FF90EF90DF90CF90E2
:1012E0000895CF92DF92EF92FF92C82ED12CE12C7D
:1012F000F12C8EE0CC0CDD1CEE1CFF1C8A95D1F786
:10130000C701B601EEDEA895C701B601705F8F4F29
:101310009F4FE7DEA895C701B601705E8F4F9F4FC4
:10132000E0DEA895C701B601705D8F4F9F4FD9DEF3
:10133000A895FF90EF90DF90CF900895CF93DF9323
:1013400048E050E060E070E0CB013BDFC5E2D3E075
:101350008881809324038981809323038A818093E9
:1013600022038B81809321038C81809320038D81C4
:1013700080931F038E8180931E038F8180931D03B2
:1013800045E050E068E070E080E090E01ADFE9E1DD
:10139000F3E088818083898181838A8182838B8144
:1013A00083838C8180931803DF91CF9108951F92DE
:1013B0000F920FB60F9211240F900FBE0F901F9037
:1013C00018951F920F920FB60F9211242F933F93EF
:1013D0004F935F936F937F938F939F93AF93BF933D
:1013E000EF93FF93369B1CC019D5109268001092A2
:1013F0006D00109238038AE280933B04E091380339
:10140000F0E0EE0FFF1FE050FF4F0190F081E02D64
:101410000995809338031092060381E080930703B7
:10142000FF91EF91BF91AF919F918F917F916F91BC
:101430005F914F913F912F910F900FBE0F901F9092
:1014400018958130B1F0882379F0613081F06623FE
:1014500031F0413039F0411101C0429A0895109A9B
:101460004130C9F742980895179A613081F7109872
:10147000F0CF1798EACF90E08830910548F4FC014E
:10148000E254FF4F0C94E61A40E061E080E0D9CFCF
:10149000089541E060E080E0D4CF089541E061E04C
:1014A00081E0CFCF089540E060E080E0CACF0895AA
:1014B00041E061E080E0C5CF089541E060E081E077
:1014C000C0CF089540E061E081E0BBCF089540E0E7
:1014D00060E081E0B6CF08951F920F920FB60F9291
:1014E00011242F933F934F935F936F937F938F9329
:1014F0009F93AF93BF93CF93EF93FF9380910A0392
:10150000811103C081E080930903359B12C0FF91D4
:10151000EF91CF91BF91AF919F918F917F916F91FB
:101520005F914F913F912F910F900FBE0F901F90A1
:101530001895359925C080911603811121C0C0915D
:101540001503C330E8F480911303909114030196BE
:10155000909314038093130320911103309112038D
:1015600082179307A0F280910F03883391F089339B
:1015700099F18733D1F01092140310921303C7CF5F
:1015800080911003813019F61092100310924E04CE
:10159000BECF80E070DF87E380930F0380E293E0AB
:1015A0009093120380931103E6CF80910E038F5F17
:1015B00080930E03823061F18330F9F0813021F1A4
:1015C0008330F1F088E380930F0388EE93E09093EB
:1015D000120380931103CFCF80E04DDF10920E03F2
:1015E000CF5FC093150387E380930F0384E398E0F4
:1015F0009093120380931103BECF80910B033BDFC6
:1016000089E380930F03E1CF80910D0334DFDACFBC
:1016100080910C0330DFD6CF509808958093D0038B
:101620008230C1F048F0843079F0C0F0853081F428
:101630005D9A5E985F9A08958823A1F0813049F4FD
:101640005D9A5E985F9808955D985E985F9A089598
:10165000089508955D985E9A5F9808955D9A5E9AE0
:101660005F9808955D985E985F980895E1ECF0E0CA
:101670008081877F80830895E1ECF0E0808188603D
:10168000808380818F7E80830895E1ECF0E080810B
:101690008F7E808308951F920F920FB60F921124B0
:1016A0002F933F934F935F936F937F938F939F936A
:1016B000AF93BF93EF93FF938091FD02882309F4CA
:1016C00059C08091FB02882309F459C08091C00061
:1016D00084FF20C081E08093FA028091C60080934D
:1016E000FC02809138038A3049F18091FA028130FE
:1016F00029F1FF91EF91BF91AF919F918F917F91D0
:101700006F915F914F913F912F910F900FBE0F906E
:101710001F9018958091C00083FDDCCF109270005F
:10172000E0913803F0E0EE0FFF1FE050FF4F019013
:10173000F081E02D099580933803D3CF1092FB02FE
:101740001092070310920603BADC9FDF81E08093BA
:10175000FD0294E09093B30082E08093B0009093F8
:10176000B100809370001092B200109202031092A8
:10177000FA02BFCF8091C6008093FC02BACF1092CC
:10178000B100109270001092B20048D381E08093B3
:10179000FB028091C00084FD9DCFBCCF1092070357
:1017A000109206038CDC71DF81E08093FD0294E0EF
:1017B0009093B30082E08093B0009093B100809347
:1017C00070001092B200109202031092FA02089573
:1017D0001F920F920FB60F9211242F933F934F93A6
:1017E0005F936F937F938F939F93AF93BF93EF9389
:1017F000FF93809108038F5F809308038091070314
:101800008823A1F180910603833080F180913B030E
:101810008F3F19F080913B03EAD7E0910403F091E8
:101820000503309719F080913B040995B7DF80914B
:10183000030391E0980F90930303893028F01092EE
:1018400003038FE78093CD0316BCFF91EF91BF9107
:10185000AF919F918F917F916F915F914F913F9148
:101860002F910F900FBE0F901F9018958091070336
:101870008823E9F2809106038F5F80930603D7CF18
:10188000109207031092FA021092FD02FEDEEEDEC5
:101890001092B100109270001092B20015BC10921C
:1018A0006E0016BC1092680010926D000895E1EC75
:1018B000F0E08081806180838081877F80830895CC
:1018C0001F920F920FB60F9211242F933F934F93B5
:1018D0005F936F937F938F939F93AF93BF93CF93B8
:1018E000EF93FF93E09102038E2F90E087309105F4
:1018F00090F5FC01EA53FF4F0C94E61A8091000327
:101900008DDE489BA6C0509A58988091FF0288238C
:1019100009F492C080910003982F990F890F880FC6
:10192000825E8093B30083E08093020328DC95E21B
:10193000899F212D1124982F921B9695920F969591
:101940009695292F220F220F220F291B821B80938D
:1019500000031092FE021092B200FF91EF91CF911E
:10196000BF91AF919F918F917F916F915F914F91B7
:101970003F912F910F900FBE0F901F901895FFDB96
:1019800095E2899F212D1124982F921B9695920FF5
:1019900096959695292F220F220F220F291B821B25
:1019A0008093000383E080930203D5CF37D2109257
:1019B000020332DE7CDF84E08093B3001092B20039
:1019C000CACF63DE8091D00380930103C5E080918C
:1019D00001038F5F8093010380910103863010F033
:1019E000109201038091010319DE489B48C0C15049
:1019F00071F714D281E0809302038093B3001092B8
:101A0000B200A9CF8FEF8093B30083E080930203ED
:101A1000A2CF80910003863049F100D284E6809302
:101A2000B30086E08093020396CF85E080930203A3
:101A300084E68093B3008FCF80910003982F990F95
:101A4000890F880F8F518093B30082E08093020347
:101A50006DCF84E08093680080E480936D001092E5
:101A6000B100109270001092B20075CF1092FE0279
:101A70008FEF8093B30084E0809302036CCF84E007
:101A80008093680080E480936D001092B100109202
:101A900070001092B200ADCF9091C00095FFFCCFC6
:101AA0008093C6008091C00086FFFCCF8091C0006B
:101AB00080648093C0000895CF93DEDD8091C603DB
:101AC000882309F458C0E091C503F0E0ED52FC4FC3
:101AD000C0818091D303811158C010923904809144
:101AE000390441E050E065EC73E00E948018809377
:101AF00039048091390441E050E064EC73E00E94C5
:101B00008018809339044091C5038091390450E0D6
:101B100064ED73E00E948018809339048091390449
:101B200080933904A9DD80913904C81721F0809190
:101B3000D303811135C06091D0038CE393E08FD73C
:101B400060913B038CE393E08AD78091C60388239E
:101B500071F0C0E0EC2FF0E0EC52FC4F60818CE3C0
:101B600093E07DD7CF5F8091C603C81798F36FEFDE
:101B70008CE393E074D781E08FDF99DE80913B04A2
:101B80008A3249F08AE0CF9108958091C50381504F
:101B90008093C503A2CF10923A0485E0CF910895B7
:101BA00080E07ADF84DE1092C50380913A048F5F73
:101BB00080933A0480913A04863050F09091C303A8
:101BC00080914D04891B80934D048AE0CF91089544
:101BD00081E0D9CFE091C503F0E08091C600EC52DE
:101BE000FC4F80838091C5038F5F8093C503209154
:101BF000C5034091C6038091D30330E090E0840F89
:101C0000911D2817390711F083E0089555CF0895E5
:101C10008091C6008093C4038091C603882361F03D
:101C20008091C403811102C083E008958091C403B0
:101C30008F3120F08AE008953FCF08959091C4033A
:101C40008091C6038917B0F380914D048F5F809314
:101C50004D0481E08093C30383E00895CF930CDDAE
:101C600090913F0382E8891B843080F1CFE7C91B44
:101C7000C09339038C2F10DF8FEF80933B03CF315C
:101C8000B0F120E030E080E043E2429FF001439F6A
:101C9000F00D1124EB5DFA4F9281911104C09381F4
:101CA000911101C08F5F2F5F3F4F2530310569F7DC
:101CB0001092C30390914D049817E8F490914D044D
:101CC000891BEADEF4DD81E0CF910895109239039B
:101CD00080E0E2DE8FEF80933B031092C30380919C
:101CE0004D0480E0D9DEE3DD81E0CF9108951092CC
:101CF000C30380914D0480E0E4CFEF920F931F93D4
:101D0000CF93DF9392B181E0892782B96091F90284
:101D1000862F90E0A0E0B0E05EE0880F991FAA1F38
:101D2000BB1F5A95D1F72091F7023091F802220F8C
:101D3000331FA901440F551F440F551F440F551F52
:101D4000240F351F820F931FA11DB11DBC01CD01B2
:101D5000705C8F4F9F4F42E150E033DA8091250352
:101D600090E0982F882720912603822B96958795BF
:101D700090932503809326039093F6028093F502B7
:101D8000A2E1EA2E05E213E02091F4024091F30271
:101D90006091F20286EA89D7C091F702D091F802E9
:101DA0009E0136952795ABE7B4E10E94EC1A969513
:101DB000879542E3489F9001499F300D1124C21737
:101DC000D30759F02196D093F802C093F702DF9120
:101DD000CF911F910F91EF9008959E01220F331F15
:101DE000C901880F991F880F991F880F991F820FAB
:101DF000931F80935802909359028091F20280932E
:101E00005A028091F30280935B028091F4028093E6
:101E10005C0265E084EE0E940101D4CF8091B301A1
:101E2000811108C0299A10920A031092090381E0D7
:101E30008093FE0208951F920F920FB60F92112405
:101E4000CF92DF92EF92FF922F933F934F935F9346
:101E50006F937F938F939F93AF93BF93CF93DF93B2
:101E6000EF93FF938091C80088718093CC034091D9
:101E7000CE004093CB03C091CC03C11111C080911F
:101E8000B301811129C080912901823801F1642FA9
:101E900086E291E0E4D58C3518F010920A03299A75
:101EA000FF91EF91DF91CF91BF91AF919F918F9172
:101EB0007F916F915F914F913F912F91FF90EF90A4
:101EC000DF90CF900F900FBE0F901F90189584E079
:101ED000D2DA84E0D0DAFBCFE091B101F091B20127
:101EE0009F01A3E8BDE20E94EC1A0024880F991F0D
:101EF000001C880F991F001C892F902D68E671E047
:101F0000869F9001879F300D969F300D1124E21718
:101F1000F30721F498B184E0892788B9299A2091A0
:101F2000B1013091B2018091AD019091AE01A091CB
:101F3000AF01B091B001BC01CD01620F731F811DD3
:101F4000911D8BD98091B1019091B201019690932E
:101F5000B2018093B1012091B4013091B501821793
:101F6000930708F4BCC01092CA0380915602909166
:101F70005702892B61F1C12CD12CE12CF12C8091DD
:101F8000AD019091AE01A091AF01B091B001BC0143
:101F9000CD016C0D7D1D811D911D42E150E011D9D7
:101FA00042E150E065E273E08C2F0E948018C82F58
:101FB0008093CA038FEFE81AF80A82E1C80ED11C99
:101FC0008091560290915702E816F906C0F280E01F
:101FD00088D94091240360E070E0CB013ED9409164
:101FE000230361E070E080E090E037D94091220364
:101FF00062E070E080E090E030D94091210363E03E
:1020000070E080E090E029D94091200364E070E026
:1020100080E090E022D940911F0365E070E080E00D
:1020200090E01BD940911E0366E070E080E090E0F4
:1020300014D940911D0367E070E080E090E00DD975
:10204000C9E1D3E088E0C82ED12CE12CF12C4991D4
:10205000C701B60102D98FEFC81AD80AE80AF80AF0
:102060008CE0C816D104E104F10489F7409118030B
:102070006CE070E080E090E0F0D81092B301109234
:10208000B2011092B10184EF91E0A0E0B0E0809342
:10209000AD019093AE01A093AF01B093B001F5DA1A
:1020A000E5DA82E08093B00094E09093B1008093F1
:1020B00070001092B20084BD95BD80936E0016BC76
:1020C0008FEF87BD80E58093B30080E0A7DAA4DAC4
:1020D00065DB1092580261E083EE0E9401012998AD
:1020E000DFCEA2E0B0E0E7E7F0E10C94FD1A14BE09
:1020F00099E288E10FB6F894A895809360000FBE2E
:10210000909360008EE190E00E94D01A813029F017
:1021100061E08EE190E00E94D81A82E38093170379
:1021200088EC90E00E94D01A80930D0389EC90E037
:102130000E94D01A80930C038AEC90E00E94D01A7F
:1021400080930B0384E690E00E94D01A082F8093BE
:10215000F50585E690E00E94D01AF82E8093F405EC
:1021600086E690E00E94D01A182F8093F30587E648
:1021700090E00E94D01A0F0D100F181739F08FEF52
:102180008093F5058093F4058093F30587E08093B1
:102190005102089A109A0F9A179A3A9A429A3E98C0
:1021A00046985098589851985998539A5B9A5298D3
:1021B0005A98559A5D98569A5E98579A5F983F9AA2
:1021C000479A0A981298219A29983D984598279AF3
:1021D0002F980B9A13983C9A44980C9A149880E084
:1021E0004AD98091C00082608093C0008091C10074
:1021F00080688093C1001092C40086E08093C20082
:1022000044DA34DA8091C00087FF07C08091C600AD
:102210008A838091C00087FDF9CF12E01093B0004F
:1022200004E00093B100109370001092B20080E5BA
:102230008093B30080E0F2D9EFD914BD05BD1093AF
:102240006E0016BC8FEF87BD109280008DE08093EA
:10225000810010936F00109285001092840083E03B
:1022600090E0909389008093880089E18093CC006E
:102270008091C80082608093C8008091C80080640B
:102280008093C8008091C90088618093C9008091C3
:10229000C90080688093C90096E09093CA001092AC
:1022A00026011092270181E88093280110922901CC
:1022B0001092CA011092CB018093CC011092CD01F3
:1022C0001092F6051092F7051092F80526E231E01B
:1022D0003093FA052093F90522EF32E03093FC05A4
:1022E0002093FB051092CC031092FE02109209037A
:1022F00081E080930A031092B7018091C900886041
:102300008093C9008091C90080618093C900249A9C
:102310002C9A2698259A279A8CE58CBD2C989EBDE0
:102320000DB407FEFDCF8EB5809337032C9A2C9801
:1023300089E38EBD0DB407FEFDCF8EB580933703C4
:102340001EBC0DB407FEFDCF8EB5809337031EBCB7
:102350000DB407FEFDCF8EB5809337031EBC0DB4C0
:1023600007FEFDCF8EB5809337032C9AA8950E9467
:102370009E09789410923C0310923D0381E880936B
:102380003E0310923F0310925C0410925B04109283
:1023900057048CE393E0909355048093540489E7A9
:1023A00096E1909353048093520489E38093C7038A
:1023B00088EE93E0909312038093110387E3809358
:1023C0000F0381E080931003109241042CE832E067
:1023D00030933F0420933E0425EC32E03093C90350
:1023E0002093C803109243048093440492E0909396
:1023F000450493E09093460494E09093470495E05D
:102400009093480426E02093420421E631E0309383
:102410004A04209349041092050310920403809308
:10242000FD028BE280933B04909338038FEF8093FF
:102430003B038091FD0582FD09C08091FD0583FD70
:1024400005C08091FD0581FF8091FD0530ED832E53
:1024500037E0932EBB24B39443E0442E55E0552E31
:1024600064E0662E72E0772EA8954AD3A8959091E5
:10247000080380915102891708F4EDC0A895809156
:10248000100381110CC080914E048B3040F090916C
:102490001603911104C08D3008F041C11098359B8E
:1024A00082C08091FE02811178C0809129018C3513
:1024B00018F4B0920A0329988091CD018C3508F464
:1024C00032C18091CD018C3508F063C0359B61C06D
:1024D000C090B701CC2009F45CC0D12C9AEBE92E56
:1024E00091E0F92E00E010E0A12C09C00F5F1F4F12
:1024F000E3E0EE0EF11C0630110509F448C0C601F8
:10250000002E02C0959587950A94E2F780FFEECFE2
:10251000F7014081319760813197808183D18F3F6E
:1025200029F3E82FF0E0EE0FFF1FEE0FFF1FEE0F75
:10253000FF1FE35AFB4F868186FFD8CF86818F7BB2
:1025400086838081AA2DB0E0A85ABD4F8C938181EB
:10255000A1E0AA0DB0E0A85ABD4F8C938281A2E001
:10256000AA0DB0E0A85ABD4F8C938481E3E0EA0D38
:10257000F0E094E0A90EE85AFD4F80830F5F1F4FF3
:10258000E3E0EE0EF11C0630110509F0B8CFA11002
:10259000FEC080910903811135C08091160381111D
:1025A00063CF429861CF8091C80083FF03C08091C0
:1025B000CE0089838091C80084FF03C08091CE0043
:1025C00089838091C80087FDF9CF1092260110926F
:1025D0002701109229011092CC038091C8008064D9
:1025E0008093C8001092CA011092CB011092CD01C5
:1025F00080911603811138CF80911003811134CF5F
:10260000429A32CF0091CD010023C9F0029913C044
:1026100010E08AEC91E037D28093CE008091C80020
:1026200085FFFCCF8091C80086FFFCCF1F5F10178D
:1026300031F0029BEECF2998C4010197F1F7109277
:102640000903C4010197F1F7B0920A0380911603C0
:1026500081110ACFA6CF80914F04F12C06C0F394CC
:1026600080914F048F1508F457C00F2D10E0000F14
:10267000111F000F111F000F111FD801A35ABB4FCC
:1026800017968C911797882351F317968C9117976B
:10269000815017968C9317978111E1CF88E18F15A0
:1026A000F0F28091C8039091C903892BD1F0E09199
:1026B000C803F091C9032C9111963C911197129681
:1026C0004C91129713965C91139714966C911497F2
:1026D00015967C91159716968C91169717969C9146
:1026E000099580914104815080934104F801E35A97
:1026F000FB4F178280914F04F812B1CFFF2009F4ED
:10270000AECF80914F04815080934F04F394809119
:102710004F048F1508F0A9CF10920803AFCE109A7E
:1027200010924E04BCCE8091F9059091FA05FC01FF
:10273000238130E04091F6054430C1F04530D1F4BA
:102740004091F80550E02417350708F4BACE2091DF
:10275000F6052230B1F0233020F1243009F43CC0DA
:10276000A8F1253009F0ADCEA7D1ABCE4091F80548
:10277000442369F3232B09F4A4CE2091F6052230DB
:1027800051F781D18093F8054092F6059ACE6A2DD3
:1027900081EE0E94010180910903882309F4FDCE96
:1027A00031CF222349F0213009F08BCE6CD18093B8
:1027B000F7057092F60585CE66D18C33A9F010929C
:1027C000F6051092F7051092F8057BCE5CD18E339A
:1027D000B1F76092F60575CE8091F805882309F46B
:1027E000C3CF5092F6056DCEB092F6056ACE853015
:1027F00048F493E2899FF0011124EB5DFA4F1282B5
:1028000013821082089510925C0410925B0410925F
:102810005A041092590410925804109257041092BE
:1028200056040895A8E0B0E0E7E1F4E1F4C6909121
:102830004F0490E038E005C09F5F20914F042917B6
:10284000F8F0E92FF0E0EE0FFF1FEE0FFF1FEE0F85
:10285000FF1FE35AFB4FDE011196232F01900D92CB
:102860002A95E1F729812813E7CF2A812613E4CF9F
:102870002B812413E1CF28852223F1F2892F01C077
:102880008FEF2896E2E0E3C66F927F928F929F923D
:10289000AF92CF92DF92EF92FF920F931F93CF935D
:1028A000DF931F92CDB7DEB7182FD62EF42E4A2D08
:1028B0006C2D8E2D2983B6DF29818F3F09F4ADC0A1
:1028C000682E712CE0E0F0E083E2103A60F48E9F15
:1028D000D0018F9FB00D1124AB5DBA4F12969C9121
:1028E0001297913021F18E9FD0018F9FB00D11244E
:1028F000AB5DBA4F12969C911297911104C013963A
:102900009C91992339F13196E530F105F1F68FEF7D
:102910000F90DF91CF911F910F91FF90EF90DF907B
:10292000CF90AF909F908F907F906F900895149666
:102930009C9114971913D7CF1A969C911A97E91264
:10294000D2CF1B969C911B97C912CDCF1C969C9100
:10295000A912C9CFD301AA0FBB1FAA0FBB1FAA0F71
:10296000BB1FA05ABB4F8C91829587706989462FF7
:1029700050E04631510514F080E0CACF93E29E9FAB
:10298000A0019F9F500D1124DA01A75DBA4F3D01B0
:102990004B5D5A4FDA0112961C92129791E01396F2
:1029A0009C93139711968C93D3011C93862F8D5F64
:1029B00011968C9311971296DC9212971396FC92B3
:1029C000139714962C93149715960C9315971696A7
:1029D000EC9216971796CC9217971896AC9266239E
:1029E000F1F09401675F89E0A301480F511DD901FF
:1029F0009D919D01DA019C938F5F8613F5CF23E2B1
:102A00002E9FC0012F9F900D1124FC01EB5DFA4F0A
:102A1000608381E0828380E07BCF8EEF79CF69E0B5
:102A2000EECF8F929F92AF92CF92EF920F930F9330
:102A300094ED892E95E0992EA22EC42EE62E00E06C
:102A40002091F5054091F4056091F3051DDF0F908D
:102A50000F91EF90CF90AF909F908F900895FC01D1
:102A6000818191E0980F9183DF01A80FB11D159628
:102A70006C9391818281891708F4118283818F5F21
:102A8000838383810895FC012FB7F8948081DF014F
:102A9000A80FB11D15968C9190819F5F9083308116
:102AA0009281931708F410829381915093839481BB
:102AB0009F5F94832FBF08958091F9059091FA0547
:102AC000FC011482E091FB05F091FC05309759F070
:102AD0006091F8058091F705099501C0D4DF8091D8
:102AE000F9059091FA05FC0134812091F80532171F
:102AF000A8F31092F6051092F7051092F8050895C4
:102B0000A0E0B0E0E5E8F5E17EC5C0915404D091C5
:102B1000550488E0A82E12E095E0B92E27E0C22ED9
:102B200034E0D32E46E0E42E53E0F52E01E09B8105
:102B300080915C04863038F491110AC0CDB7DEB7BD
:102B4000EAE07DC5B2C0863009F4A4C08730B1F098
:102B5000E0915C044E2F50E048305105D0F01092C7
:102B60005C0410925B0410925A0410925904109263
:102B700058041092570410925604D9CF80915704EC
:102B80009817E0F2E0915C044E2F50E04830510578
:102B900030F7FA01E353FF4F19C5CE0174DF80937C
:102BA0005A04CE0170DF80935904CE016CDF80930C
:102BB0005804D0925C04BBCFA0925C048881FE01D3
:102BC000E80FF11D85818F3F09F46CC010925C0401
:102BD00010925B0410925A041092590410925804F7
:102BE000109257041092560410935C04A0CFC09228
:102BF0005C04CE0148DF8093560499CFCE0143DFB9
:102C000080935704E0925C04809157048F3108F060
:102C1000A6CF8DCFCE0137DF80935B04F0925C04AA
:102C200086CFCE0130DF8093510410935C048091F5
:102C30005104853008F47BCF809151048F3F09F017
:102C40008ECF75CFCE011FDF8093500400935C04BC
:102C500080915004863008F082CF69CFB0925C0436
:102C60001C82E0915204F0915304309729F00995A9
:102C7000C0915404D09155048C81909157048917C8
:102C800008F055CFCE01FFDE9C8180915704981744
:102C9000C8F34DCF933008F05BCFCDB7DEB7EAE095
:102CA000CEC403C0CE01EFDE5ACFA0E0B0E0EAE52B
:102CB000F6E1A5C4B82ED62EF42ED22F3801CE2D93
:102CC000A895CF934301AD2ECF2CED2C00E02091A1
:102CD000F5054091F4056091F3058B2DD5DD0F903E
:102CE000811105C080E0CDB7DEB7EEE0A4C408DFF7
:102CF000E8CFA7E1B0E0EEE7F6E17FC4A8958091C8
:102D00005A041091F305811709F47BC080915B048C
:102D1000803768F480915B04813009F4ADC0809104
:102D20004E048F5F80934E046796E0E182C440902A
:102D3000540450905504C201A6DEE82EC201A3DE61
:102D4000C82EC201A0DEA82E00915704409158045D
:102D50006091590480915A0465DD8F3FC1F09091D4
:102D60004104E82FF0E0EE0FFF1FEE0FFF1FEE0F04
:102D7000FF1FE35AFB4F2781892F90E0089630E030
:102D80008217930724F080914104875F87838091A5
:102D9000F505A81609F453C04A2D6C2D8E2D42DD81
:102DA0008F3F21F190915B04983A09F4DEC0035003
:102DB00009F413C1BE016F5F7F4F4B013B0110E06F
:102DC0001F5FC20160DED3018D933D010113F8CF77
:102DD00000915604209158044091590460915A047E
:102DE00080915B040F5F1F934FDD0F9080914D0426
:102DF000882309F494CF80914D04815080934D0431
:102E00008ECF909159048091F40598137FCF9091C3
:102E100058048091F505981379CF80915704882341
:102E200009F482CF809054049090550410E0C401BE
:102E30002ADE1F5F909157041917C8F375CF809150
:102E4000F405C812A9CF1E11A7CF80914D04882385
:102E500029F080914D04815080934D0480915B0452
:102E6000803709F4BFC0E0914904F0914A043097DB
:102E700009F455CF099553CF809156048A3108F053
:102E800053CF80915704823009F04ECF0091540403
:102E900010915504C801F7DDA82EC801F4DD8F8B11
:102EA000E09050049F899170492EC82EC69450908E
:102EB00056045394F0905804D0905904B0905A049A
:102EC0004F2D6D2D8B2DAEDC8F3F09F49AC0082F4E
:102ED00010E0000F111F000F111F000F111FF8014C
:102EE000E05AFB4F20812F70852D90E030E02817AD
:102EF000390724F1852D8F70F801E35AFB4F938138
:102F0000907F592E582A53828E2D8770982F929534
:102F1000907F83818F78892B8383A482C5828FE7FA
:102F2000868380914104278190E0089630E08217E3
:102F3000930724F080914104875F8783442031F018
:102F4000F801E35AFB4F838180688383F801E35AD9
:102F5000FB4F268181E090E00E2C01C0880F0A947F
:102F6000EAF7809582238683DACE90E0880F991F56
:102F7000880F991F880F991FFC01E35AFB4F2FEF11
:102F80002783F2012081E20FF11D2581211110C05C
:102F90002091500420934304FC01E05AFB4F8081B0
:102FA000829587708093440482E080934204FFCE30
:102FB0001092430481E08093440482E080934504AE
:102FC00083E08093460484E08093470485E0809307
:102FD000480486E080934204EACE10E0FE01319678
:102FE0004F01F6CEC2014FDD182FC2014CDD809398
:102FF0004C0480914C04882309F491CE10934B0427
:103000008ECE00E010E0BE016F5F7F4F4B0148E0C5
:1030100006C00F5F1F4F0931110509F480CE802FC4
:103020009801220F331F220F331F220F331FD901A4
:10303000A35ABB4F3D01FD01D401942F01900D9285
:103040009A95E1F798859111E4CFF301B082D1828E
:10305000F2829381292F207F952D9F70922B93834D
:103060009E2D97709295907F23812F78922B93833A
:10307000A482938140FA97F993839FE79683909176
:103080004104975F9783C582909141049F5F90931D
:103090004104F4E0CF1671F190914F04981710F4A9
:1030A00080934F0480913E0490913F04892BD9F086
:1030B000E0913E04F0913F04D3012C9111963C9194
:1030C000119712964C91129713965C911397149640
:1030D0006C91149715967C91159716968C9116976E
:1030E00017969C910995000F111F000F111F000FDB
:1030F000111F2CCF61E05612CFCF50924004CCCF9D
:10310000CF93DF93EB014115510509F1460F571F8E
:10311000E991A82FAE27A295AF70B0E0AA5EBE4F8E
:1031200020E1829FC00111249C918927982F9295BC
:103130009F70E927EF70F0E0EA5EFE4F20E1829F8A
:10314000C001112490818927C417D50709F7DF91A1
:10315000CF9108951F93CF93DF93109239040E946B
:103160003C0B80913C040E944C0D80913C048111E9
:103170003BC0809138040E944C0D80913C04882310
:10318000A9F010E0C12FD0E080913904CC52DC4F7F
:1031900041E050E0BE01B4DF8093390488810E9491
:1031A0004C0D1F5F80913C04181760F380913C0424
:1031B000882321F08091D303811107C00E94570C0E
:1031C00089E0DF91CF911F91089580913904809318
:1031D0003904809139040E944C0D0E94570C89E0FB
:1031E000DF91CF911F9108958091390441E050E023
:1031F0006CE374E085DF809339048091390441E009
:1032000050E068E374E07CDF80933904B2CF8091B2
:10321000C600813059F080913A048F5F80933A0460
:1032200080913A048630A0F08AE0089580913D04B0
:103230008F3F19F080913D04DADA10923C048091BE
:103240003B048A3289F310923A040C942E0E0895AE
:1032500081CF08951F93CF93DF938FEF80933D0429
:103260008091D20395E063E28F5F853008F0E4C07F
:10327000282F30E010923804629FF001639FF00D18
:103280001124EB5DFA4F51814091D003541709F49A
:10329000D7C0915049F78093D2038093D103809196
:1032A000CD032091D00390E002C0959587952A9593
:1032B000E2F780FF0BC02091CE0380913C0430E008
:1032C00090E00896821793070CF4F2C080914F04A7
:1032D00040E061E070E011E052E0842F90E0880F60
:1032E000991F880F991F880F991FDC01A35ABB4FA4
:1032F00017962C911797222309F493C016962C91B8
:103300001697E091D00330E002C035952795EA95F5
:10331000E2F720FF86C020913C04E091CE0330E02C
:10332000295F3F4FF0E02E173F070CF080C020913F
:10333000D0031696EC911697EB0102C0CC0FDD1F5F
:103340002A95E2F79E01209530952E2316962C9310
:103350001697E0913C0421E02E0F20933C04F0E00E
:10336000EC52FC4F1083E0913C0421E02E0F20939F
:103370003C04F0E0EC52FC4F5083E0913C0421E02F
:103380002E0F20933C04F0E02C91EC52FC4F208354
:10339000E0913C0421E02E0F20933C04F0E01196D4
:1033A0002C911197EC52FC4F2083E0913C0421E0DA
:1033B0002E0F20933C04F0E012962C911297EC52C1
:1033C000FC4F2083C0913C0421E02C0F20933C044F
:1033D000D0E0FC01E05AFB4F80818F70CC52DC4F73
:1033E0008883C0913C0481E08C0F80933C04D0E042
:1033F00014968C911497CC52DC4F888380913C04B6
:1034000091E0980F90933C0490E0208127FB3327B4
:1034100030F915962C91220F230FFC01EC52FC4F32
:1034200020834F5F80914F04841708F056CF92DEBF
:10343000DF91CF911F91089520E030E080E01ACF16
:103440004281413009F025CF50814091CF0345178B
:1034500008F41FCF50814091CE03451708F419CFCF
:103460008093D2038093D1039081992399F090E0C7
:10347000A0913C0441E04A0F40933C04B0E0EF01CE
:10348000C90FD11D4C81AC52BC4F4C939F5F408102
:10349000941770F393E2929FF001939FF00D112423
:1034A000EB5DFA4F90819093380480933D04F7CE02
:1034B0003091D0032091CD0381E090E002C0880FCD
:1034C000991F3A95E2F78095909582238093CD03DA
:1034D000E0913C0481E08E0F80933C04F0E0EC52DC
:1034E000FC4F81E08083E0913C048E0F80933C048C
:1034F000F0E0EC52FC4F82E08083E0913C0481E0FC
:103500008E0F80933C04F0E08091F305EC52FC4F69
:103510008083E0913C0481E08E0F80933C04F0E0D6
:103520008091F405EC52FC4F8083E0913C0481E0F3
:103530008E0F80933C04F0E08091F505EC52FC4F37
:103540008083E0913C0481E08E0F80933C04F0E0A6
:10355000EC52FC4F1082E0913C0481E08E0F80938E
:103560003C04F0E080914B04EC52FC4F8083E091EE
:103570003C0481E08E0F80933C04F0E0EC52FC4F61
:1035800088E08083A3CE8091C6008093CF03809192
:10359000CF03882319F08FE18093CF035BCE08958A
:1035A000F999FECF92BD81BDF89A992780B508950B
:1035B000262FF999FECF1FBA92BD81BD20BD0FB64F
:1035C000F894FA9AF99A0FBE01960895EE0FFF1F2C
:1035D0000590F491E02D0994A29FB001B39FC00122
:1035E000A39F700D811D1124911DB29F700D811D2F
:1035F0001124911D08952F923F924F925F926F92E6
:103600007F928F929F92AF92BF92CF92DF92EF9272
:10361000FF920F931F93CF93DF93CDB7DEB7CA1BF3
:10362000DB0B0FB6F894DEBF0FBECDBF09942A881E
:10363000398848885F846E847D848C849B84AA84C6
:10364000B984C884DF80EE80FD800C811B81AA8153
:10365000B981CE0FD11D0FB6F894DEBF0FBECDBF1E
:10366000ED010895F894FFCF2E0E4308080EEA0DE1
:103670005C0D3608C31A2A19AA180719000000079A
:0E3680000E091C1B1215383F363124232A2D4B
:00000001FF
