:100200008131EA2900340034813120007F08CD009B
:100210002700131D192984317024813184317724FA
:1002200081310430280096008C31AA2481312700C6
:1002300013112000931843294D2984317D248131E5
:100240008C31962481318C31B224813186319A26C9
:1002500081310230280096002000BC01BC0A8C319C
:10026000AA2481314B298C319C2481312000BC018E
:1002700084317D248131013020009B009A018C3132
:10028000892481314B293C08003A03191D29013A80
:10029000031933294B2920009310911CC7292100F1
:1002A000A80A0319A90AB6298431772481312000CC
:1002B0000630AB0A2B020318AB012B08F000F1014A
:1002C0008C31DA2481318C319124813101309B00D1
:1002D000B501B50AC5298C31B7248131023020001F
:1002E0009B00B500C52906309B000330B5008C315A
:1002F000A3248131C5298C31B22481318C319624DB
:10030000813120002308A5002208A400A201A30136
:1003100039089B000730B501F000F1012408FE3ECA
:10032000F200FF30253DF3008C31BA248131710891
:100330002100E9007008E80069086804031DB2297B
:10034000003020002502093003192402031CB229C1
:1003500084317024813182311B2281318C31892496
:100360008131C5298C318D248131C5292000350882
:10037000003A03195429013A03196B29033A031966
:100380007329013A03197B29C5292000911093197B
:100390009311911EE72900302302D2300319220263
:1003A0000318E729230019082000CA0022081E3E6E
:1003B000CB00233003182430CC004B0886004C08B7
:1003C00087004A088100A20A0319A30A9A014D086E
:1003D000FF00090088018D310C2DE101E0012508A5
:1003E0002100B100200024082100B000FE30B00739
:1003F000FF30B13DF001F101210031087102031D10
:10040000032A3008700270080318172A1E3E86005F
:10041000233003182430870001082000E00770080B
:100420000A258131E106F00A0319F10AFC290A259F
:100430002000E10608002100A00A0319A10A0319FF
:10044000A20A0319A30A0730F000F10120002408D2
:10045000FE3EF200FF30253DF300D82481317108C3
:10046000A1007008A000ED218131003021021E3072
:100470000319200203180800E108031D08002408DE
:100480001D3EFD2481316006031D0800C801C9011D
:1004900021084902031D4E2A200848020318742A25
:1004A0004908F100480828258131C32481317108A9
:1004B000C7007008C600223E860023300318890A50
:1004C0008700010AC3004608223EC40023300318F7
:1004D000890AC50044088600450887004308810052
:1004E000C80A0319C90A482A45238131772AFB0122
:1004F000FC012108F100200828258131C324813125
:1005000071087C02031D862A70087B02031808000C
:100510007B08243EFD248131503A0319332B7B089C
:100520001F3E042581315D06031DA32A7B08203E62
:10053000042581317D06031DA32A7B080A2581310C
:100540005E060319332BF901FA012A08F700F801B6
:1005500078087A02031DAE2A7708790203180C2B5B
:100560007908A03E8600013087007B081E3E84008B
:10057000233003182430850000080106031D082BD2
:1005800079083E3E8600023087007B081F3E8400CB
:1005900023300318890A850000080106031D082B73
:1005A0007908203E86007B08203E12258131010615
:1005B000031D082B79083E3E8600013087007B082A
:1005C000243E122581310106031D082BBA01BA0A07
:1005D00018258131122581310102031C082B79086D
:1005E000203E8600013087007B08213E12258131A4
:1005F0008100182581311225813181007908BE3EA4
:100600008600013087007B08233E1225813181005E
:10061000F90A0319FA0AA52ABA08031D322B7B0826
:100620001F3EFD248131F0007B08203E04258131EE
:10063000F1007B08213E04258131F2007B08223E37
:1006400004258131F3007B08233E04258131F40029
:100650007B08243E04258131F5007B080A25813181
:1006600039248131BA010730FB070318FC0A792AC3
:100670003125813183248131C030F00011302D25A6
:1006800081319824640001000800F701F801210875
:100690007802031D4D2B2008770203180800780804
:1006A000F100770828258131C32481317108FA00CF
:1006B0007008F900243EFD248131713A031D732B2B
:1006C000AC08031D732BAC01AC0A5D08F0007D087B
:1006D000F1001E30F201F301F30AF4007330F5006B
:1006E0005E08392481317908243EFD248131903A15
:1006F000031D972BBB08031D972BBB01BB0A31259C
:10070000813183248131C030F00022302D258131A8
:100710009824813170248131772481317D24813185
:1007200028001E11250093011F2581310100790841
:100730000A25813120005E06031DD42B79081F3E57
:10074000FD2481315D06031DD42B7908203E04254C
:1007500081317D06031DD42B7908213E042581318A
:100760007D3A031DD42B7908243E04258131623A59
:10077000031DD42BAD08031DD42BAD01AD0AAA0176
:10078000A90170248131772481317D2481312800B1
:100790001E112500930128009D019C0121009D014F
:1007A0001F258131382381317908243EFD24813190
:1007B0006F3A031DF02B2000AF08031DF02B5D08DE
:1007C000F0007D08F100C830F201F20AF301F30AEB
:1007D000F4006F30F5005E0839248131AF01AF0AB3
:1007E00079080A25813120005E06031D352C790821
:1007F0001F3EFD2481315D06031D352C7908203E06
:10080000042581317D06031D352C7908243E0425FD
:100810008131863A031D142CBE01BE0A7908213E9F
:1008200004258131BD00352C7908243EFD24813119
:10083000893A031D1D2CBE01352C7908243EFD2468
:100840008131873A031D292CBD2481312000DF012D
:10085000352C7908243EFD248131883A031D352C3E
:10086000C02481312000DF01DF0AF70A0319F80AEA
:10087000472BF6001E302A020318080006307402C7
:10088000031C08002A08A03E860001308700760875
:1008900081002A083E3E86000230870070088100F1
:1008A0002A08203E8600710881002A08203E860022
:1008B00001308700720881002A08BC3E860087014B
:1008C000730881002A08BE3E860001308700740844
:1008D00081002A083E3E860075088100AA0A0800A9
:1008E00020001C112100911020009A0108008B119A
:1008F0002700121121000C1508002800950117117E
:1009000021009310080070082300910071089200E4
:10091000553015139517151615159600AA30960023
:1009200095140000000000000000230015110800CD
:10093000F3009517151515121513951670089100EB
:100940007308920072089300710894005530960065
:10095000AA3096009514000000000000000023005B
:10096000553095129600AA309600951400000000AC
:100970000000000023001511080022000E140800DA
:1009800022000E100800F401F501701CCB2C720837
:10099000F4077308F53DF235F30DF136F00C7108EC
:1009A0007004031DC52C7508F1007408F0000800E0
:1009B000F401F501710870040319F82CF601F60A28
:1009C000F11BE52CF035F10DDF2CF435F50D710838
:1009D0007302031DED2C70087202031CF42C7008C6
:1009E000F2027108F33B7414F136F00CF60BE52CAF
:1009F0007508F1007408F000080086002330031821
:100A0000890A870001080800860023300318890A34
:100A1000010808001E3E860023300318243087009A
:100A200001080800840023300318890A0008080020
:100A30007908BC3E860087017B08223E080027001B
:100A4000131120009310911093110B138B130800B6
:100A5000F0000730F200F3010800F1001430F2005A
:100A60001F34C030F0001F30F10008002100E30106
:100A7000E401E501E601DF01E001E101E201E70156
:100A800020002A08210067020318942D67083E3EC3
:100A90008600013087008108031D922D6708BC3E47
:100AA000860087018108031D612D67089426853122
:100AB000E30701300318E4070318E5070318E60706
:100AC000922D6708942685312000D600D701210099
:100AD0007F268531BE2585314F08D9004E08D800C4
:100AE000FE25853156082100DA00200057088B26A4
:100AF0008531E3075B08E43D5C08E53D5D08E63DC4
:100B00007F268531BE2585314E082100DA00200080
:100B10004F088B268531DF075B08E03D5C08E13D2F
:100B20005D08E23DE70A402D6208610460045F044D
:100B3000031D9C2D6308080062082000D1002100DD
:100B400061082000D000210060082000CF002100B3
:100B50005F082000CE00210066082000D50021009B
:100B600065082000D400210064082000D300210083
:100B700063082000D20013264E080800D301CF1FBF
:100B8000C82DCE09CF09CE0A0319CF0AD301D30A43
:100B9000D11FD12DD009D109D00A0319D10A0130B2
:100BA000D306D401D5014F084E040319F12DD2010B
:100BB000D20ACF1BDE2DCE35CF0DD82DD435D50D95
:100BC0004F085102031DE62D4E085002031CED2D67
:100BD0004E08D0024F08D13B5414CF36CE0CD20B66
:100BE000DE2D53080319F92DD409D509D40A0319A8
:100BF000D50A5508CF005408CE000800DA01DB0101
:100C0000561C062E5808DA075908DB3DD835D90D91
:100C1000D736D60C57085604031D002E5B08D700A4
:100C20005A08D6000800D701D11F232ECE09CF09BC
:100C3000D009D109CE0A0319CF0A0319D00A031922
:100C4000D10AD701D70AD51F322ED209D309D40928
:100C5000D509D20A0319D30A0319D40A0319D50AEC
:100C60000130D706D801D901DA01DB01510850045F
:100C70004F044E040319682ED601D60AD11B452E07
:100C8000CE35CF0DD00DD10D3D2ED835D90DDA0D85
:100C9000DB0D51085502031D572E50085402031D49
:100CA000572E4F085302031D572E4E085202031CA5
:100CB000622E4E08D2024F08D33B5008D43B510855
:100CC000D53B5814D136D00CCF0CCE0CD60B452EBC
:100CD00057080319762ED809D909DA09DB09D80A89
:100CE0000319D90A0319DA0A0319DB0A5B08D100D0
:100CF0005A08D0005908CF005808CE0008006708ED
:100D0000BC3E8600870101082000CE001430CF01D0
:100D1000D000D10108002100DB000030DB1BFF30D8
:100D2000DC00DD005A080800203E86000130870004
:100D3000010808000030F601F7010038031DA42E59
:100D4000003A0319E92E0030003A0319C52E20009D
:100D50005E088627863120005D08862786317D085B
:100D6000862786312000290886278631B8278631D4
:100D700086278631323086278631003086278631B5
:100D8000C92786312907323EF6000030003A0319A0
:100D9000082F2000400B082F5E0886278631200090
:100DA0005D08862786317D08862786312000290840
:100DB00086278631B82786318627863132308627C6
:100DC0008631003086278631C92786312907323E91
:100DD000072F20005E088627863120005D088627C1
:100DE00086317D088627863120005C08862786317B
:100DF0007708C127863186278631323086278631AB
:100E0000403086278631C92786315C07723EF6005E
:100E10000030003A03192E2F2000C008031D2E2F8A
:100E20005E088627863120005D08862786317D088A
:100E30008627863120005C08862786317708C127FF
:100E400086318627863132308627863140308627A4
:100E50008631C92786315C07723EF600F801200012
:100E60002A0878020318812F78083E3E8600013058
:100E700087008108031900307808A03E8600010829
:100E80008627863178083E3ECF27863186278631F1
:100E90007808203ECF2786318627863178083E3E67
:100EA0008E27863175067406730672067106010672
:100EB000F7067808203E86000108862786317808E4
:100EC000BC3E8600870101088627863178083E3EB1
:100ED0008E2786317507740773077207710701073C
:100EE000F6077808BE3E8600010886278631780816
:100EF0003E3E860001308700010886278631F80AC9
:100F00002F2F7708862786317608862FF00020005D
:100F1000111E872F700823009A00080086000130F8
:100F200087007808BE3E8400013085000008F1008B
:100F30007808BC3E840085010008F2007808203E55
:100F40008400013085000008F3007808203E84000A
:100F5000023085000008F40078083E3E8400000856
:100F6000F5007808A03E84000130850000080800E4
:100F7000770820005E065D067D062906323AF700F6
:100F8000003420005E065D067D065C06723AF700BE
:100F90000034760820005E075D077D0708008600A4
:100FA0000230870001080800EF278731F2278731D8
:100FB000EF278731F2278731EF278731F2278731F3
:100FC000EF278731F2278731EF278731F2278731E3
:100FD000EF278731F2278731EF278731F22F220061
:100FE0008E1608008E120800640080010131013065
:100FF000FE020030FF3B7F087E0403190034F52F0A
:101000008E317A2E8E317F2E8E31842E8E31892E26
:101010008E318E2E8E31932E8C31DD2C8C31E22C44
:101020008C31E72C8C31EC2C8C31F12C8C31F62C62
:101902000034003420008E15080020008E110800DB
:101912001C152100911408008B15270012150800D0
:1019220021008D1220008D1208008D1322001D113E
:1019320023009E16080023009E1222001D1521007E
:101942008D17080021008D1623001D162100911607
:1019520008002800950197141714171521009314F5
:10196200080023001D1221009112B72C21008D16B0
:101972000800710870040319D52CF401F40AF11B54
:10198200C52CF035F10DBF2C71087302031DCB2C51
:1019920070087202031CD12C7008F2027108F33B2A
:1019A200F136F00CF40BC52C7308F1007208F0004C
:1019B20008007008DC00FB2C22000E138E130E129E
:1019C200080022000E178E130E12080022000E13BA
:1019D2008E170E12080022000E178E170E12080024
:1019E20022000E138E130E16080022000E178E13FD
:1019F2000E1608007108003A0319002D0A2D70080E
:101A020084000630040203180800883104350C3EB5
:101A120082000800C42F1E30840023308500D2309B
:101A2200FE000030FF018731F4278D312030840021
:101A3200003085002330FE000030FF018731F4279B
:101A42008D31A0308400003085003A30FE00003035
:101A5200FF018731F4278D31203084000130850069
:101A62003C30FE000030FF018731F4278D31A03079
:101A72008400013085003C30FE000030FF018731D8
:101A8200F4278D3120308400023085003C30FE0086
:101A92000030FF018731F4278D310130DF00DE3065
:101AA200E000DD30E10021000730E800DD30E9012F
:101AB200EA0020005C2D7030210099006400E030C3
:101AC2002000CE001F3017268D3113082000DE00C3
:101AD200E130CE001F3017268D3113082000DD00C3
:101AE200E230CE001F3017268D311308FD00200092
:101AF200C001DF01DF0AAD012F268D31CE01CF01FA
:101B020077268D312000A901AA01A8268D31200057
:101B12009A0102309B009C141C141C139C121C1270
:101B22009C111C152100911423009D1722009D1366
:101B32001D11230007309F108D128D131E159F1546
:101B42009B009C0120301E122100980023000C11E2
:101B520021000C158B1527001215C2278D31640048
:101B6200AC268D310B178B1764002100AA0A0319CA
:101B7200AB0A2000B30A21002B08033AE83003190C
:101B82002A06031DC62D29268D3120005F0BF82D54
:101B9200003021002302031DD82D00302202031D34
:101BA200D82D00302102031DD82D14302002031835
:101BB200EF2DF82DB101B10A2100A001A101A2016E
:101BC200A3012C268D31F82DB10112302100A00085
:101BD200A101A201A30129268D31F82D200031088F
:101BE200003A0319DB2D013A0319E52DF82DC9300E
:101BF20020003302031C0C2EB301BE08031D0A2E63
:101C02000030003A0319072EB0268D31C3278D31DB
:101C12000C2E3D08A900E5268D3177278D315A0813
:101C2200B800380807390F3EB900B52DCF004E086D
:101C32002300910020004F082300920015139517EE
:101C42001514000000000000000023001510080019
:101C520022000E14080022000E10080023000E13AA
:101C62008E1321000E138E130E1223008D120C11EF
:101C72008D1321008D160C158D1723000E108E105A
:101C820021000E108E1020008E1023000D13210053
:101C92000D1320000D1323000D1221000D12200040
:101CA2000D1223000E1521000E1523008E112100A6
:101CB2008E1120008E1121008E1220008E12210022
:101CC2008C1220008C1223000C1221000C12200016
:101CD2000C1223000C1021000C1020000C10230009
:101CE2008C1021008C1020008C1008004E08DC00A3
:101CF200982E22000E138E130E12080022000E17C9
:101D02008E130E12080022000E138E170E120800F8
:101D120022000E178E170E12080022000E138E13C9
:101D22000E16080022000E178E130E1608004F081A
:101D3200003A03199D2EA72E4E0884000630040295
:101D42000318080088310435003E820008008B1514
:101D52002700121508001330210097000800C00167
:101D6200D001D1012A08CE00CF014F085102031D34
:101D7200BC2E4E085002031808005008A03E8600F0
:101D82000130870001085E06031DD72E50083E3E33
:101D920086000230870001085D06031DD72E500819
:101DA200203E860001087D060319E12E50083E3EC2
:101DB2008600013087008108031DE12EC001C00AA0
:101DC200D00A0319D10AB32E023021002902BD30F4
:101DD20003192802031C0800A801A9012000D00150
:101DE2002A085002031808005008BE3E860001303F
:101DF200870081035008BE3E8600053001020318A9
:101E0200072F5008CE00CF0109278D31D00AF12EBD
:101E1200AA034E08A03E8600013087002A08A03E91
:101E2200F9278D313E3E8600023087002A083E3E69
:101E3200840002308500000881004E08203E8600A2
:101E42002A08203E8400000881004E08203E8600B9
:101E5200013087002A08203E8400013085000008F6
:101E620081004E08BC3E860087012A08BC3E8400E1
:101E72008501000881004E08BE3E860001308700C1
:101E82002A08BE3EF9278D313E3E86002A083E3E94
:101E92008400000881002A08A03E86007A30810072
:101EA2002A083E3E8600023087007A3081002A08E6
:101EB200203E86007A3081002A08203E86000130CA
:101EC20087007A3081002A08BC3E86007A3087017A
:101ED20081002A08BE3E8600013087007A308100E8
:101EE2002A083E3E86007A30810008002000B608AB
:101EF200031D802FCE01CE0ACF01B5278D312100DF
:101F020027082000D100210026082000D00021004F
:101F120025082000CF00210024082000CE004130F7
:101F2200D500C630D4004E30D3006D30D200CE275B
:101F320039304E072100A400303020004F3D2100EF
:101F4200A50000302000503D2100A60000302000F6
:101F5200513D2100A70027082000DB0021002608B0
:101F62002000DA00DB1308004E082100A400200044
:101F72004F082100A500A601A7012000B601B60A5C
:101F82000800C42FF32F193021009D009E131E1745
:101F92009E161E129E101E100800D601D701D801EF
:101FA200D9014E1CDC2F5208D6075308D73D5408DE
:101FB200D83D5508D93DD235D30DD40DD50DD136E6
:101FC200D00CCF0CCE0C510850044F044E04031D0C
:101FD200D22F5908D1005808D0005708CF00560810
:101FE200CE0008000030853136252000A900080007
:0E1FF200840001308500000881004E080800C0
:020000040001F9
:02000E00DCCF45
:00000001FF
