:102C00009631212EFF3FFF3F963120007F08D200F2
:102C1000911E0D2E9931AE2196312700131D132ED2
:102C200099319F2196312000911C192E9C315824F6
:102C300096310B1D1D2E9C31142420005208FF00DC
:102C4000090020000308A0009631262E8C30840055
:102C5000233085006430FE00FF01993176219631E2
:102C60002130E4018400003085002C30FE00FF019B
:102C700099317621963121002030E901EA01EB01FA
:102C8000EC01ED01EE01EF018400013085003E30E2
:102C9000FE000030FF019931762120009E31032E85
:102CA000230019082000B00030080319592E1F30E6
:102CB000B0005A2ECA013C083406031D842E3D0B79
:102CC000842E3E0B842E3F083002031C842EF30119
:102CD0003F0873020318822E73083F3E86000130BE
:102CE00087000108F00049088C3EF1002330F20112
:102CF000F23D710886007208870070088100C90AD9
:102D0000F30A682E3F08CA000130F000340A892E09
:102D1000F035890B882E700838050319CD2E490827
:102D2000083EF000003003180130F100803AF20054
:102D300080307202031D9E2E2F0870020318CD2EC4
:102D40000130F0002000340AA62EF035890BA52EA4
:102D50007008FF3AB805CF26963101308100C90AC4
:102D6000CF26963102308100C90ACF269631210044
:102D70006B0881002000C90ACF26963121006A081D
:102D800081002000C90ACF26963127088100DA2663
:102D90009631DA269631DA26C90A9731502F49083A
:102DA0008C3EF0002330F101F13D7008860071087F
:102DB00087000800C90A49088C3E86002330870135
:102DC000873D81010800FF308C008D0006308E00A9
:102DD00029309D009E131E179E161E129E101E1057
:102DE00023008E1120008E118E1223008D120C11E3
:102DF0000E138E130E1022000E138E130E120800E7
:102E0000002F97318207032F993182299731312F73
:102E1000993171299C310C2C9D311F2D9731F72F41
:102E20009631502E96315A2E9731502F9731182FB8
:102E3000230019082000C000400B2B2F4A0803195B
:102E4000252F01309D31D225973132082A3A0319B6
:102E50000A34AC01312FAC0A06302C0203180A34B4
:102E6000502F9F2797312100EF08031D402F01307D
:102E7000EF002000BA010130CC01CC0AB100432F91
:102E80002000CC01B1011F30F0004C08A62797317B
:102E90009627973120004C0896279D31CC25013488
:102EA0002000AD019F2797312000490896279731D0
:102EB0002000490803196C2F4930F0000030B22778
:102EC0009D3198259731AD004A30F0000030B2278F
:102ED0009D3198259731AD004A0896279731FC011E
:102EE000200049087C0203188E2F7C088C3EFA00D3
:102EF0002330FB01FB3D7A08F0007B08B2279D31AF
:102F000098259731AD007C088C3E860023308701E0
:102F1000873D010896279731FC0A702F490803194D
:102F2000932F2D0896279D31CC250934F000111ED2
:102F3000972F700823009A009E1808009C2F2300EA
:102F40001D122100911223009E160800F200F101CB
:102F500070087218F107F035F236F208031DA82F39
:102F600071080800F100F201F20AF3012D080800CF
:102F7000700823009100710892001513951715161B
:102F80001515ED2797312300151164002300151A3C
:102F9000C62F6400230095139518CC2F0800F3006A
:102FA00095171515151215139516700891007308CD
:102FB00092007208930071089400ED279731230066
:102FC0009512ED2797312300151164002300951801
:102FD000E62F640023009513080055309600AA30B0
:102FE0009600951400000000000000000800230077
:102FF00019082000AF000634FF3FFF3FFF3FFF3FAF
:103000000034003407340E3409341C341B341234B9
:10301000153438343F3436343134243423342A34AC
:103020002D34033405340734013409340B340D34A2
:103030000F34113413340034FF3FFF3FFF3FFF3F95
:1032E000FF3F230019082000AE00023464000130C3
:1032F00080010131FE020030FF3B7F087E0403198C
:103300000034772948088C3ECF002330D001D03DCF
:103310004F0886005008870023001908810020000C
:10332000C80A2E08013ECF00003003180130D0003B
:1033300048084F065004031D03349D311F2DAB2157
:1033400099312000AB012A30B200D121AA016414C6
:103350002700131108008B1111110800B608031D76
:10336000B4299C31BF249931003023001D1901304C
:103370002000D10051030319C02923009D1CC4293A
:10338000230019089C31432C210091102000B60A1B
:10339000D12199312B080A3A0319C229AA016414D0
:1033A00008002B08113E98310A00973101272000B0
:1033B000AB0008002000D6008B1364002300951793
:1033C00015151512151395162000530823009100AA
:1033D00020005608230092002000D70157355407DB
:1033E000D50086008701413F230094002000573517
:1033F0005407D50086000108230093009F319C27C5
:1034000099312300910A20000730D70A5702031C84
:10341000EE292300951220005408860087014E3FB4
:10342000230093002000540886004F3F230094009F
:103430009F319C2799312300151164002300151832
:103440001E2A6400230095138B1708001230970082
:103450008B130130B3239A3120000530D3014F2361
:1034600000309E31EF26813100290800220020081B
:103470002100DF0070305F020318432A2100EF01B2
:103480002000BA0108006E08E40022002108FD3E79
:103490002100DB00220022082100E5002200230891
:1034A0002100E600220024082100E700220026086F
:1034B0002100DC00220027082100DD00220028086E
:1034C0002100DE005C086B06031D3E2A5D086A06CB
:1034D000031D3E2A5E0820002706031D3E2A210008
:1034E000E3015B0863020318822A6308B03E86008A
:1034F00087016308293E84000130850000088100AF
:10350000E30A712AEF012000BA0121005F08A03A06
:103510000319332B063A0319AA2A0E3A0319F52A7E
:10352000033A0319942A4E2BEC012000A501A601B1
:1035300021003008ED0031082000A40021003208ED
:103540002000A300AC30FE239A31D701D80121001E
:1035500064086C2B2000A50A0319A60A2100300874
:10356000E0003108E100E8016808A03E860087011C
:103570006808023EB03E84008501000881001030DA
:10358000E80A6802031CB42A61082000D300A030B6
:10359000D400210060089931DA219A3121006008B5
:1035A0002000C600210061082000C700C10A4108B0
:1035B00021006D060319E52A200024082602031DB8
:1035C000E32A23082502031CF12A2000A730C101A9
:1035D000FE239A314630D7000230D800210064081B
:1035E0006C23013022008E0608003008E200620BD6
:1035F000FA2A262AE208031D0800EC018B1365084D
:103600002000D30000304F239A319518052B21005C
:1036100066082000D30001304F239A3195180E2BF5
:10362000210067082000D30002304F239A319518FB
:10363000172B210064082000D30003304F239A3158
:103640009518202B8B130130B3239A319518262B14
:103650008B130130E5239A3195182C2B8B136400C2
:1036600001006400312B0230CF000430D001D101C1
:10367000D200D301D30AD401D501D601D7016908FC
:10368000D800A130D901DA012000FE239A31CF30D1
:10369000D7000C30D800210064086C2B0800D4003F
:1036A00023009518502B200054082300910092010C
:1036B00020005308230093003F30950503108B1B17
:1036C00003148B13151555309600AA3096009514E7
:1036D000151103188B1708002000DA0020003D0B9D
:1036E000732B64006E2BBE010130BD005A08BC0074
:1036F0005808093EBF0053082200BF0020005808A8
:10370000033E2200C00021006B082200C1002100FE
:103710006A082200C200200027082200C300C4015A
:10372000200054082200C500200055082200C600D1
:10373000200056082200C7002000DB0158085B0269
:103740000318B02B5B08483E8600013087005B08F9
:103750005707D9008400850100088100DB0A9E2BF1
:103760000130BE0008002000D700B830D300D401DB
:10377000CB239A3120005708B830D3003F30D40013
:103780000319C72B3330D50000309F31752F00301F
:10379000D5019F31752F5308230091002000540854
:1037A0002300920015139517151615159F319C27A8
:1037B0009A312300151164002300151ADC2B6400D4
:1037C000230095139518E22B08002000D700D03075
:1037D000D300D401CB239A3120005708D030D30036
:1037E0003F30D4000319F92B2730D50000309F312A
:1037F000752F1130D50000309F31752FD300210077
:1038000065082000D400210066082000D5002100B2
:1038100067082000D6000800230019082000CB000C
:10382000AE08031D03341F2D641C232C03302A0211
:10383000031C222C310B1F2C0030D2259C31432439
:103840009C31232CAA0A0A30B90A3902031C2B2CFA
:10385000B9017F30B80021006C080319412C200009
:10386000A10A0319A20A04302202E330031921023B
:1038700003183C2C2100412C21000030EC01DE25F6
:1038800001000B1108002000B6014F249F31A6272C
:103890009C319E31DF26B501AA01641008002B304F
:1038A000C901B2000530AB00FF30C801B10008000B
:1038B0006400B02C9F31A6279C3123009D139D17D7
:1038C00020003408C200F5010630C20A4202031883
:1038D000C2014208E0249C3120008D1A742CDC24A3
:1038E0009C31BF249C31792C0530F50A7502031CEC
:1038F000642C01302000B5009A019B00BC2C4308C9
:10390000E0249C3120008D1A8A2CDC249C31BF24B9
:103910009C31BC2C21008D1220008D120230B5008C
:103920009C141C144508223E9B00FF249C31C400BB
:103930000C30F0004408C4249C31C5000630F0006F
:103940004408C4249C31C300BC2C21008D16CC2516
:103950009C3120001C149C105F309B00B501BC2CD6
:1039600020003508003A03195A2C013A03197F2C1C
:10397000033A0319A52CBC2C20009110080020004C
:103980001C11210091100800F2000830F300F4012E
:103990007208F1000730F136890BCB2C74357104B5
:1039A000F400F23570087402031CD82C7008F4027D
:1039B000F30BC82C740808008B152700111508009C
:1039C000F100B400711CE72C22000E17E92C220034
:1039D0000E137108F000F036701CF12C22008E17C7
:1039E000F32C22008E137108F000F036F036701CB4
:1039F000FC2C22000E16080022000E1208003708C8
:103A0000F0000430F036890B022D3708F100F13652
:103A1000F136F1363708F200F236F23672087106E6
:103A200070063706F3000130F3057308F000073025
:103A3000F035890B182D37367004B7000800973120
:103A40009F279C3120002E080319672D4808FA0093
:103A50008B30FB01FC002330FD007A087C078600D8
:103A60007B087D3D87000108CD00C803AD014830CB
:103A7000F00000309731B2279C319825AD004B30D3
:103A8000F00000309731B2279C3198259C31AD0071
:103A90008C30F0002330F1004808F200F3012D08CB
:103AA00098259C31AD004D082D060319672D003077
:103AB000973196279C31CC259C312000C801AC0A57
:103AC00006302C02031C01340030D2250A344B0886
:103AD0000319892D2E08BB0034082100EE000130A7
:103AE000EF002000CE012E084E020318862D4E084E
:103AF000203E8600013087004E088C3E8400233033
:103B00008501853D00088100CE0A732D0130BA0081
:103B10008B2D0030D2250130973196279C31CC2552
:103B20009C31200032082A3A031D0A34AC010534C6
:103B3000F9007108F6007008F5000130F20200305B
:103B4000F33B720A0319730A0319CA2D750886001C
:103B5000760887000108F4000430F436890BAD2D97
:103B6000790E0F397406FE2598310A009D31F8252B
:103B70009C317508860076088700790E0F3901069A
:103B8000FE2598310A009D31F8259C31F50A03196C
:103B9000F60A9D2D7908080023009E121D162100AB
:103BA00091160800F000F008031DDB2D2100EF0145
:103BB0002000BA010800BD01BE010800F400D030A9
:103BC000F000F1019731B8279C317408D030F00033
:103BD0003F30F1000319F22D2730F2000030973109
:103BE000CF2708001130F20000309731CF270800AE
:103BF000F400790EF0397406F9000800F700F801B6
:103C00000F39013E0800B9279E3120302000D30033
:103C10000030B2269E3113082100EB002130200035
:103C2000D3000030B2269E3113082100EA00223072
:103C30002000D3000030B2269E3113082000A700D8
:103C40002330D3000030B2269E3113082100E90052
:103C50002000270803192F2E2708E100312EE1014B
:103C6000E10AE2016108B700123021009700AB279A
:103C70009E31E30063080319412E6400E6279E315C
:103C8000640064000230EF2601309B31E5239E3151
:103C9000200063080319632E0030C9269E312000DE
:103CA000DC000130C9269E312000DD000230C9262B
:103CB0009E312000DE000330C9262000DF000030E6
:103CC0009B31B3239E316400703021009900313064
:103CD00098009631E3269E316400B9279E31230077
:103CE0009D171E159F1507309B009C011E12640036
:103CF000A6279E316400EC269E31640064001B30D0
:103D000021009700DF269E310B178B1795012100AC
:103D1000951295111515951415148B1622000E1475
:103D2000200063080319A82E64002000AA30E001D7
:103D3000D3005C08D4005D08D5005E08D600603072
:103D4000D700D801D80A5F089B316C239E316400EC
:103D500020003A080319AF2E9A3136229E316400B2
:103D60002000A82ED40053082300910020005408FE
:103D70002300920015139517151400000000000091
:103D80000000640023001518C22E64002300951360
:103D90000800D300CC2E2000640023009518CB2E01
:103DA000200053082300910092013F30950515141F
:103DB0000310151803140030093D130808002000F3
:103DC0009A01FA309B001C152100911420009C14CC
:103DD0001C1437309B00080023009E1208002000AE
:103DE000D8008B13D301D4019B31CB239E316400C7
:103DF000003002279E3164002000580830278B13C2
:103E0000640008002000D7008B13003A03190C2F20
:103E1000013A03191D2F2F2F1130D301D8279E31BE
:103E200075279E3120001230D2279E3175279E3192
:103E3000DC279E310030D501752F1530D301D827EE
:103E40009E3175279E3120001630D2279E3175276E
:103E50009E31DC279E31B030D5000030752F080030
:103E6000D7008B13003A03193C2F013A03194B2F4B
:103E7000033A03195F2F742FCB279E3175279E318C
:103E8000C3279E3175279E3106302000D30029308C
:103E9000E2279E31752F0430D3001530D8279E318C
:103EA00075279E31C3279E3175279E31063020002D
:103EB000D3002A30D400DC30D5000030752FCB275A
:103EC0009E3175279E3105302000D3001630D40076
:103ED0000A30D500003075279E3106302000D3000F
:103EE0002E30E2279E31752F0800D600230095174B
:103EF000151515121513951620005308230091006F
:103F0000200056082300920020005508230093004B
:103F100020005408230094009C279E312300951212
:103F20009C279E3123001511640023009518952FBE
:103F3000640023009513080055309600AA309600BF
:103F400095140000000000000000080023001D126E
:103F5000210091120800B8302000D3000030B226B2
:103F6000140813082000D500333A0030031901303B
:103F700008002500930128001E1120008E118E12CA
:103F800025009101080005302000D3001230D40034
:103F90000A30D50000340430D3001130D4008A3008
:103FA000D5000034D301D30AD4000A30D500003440
:103FB000D4008A30D500003402302000D3002930EC
:103FC000D4000800D4000430D500003420000130B3
:103FD000D501D600640020005608D4005508D3004F
:103FE0009B31CB239E3120302000D5070318D60A01
:103FF00015305602D1300319550203180800EA2F74
:020000040001F9
:02000E00CCCF55
:00000001FF
