:101370008B310D2BFF3FFF3F7E1489312000911EE2
:10138000F32922004108031DC72920001C11210058
:101390009110003023001D1901302000B6003603E3
:1013A0000319D52923009D1CDA29230019082000E0
:1013B000B300E329210091102200C10A8F31EA27EE
:1013C00089312200B8000630220038060319EB29C3
:1013D0002000360BEF299C316E248931F32922003D
:1013E000B601200058142700131D092A8B11111172
:1013F00021000C0804388C002A302200BC009E31E9
:101400000D2689312200B800B601200058142700AB
:10141000131120009118A02AAE2A23001D122100CA
:10142000911223009D139D1722003F08A600200063
:10143000B5011B2AB50A4B08FF3EB100FF30031867
:101440000030B200803A803C031D282A3108350262
:101450000318472A2200A60A20004B082200260271
:101460000318A6012608CA3E86000130870001083D
:101470009C31092489312608BF0020008D1A1A2AC0
:101480008B152700111520001C112100911001302F
:101490002200B40020009A019B00AC2A4008CA3EFA
:1014A00086000130870001089C31092489314008F9
:1014B000BF0020008D1A642A8B152700111520000B
:1014C0001C1121009110AC2A21008D1220008D12D8
:1014D00002302200B40020001C0802389C001C08C6
:1014E00001389C0022002808223E2000B400343637
:1014F0009B009C31292489312200A7000C30F00088
:1015000027089B31F1238931A80020004B08F00007
:10151000220027089B31F1238931C000AC2A210029
:101520000D0820388D009F317A27893120001C0852
:1015300001389C009C102F309B002200B401AC2A83
:1015400022003408003A03190D2A013A03194E2AE1
:10155000033A03198F2AAC2A20009110931CDE2A2B
:101560002300D60A0319D70A22006E0BDC2A2300B7
:1015700055082000B200230054082000B1002300C9
:10158000D40A0319D50A00302000320210300319A2
:101590003102031CDC2A2300D401D50122000730CC
:1015A000C40A44020318D72A01308E06DC2A0E1022
:1015B0000B3044020318EE01200093101118111093
:1015C0000B1D0B2B2200B50A2000581CF82A0330F3
:1015D00022003602031CF82A3D080319F42A4908A0
:1015E0000319F42AC903BD019C316E248931FD2AF7
:1015F0002000581CFD2A2200B60A22004808C80A0A
:101600002000B10009303102031C0A2B2200C8015E
:101610007F30C7000B117E1009009131D3292200C1
:1016200033080319162B2000450808002100A001EB
:10163000A101A301A401240820005302031C6F2B65
:1016400021302100A600D930A50024082000BF00C9
:10165000C001BF35C00DBF35C00DBF35C00D3F083F
:101660002100A507200040082100A63D250886008E
:10167000260887004731010803196D2B25088600CD
:10168000260887004331811F6D2B25088600260818
:101690000F268B31B7000C30B801B900BA01832393
:1016A0008B3137082100A200250886002608870014
:1016B000443101082000B700B801210022082000B1
:1016C000B900BA018D258B3137082100A007200011
:1016D00038082100A13D2208A307A40A1B2B2100E2
:1016E00023080319003423082000B700B8012100A3
:1016F00021082000BA00210020082000B9008F3105
:10170000C52737080800BC01B81F8D2BB709B809D9
:10171000B70A0319B80ABC01BC0ABA1F962BB9094B
:10172000BA09B90A0319BA0A0130BC06BD01BE01E3
:10173000370838040319B62BBB01BB0AB81BA32B0F
:10174000B735B80D9D2BBD35BE0D38083A02031DC7
:10175000AB2B37083902031CB22B3708B902380803
:10176000BA3B3D14B836B70CBB0BA32B3C0803198E
:10177000BE2BBD09BE09BD0A0319BE0A3E08B8004A
:101780003D08B7000800A83021006406031D412C65
:1017900062089631EA268B312300C0004008031D01
:1017A00008008B112700111121000C0804388C004F
:1017B000200095018B121C11210091102800950129
:1017C0001711210093100B138B1323009D139D17EA
:1017D0009E121D12210091121230970025009301D4
:1017E00020000E0808388E000E0820388E00FF30CA
:1017F0002500910021009D01270013112000931066
:10180000911093110B138B1323009D138B13210045
:1018100063082000B7000030E0248B3195180E2CAF
:1018200020005008B7000130E0248B319518162CA9
:1018300020004F08B7000230E0248B3195181E2C91
:1018400020004C08B7000330E0248B319518262C7B
:101850008B1316302200C50001309331CB238B311E
:101860009518302C8B1316302200C50003309431AC
:1018700036248B3195183A2C8B13640001006400D8
:101880003F2CA0306406031D732C22002D0823007A
:10189000B30022002E082300B40022002F082300EA
:1018A000B50022002A082300B60022002B082300DE
:1018B000B70022002C082300B8000430B900033020
:1018C000BA00BB01220029082300BC00BD01BD0AEB
:1018D000BE01EA258B31B330C1000130C2000C30AB
:1018E000C300A1300A2DA2306406031D08002300A6
:1018F000BF01C101410820005302031CD32C230067
:1019000041082100CB00D930CC01CB35CC0DCB35F3
:10191000CC0DCB35CC0DCD002130CE004B084D0782
:1019200086004C084E3D8700C2308400013085009F
:101930000830CF0016001A00CF0B9A2C230049085C
:101940000319D12C45080F39013A031DD12C013060
:101950002100CB002300450E0739890A2100B12C54
:10196000CB35890BB02C4B082300BF0402268B31EA
:10197000FD248B31013E09268B314208810002266D
:101980008B31FD248B31023E09268B3143088100C7
:1019900002268B31FD248B31033E09268B3144080E
:1019A0008100C10A7A2C23003F08A000EA258B3170
:1019B000A030C1000130C2001330C300A3300A2D93
:1019C000B80023009518E12C20003808230091006E
:1019D000920120003708230093003F309505031043
:1019E0008B1B03148B13151555309600AA309600E7
:1019F0009514151103188B1708002000B900B801C1
:101A000037083918B807B735B9363908031D002D1E
:101A100038080800C6003F082000B7002100400831
:101A20002000B80021003E0897313A278B31210071
:101A3000C700470A0319FE344708A22538082100C9
:101A4000C500200037082100C400CA012230C900A7
:101A50007930C8004A089D31B5258B318D258B31F1
:101A600037082100C807200038082100C93D49086F
:101A70002000B800210048082000B70021004608D7
:101A80002000B90021003E082000BA0021003F08D4
:101A90002000BB00210040082000BC00BA258B318B
:101AA000003A031D642D210048088600490887007C
:101AB00042310108031D872D480886004908870028
:101AC00043310108031D872D210044088600450885
:101AD00087004331010E0739A0004608A1003A08EB
:101AE000A2003B08A3003C08A4003D08A5003E0856
:101AF000A6003F08A7004008A8004208AA00410825
:101B0000A9004308AB004A089D3100250034053088
:101B1000CA0A4A020318FF34262DBB01BC01371C38
:101B2000952D3908BB073A08BC3DB935BA0DB83612
:101B3000B70C37083804031D8F2D3C08B8003B084C
:101B4000B70008002000BA002130BC00D930BB002B
:101B50003A08B800B901B835B90DB835B90DB8357E
:101B6000B90D3808BB073908BC3D3C08B8003B0834
:101B7000B7000800A0303902031800343708860087
:101B8000380887004231010B0034370886003808D6
:101B90008700443101083906031D003437088600E8
:101BA000380887004A3101083A06031D0034370817
:101BB0008600380887004B3101083B06031D0034BE
:101BC00037088600380887004C3101083C060319A5
:101BD00001340034200044082100BA0020004308EA
:101BE0002100BB00200042082100BC00BD016308A9
:101BF000BE00200050082100BF0020004F08210037
:101C0000C000080003302000B7002300450E07394C
:101C10000800A03E860001308700230008008700EE
:101C2000433101080F3920000800BC0034082000AF
:101C3000B700210035082000B80021003C0897318A
:101C40003A278E312100BB003B0F362E3408A90005
:101C50003508AA003608AB003708AC003808AD00DC
:101C60003908AE003A08AF003C08582E3C08200066
:101C7000B700210034082000B800210035082000FA
:101C8000B900210036082000BA00210037082000E2
:101C9000BB00210038082000BC00210039082000CA
:101CA000BD0021003A082000BE0021003B08212F82
:101CB000B000F6268E31B100310F5F2EFF34213097
:101CC000B300D930B20031082000BC00BD01BC35E2
:101CD000BD0DBC35BD0DBC35BD0D3C082100B207A6
:101CE00020003D082100B33D3208860033088700FC
:101CF000300881003208013E2000BC000030A427DB
:101D00008E31290881003208023E2000BC000030DC
:101D1000A4278E312A088100BF278E3101082B06A7
:101D2000F0392B0681002C082000BC002100BF27C1
:101D30008E312000BC0E01083C068F393C06810024
:101D400021003208043E2000BC000030A4278E3160
:101D50002D088100BF278E312E0C031C8113031820
:101D600081173208063E2000BC0000302100333DC0
:101D70002000BD003C0886003D0887007F308100C0
:101D80005408093EBC0021003208073E2000BD0077
:101D900000302100333D2000BE003D0886003E0893
:101DA00087003C08810021003208053E2000BC006D
:101DB0000030A4278E312F0881002000D40A04307F
:101DC00021002F06031DE92E2B0BE92E01302200E6
:101DD000C60021003108200053020318F32E210011
:101DE00031082000D300210031080800A00120089C
:101DF0002000B700D930B801B735B80DB735B80DE8
:101E0000B735B80DB9002130BA0037083907860058
:101E100038083A3D8700A130840000308500083042
:101E2000BB0016001A00BB0B112F21002808031D50
:101E30001B2F200808001430A00A20020318FF34CA
:101E4000F72EA0002130A200D930A10020082000E8
:101E5000BF00C001BF35C00DBF35C00DBF35C00DBF
:101E60003F082100A107200040082100A23D2108D1
:101E7000860022088E310F268E31BF003A083F02BD
:101E8000031C9B2FB8278E31010820003A06F03939
:101E90003A0681003B08BF00B8278E312000BF0EF4
:101EA00001083F068F393F06810021002108043ECA
:101EB0002000BF00AE278E313C08810021002108A0
:101EC000053E2000BF00AE278E313E088100210074
:101ED0002108063E2000BF00AE278E317F308100F2
:101EE0005408093EBF00003003180130C000210033
:101EF0002108860022088700473120004008803AE8
:101F0000803C031D852F3F08010203189B2F2000F2
:101F10005408093EBF0021002108073E2000C000F0
:101F200000302100223D2000C10040088600410809
:101F300087003F08810020003D080319A12FB82722
:101F400081172100200808002100333D2000BD003A
:101F50003C0886003D088700210008000030210071
:101F6000223D2000C0003F0886004008870008008E
:101F7000210021088600220887004331080032082A
:101F800086003308870043310800BC01BD013708D3
:101F900038040319E52FBB01BB0AB81BD22FB73594
:101FA000B80DCC2FBC35BD0D38083A02031DDA2F11
:101FB00037083902031CE12F3708B9023808BA3B49
:101FC0003C14B836B70CBB0BD22F3D08B8003C0808
:101FD000B700080038082000AF001030B001AF355E
:101FE000B00D2F0784009830303D8500013F8A00F6
:101FF000003F0A008F310800FF3FFF3FFF3FFF3FD8
:10200000FF3F6400013080010131FE020030FF3BE0
:102010007F087E040319003402282000C001400814
:102020005302031C08002130BF00D930BE00400815
:10203000BC00BD01BC35BD0DBC35BD0DBC35BD0DF5
:102040003C08BE073D08BF3D5720903101080319E9
:10205000302857209031810B3028400832209031B1
:10206000C00A0F28BB0014303B02031808002130BF
:10207000BA00D930B9003B08B700B801B735B80D80
:10208000B735B80DB735B80D3708B9073808BA3DB8
:10209000D403390886003A08870047318101530884
:1020A0003B06031D08003B08031DD30308003E0840
:1020B00086003F08870047310800230019082200E6
:1020C000BA003A08031966281F30BA006728FF30A3
:1020D000BE002000A80122004308013ECA000530CE
:1020E0004A020318CA014A08C30022302000AC008B
:1020F0007930AB0022004A089F31D72790319F31B9
:102100009D27903170082000AB077108AC3D22007C
:10211000CD0120002B0886002C08870041310108E2
:102120004906031DD1282B0886002C088700423160
:10213000010BD128C421903122003A02031CD1287E
:102140002000C42190314802031CD128A901C421D8
:10215000903129020318CA282908A100A2012B07DF
:10216000A30022082C3DA400230886002408870031
:1021700044310108A50056088C3EA6002330A70173
:10218000A73D260886002708870025088100D60A73
:10219000A90AA728C42190312200CD004A08BE0018
:1021A000D72820000530A80A2802031C6B2801301C
:1021B0002000A100490ADD28A135890BDC2821086F
:1021C00022004705031925292000CA219031A300C8
:1021D00080302302031DEE28480821020318252918
:1021E00001302000A100490AF628A135890BF52805
:1021F0002108FF3A2200C7052000AB2190310130B1
:102200008100D60AAB21903102308100D60AAB2181
:10221000903144088100D60AAB21903143088100F7
:10222000D60AAB2142088100D60A56089F31EE2714
:1022300090318101D60AAB21903145088100D60A40
:10224000AB21903156308100D60A2000AA012A081D
:102250005302031C96292130AE00D930AD002A0864
:10226000A100A201A135A20DA135A20DA135A20D9B
:102270002108AD072208AE3D2D0886002E088700F4
:102280004731010803199429B6219031010503193A
:102290009429CA219031803C031D5029210848020D
:1022A000031C96292000B6219031FF3A8105AB210D
:1022B000903101308100D60AAB219031023081008B
:1022C000D60A2D0886002E08870001089821903133
:1022D0004131010898219031423101089821903113
:1022E000433101080F399821903144310108982178
:1022F000903145310108A100A1352D0886002E0836
:1023000087004331010D010D01392107A200560854
:102310008C3EA3002330A401A43D2308860024089A
:10232000870022088100D60AAA0A27299E31572E43
:10233000A10056088C3EA2002330A301A33D220831
:1023400086002308870021088100D60A2D08860010
:102350002E088700080056088C3EA1002330A201F9
:10236000A23D210886002208870008002D0886006B
:102370002E08870001304631A100490AC029A13545
:10238000890BBF29210808002B0886002C0887002C
:10239000010808005608083EA1000030031801306B
:1023A000A200803A0800D93084002130850017301F
:1023B000FE000230FF009031012091314230D801FF
:1023C0008400003085001630FE00FF0190310120AE
:1023D000913121002030E201E301E4018400013069
:1023E00085002E30FE00FF01903101209131CA306E
:1023F0008400013085001530FE00FF01903101207E
:10240000913122000130EE007E102000072A233097
:102410002300DE002830DD007830210099002C30C8
:1024200098009223913120302000B7000030E22242
:10243000913113082000C4002130B7000030E2229F
:10244000913113082000C3002230B7000030E2228F
:10245000913113082000C2002330B7000030E2227F
:10246000913113082200A9002000420803193C2AD8
:1024700042082100E0003F2A2100E001E00AE101DA
:1024800060082000CA007030B7000030E2229131AD
:1024900013082200AD0071302000B7000030E222A6
:1024A000913113082200AE0072302000B7000030D6
:1024B000E222913113082200AF0073302000B700F0
:1024C0000030E222913113082200AA00743020006B
:1024D000B7000030E222913113082200AB007530C2
:1024E0002000B7000030E222913113082200AC0036
:1024F000123021009700152391312200C200AF2332
:10250000913100307D23913123001D122100911261
:1025100023009E12D830012391317130B70014305E
:10252000B800D830B82391312000C330B701B801CA
:10253000B9000B30BA0023239131382391312200A6
:1025400042080319AF2A1630C5000030CB23913161
:1025500016302200C500003036249131010064009D
:102560001B3021009700F92291310B178B178B1725
:1025700020001C0802389C001C0801389C001B30FD
:102580009B00280095019714171417179716171614
:1025900097152630960017152100931420009501F9
:1025A0002100951295111515951415108B16CA2337
:1025B00091312200EE01EE0A4D2491318F239131A9
:1025C0006400DC2AB8003708230091002000380896
:1025D0002300920015139517151400000000000049
:1025E0000000640023001518F22A640023009513EC
:1025F000F72F20009A0178309B001C1521009114C0
:1026000008002000B7008600013087008101370AEA
:10261000860081013708023E86006330810037085A
:10262000033E8600013081010800B8302000B70069
:102630000030E2229131140813082000B900333A27
:102640000319013400342A2791313A082300D100BC
:10265000200039082300D000200038082300D300D0
:10266000200037082300D200EC27FF30BB00080011
:10267000652391310630B70022003008472391319D
:10268000FB27913147239131F2279131472B2000CD
:10269000B90024001614E0279131031D4B2BC030E4
:1026A00024009100E0279131031D522B37082400AC
:1026B0009100E0279131031D592B39082400910026
:1026C000E027913103190800602B21000D08103814
:1026D0008D000D0840388D009211193024009200B1
:1026E00095169515151195101510FF3093001417B8
:1026F000941720009111921108002000B700862B3A
:1027000022000E10080022000E1408003708003ABC
:102710000319802B013A0319832B8E2B0800D22733
:102720009131CF2FFF308C008D0006308E00293084
:102730009D009E131E179E161E129E101E10230033
:102740008E1120008E118E1223008D120C110E138B
:102750008E130E1022000E138E130E12080023008B
:102760009D171E159F1503309B009C011E1208002B
:10277000B900D1012100E4012000CE013908210077
:10278000E200200038082200A100200037082200C3
:10279000A000080008002000BB00B830B700B80156
:1027A000E123913120003B08B830B7003F30B8003A
:1027B0000319DE2B3330B90000300F2C0030B90183
:1027C0000F2C163022004506031D08002000370894
:1027D000230091002000380823009200151395175C
:1027E00015161515052491312300151164002300D9
:1027F000151AF72B640023009518FB2B95139201F3
:10280000403091002200C501080055309600AA30E2
:102810009600951400000000000000000800BA00B7
:102820002300951715151512151395162000370856
:102830002300910020003A0823009200200039086C
:1028400023009300200038082300940005249131D0
:1028500023009512052491312300151164002300F3
:1028600095182F2C640023009513F72F2000BB0030
:10287000D030B700B801E123913120003B08D030BF
:10288000B7003F30B8000319492C3B08B9000030AD
:102890000F2C1130B90000300F2C6400F12591315C
:1028A0006400083022003502031C5B2C90310D209F
:1028B00091312200B501612491316400D727640071
:1028C00008006E08031D08000B303702031C0800C7
:1028D0000D303702031C6F2C0E10B70108000E14C8
:1028E000080064002100630820004406031D8E2CAC
:1028F00050084306031D8E2C4F084206031D8E2CE4
:102900002100DB0120004E0821005B0203180800B3
:102910006208EA2691312100DB0A822C7030210006
:1029200064020318F12C640BF22C153020004D02C8
:102930000318080002304E06031D0800210062083B
:10294000EA2691312100D9006208EA262100DF0041
:1029500020004C082100DD00DF30860000308700B9
:102960000108DC000130DC055F36DA002000500889
:102970002100B40020004F082100B50020004D08C0
:10298000013E2100B6005D08B7005908B8005C0898
:10299000B9005A08BA0063088E3115269131DE005D
:1029A0005E0FD32CF22C5E08D400DF30D501D43575
:1029B000D50DD435D50DD435D50DD6002130D70061
:1029C0005408560786005508573D87000130D80047
:1029D0005D0AEB2CD835890BEA2C5808FF3A8105A3
:1029E000F22CF5242200B70A08006208EA26913189
:1029F0002200EB0021006208EA2691312200EC005F
:102A000021006208EA2691312200ED0020004E08E4
:102A1000FD3E2200E40020005008BE004F08BF0029
:102A2000210063087A27913122006D0820004206B8
:102A3000031D4F2D22006C0820004306031D4F2D5F
:102A400022006B0820004406031D4F2D2200490878
:102A50000319492DC903492D6208EA269131220044
:102A6000E50021006208EA2691312200B300330814
:102A70000319080065082000C5000800230050085D
:102A800051040319080051088A0050080A009531C2
:102A9000080021006408703A03192C2D3E2D2200F5
:102AA0006C082000B70022006D082000B80022004A
:102AB0006B083A2791312200E900690A0319EC2DCD
:102AC00069088D31A225913138082200E8002000E4
:102AD00037082200E700A83021006406031DAB2D53
:102AE00022006708073E2100D00000302200683D28
:102AF0002100D1005008860051088700FF30810076
:102B000062088600013087000108D000D101620808
:102B1000053E8600403FD200413FD3005008520797
:102B200086005108533D87000108031DA92D200090
:102B30004C082300CA002200670886006808870046
:102B40004331010E07392300CB0002302000CB00B7
:102B5000AB2D2A2791312200EA01E60164086602C2
:102B60000318C52D21006208EA2691312100D0000A
:102B700022006A084E3E860001308700210050087E
:102B800081002200EA0AE60AAE2D21006308BA009D
:102B9000200050082100BB0020004F082100BC008D
:102BA00020004D08013E2100BD0022006B082100DD
:102BB000BE0022006C082100BF0022006D08210029
:102BC000C0004E30C1000130C20022006A0821005E
:102BD000C30064088D310A2522004908031DC9037A
:102BE0000800AF2E21006208EA269131CC000130A6
:102BF000D10006304C02031C012EFF2D012E1F2791
:102C00009131AF2E21006208EA269131D2000230C4
:102C1000D10005305202031C162E0F2E162E520A1A
:102C20000319162E142E162E1F279131AF2E2100B8
:102C30006208EA2691312100E40003302000D1002F
:102C4000AF2E21006208EA269131CE000630D10075
:102C50001F304E02031C302E2E2E302E1F27913196
:102C6000AF2E21006208EA2691312100E3006208BC
:102C7000EA269131D00021006208EA269131CF0086
:102C80000430D100AF2E07302000D10021006208AF
:102C9000EA269131CD00AF2E05302000D100210071
:102CA0006208043E8600013087008101220020086E
:102CB00021040319672E5D2E672E21088A00200843
:102CC0000A009631672E21006208EA269131210020
:102CD0006208043E86000130870020004E08010291
:102CE000031C632E742E632EAF2E08302000D100FB
:102CF0002100620886000130870001082000BD0025
:102D0000BE0121006208053E8600403F2000BF0052
:102D1000413FC0003D083F0786003E08403D870018
:102D20000108C100410F9D2E962E9D2E21006208A4
:102D3000EA2691311F279131A12E1F2791310230B0
:102D4000D100AF2E1F279131AF2E510884000830DB
:102D500004020318A22E983104351E3E8200210081
:102D60006208860001308700433F2000B700510809
:102D7000B800063038020318C72EBF2EC72E3708FA
:102D8000031DC32EC52E0130E62E0030E62E063080
:102D90003806031DD62ECD2ED62E0330370203184B
:102DA000D22ED42E0130E62E0030E62E0730380623
:102DB000031DE52EDC2EE52E4E0837020318E12E0A
:102DC000E32E0130E62E0030E62E0130003A0319E2
:102DD0000800A52E2000BC008B1386000130870060
:102DE0000108B700B8013C08053E8600403FB90025
:102DF000413FBA0037083907860038083A3D870056
:102E00000108BB003C08860001308700810A3C08AD
:102E1000023E86003C089F31F42791313C0803189C
:102E2000132F86008101033E860001308700810355
:102E30003C08043E8600810A8B173B0808002000EE
:102E4000D1012100E401E3012000D001CF01CE0136
:102E5000CD0108002300CA010130CB000230CC00B4
:102E60000330CD000430CE000530CF000630200006
:102E7000CB0008002100A000A1012108200053027E
:102E8000031CFF34210021082000B900D930BA0109
:102E9000B935BA0DB935BA0DB935BA0DBB00213007
:102EA000BC0039083B0786003A083C3D8700A23049
:102EB0008400003085000830BD0016001A00BD0BEC
:102EC0005D2F210022082006031D772F23082000F4
:102ED0003706031D772F2100240820003806031D24
:102EE000772F210029080319772F210808002100D6
:102EF000A10A3D2F2000C0003E08B7003F08B800DF
:102F000040083A2791312000C100410A0319080006
:102F10005408093E2100AA00003003180130AB001C
:102F2000200041082100AC00E030AD01AC35AD0D12
:102F3000AC35AD0DAC35AD0DAE002130AF002C0879
:102F40002E0786002D082F3D87002B08803A803CF5
:102F5000031DAC2F2A0801020318080020005408A2
:102F6000093E2100AA00200041082100AB00E0300A
:102F7000AC01AB35AC0DAB35AC0DAB35AC0DAD002C
:102F80002130AE002B082D07AF002C082E3DB000DD
:102F90002F088600300887002A08810008004508AD
:102FA0009C31922C8B310F232000C500080020009B
:102FB000D81C08002300D601D7012000D810080033
:102FC0002400140C890C01392000B80024001608D4
:102FD0001F392000380408002B302200BC000330C9
:102FE000B80008000830B70022003208080092013B
:102FF0004030910008000730B70022003108080077
:10300000003407340E3409341C341B3412341534A4
:1030100038343F3436343134243423342A342D3494
:103020004A341C34BC341D34D4341D34E6341B34CF
:103030005D341034F0341D34003400349531F22DF9
:103040009631022E9631172E9631212E9631432E2F
:103050009631752E9631312E96314C2EFF3FFF3F23
:1037C000FF3FFF3FFF3FFF3FFF3FFF3F2300190841
:1037D0002000C80065304802031C04346430C8006F
:1037E0000434F2000830F300F4017208F1000730ED
:1037F000F136890BF82B74357104F400F23570083A
:103800007402031C052C7008F402F30BF52B7408EA
:103810000800F1002000C900711C112C22000E17B5
:10382000132C22000E137108F000F036701C1B2CB4
:1038300022008E171D2C22008E137108F000F03626
:10384000F036701C262C22000E16080022000E12E4
:1038500008004A08F0000430F036890B2C2C4A0886
:10386000F100F136F136F1364A08F200F236F2365E
:103870007208710670064A06F3000130F3057308FA
:10388000F0000730F035890B422C4A367004CA002C
:103890004A080800230019082000C70023005B081D
:1038A000643C2200CB0004304B0203185A2CF00178
:1038B000F101612C4B08F000FD30F101F007031C11
:1038C000F1037008CB00653020004702031806346E
:1038D000470822004B02031C063401342000581014
:1038E0002200C101862423001D1221009112923171
:1038F000F92220001C0801389C009C102F309B00EE
:103900000C309B002200B401B60108002000D60153
:10391000C701C8019731EC272000D501FF302200F4
:10392000BB000800BA002200B201B10120003A0831
:10393000031D9D2C2200B001EE2C1A303A02031810
:10394000A52C2200B001B00AEE2C33303A02031845
:10395000AB2C0530B62C4D303A020318B12C153083
:10396000B62C66303A020318B92C55302200B0004C
:10397000EE2C80303A020318C32C55302200B000E0
:10398000B101B10AEE2C99303A020318CC2C553013
:103990002200B0000530DC2CB3303A020318D52CDD
:1039A00055302200B0001530DC2CCC303A02031820
:1039B000DE2C55302200B000B100EE2CE6303A0289
:1039C00055300318E92C2200B000B100B201B20A50
:1039D000EE2C2200B000B1000530B200063020000D
:1039E000B70022003008933147239C319731FB27E1
:1039F0009C31933147239C319731F2279331472BE8
:103A0000B30005303302031808002B08093EAC0050
:103A1000003003180130AD002D08803AAE00803030
:103A20002E02031D152D1F302C0203180800223012
:103A30002100B6007930B5003308B5258D318D25CC
:103A40009D3137082100B507200038082100B63D18
:103A50003608B8003508B7000430B7070318B80AAD
:103A60003508860036088700423181013508033E5B
:103A7000AC259D31013081003508013EAC259D31DA
:103A800020088100B901370886003808870021081E
:103A90008100B90A2B08033EAC003908AD00AE0125
:103AA0003707AF002E08383DB0002F0886003008D9
:103AB00087002C089D259D3122089D259D312308D6
:103AC0009D259D3124089D259D3125089D259D31ED
:103AD00026089D259D3127089D259D3128088100B8
:103AE000B90AB4012B0834020318912D3408AC0034
:103AF000AD01290786002D082A3D87000108AE0088
:103B00003908AF00B0013707B1003008383DB200C6
:103B100031088600320887002E088100B90AB40AED
:103B2000722D35088600360887003908810035086F
:103B3000023EAC250130810008008100B90A390835
:103B4000AC00AD013707AE002D08383DAF002E08A0
:103B500086002F0887000800AC000030363DAD001D
:103B60002C0886002D08870008002000B7002330AD
:103B7000B801B900BA010800230019082000D700D5
:103B80004708031DC42DA82E5708031902341F30FF
:103B900057020318063457084702031C0634220054
:103BA000C90A0130BD00023455088C3EA400233000
:103BB000A501A53D240886002508870023001908D3
:103BC00081002000D50A4708013EA40000300318F8
:103BD0000130A500550824062504031D0234A82E33
:103BE000230019082000A100210B062E22003E0A06
:103BF0000319FD2D3E0880279D312000D6012A3073
:103C000022003C0603190634B9010D2E2200B90A20
:103C10000630390203180634572ED0279D315B0831
:103C2000643C2200CC0004304C0203181A2EF80128
:103C3000F901212E4C08F800FD30F901F807031CAA
:103C4000F9037808CC004C089E269D31FF30FA011C
:103C50002200BB001F304C02031C482EFB017B08D6
:103C6000D7279D319D279D317B30DD279D31031D59
:103C7000432E7B08D7279D319D279D317C30DD2742
:103C80009D310319FA0A0530FB0A7B02031C2F2E13
:103C90002200BD017A0849020318512E4908FA0290
:103CA000522EFA017A089E269D317A270034200090
:103CB000C601D0279D31200056089E269D31200048
:103CC00056080319732E5630F0000030E8279D3156
:103CD0004E279D31C6004D30F0000130E8279D3160
:103CE0004E279D31C60022004D089E269D312000A2
:103CF000A001560820020318942E20088C3EFC00D8
:103D00002330FD01FD3D7C08F0007D08E8279D3152
:103D10004E279D31C6002008EE279D3101089E26C2
:103D20009D312000A00A792E560803199C2E4608C2
:103D3000C60046089E269D317A270534F0002000F3
:103D4000111E9F2E700823009A009E180800A52EB1
:103D5000D0279D31200047080319132F5508A000D4
:103D60008B30A101A2002330A30020082207860087
:103D70002108233D87000108FC00D503C60155300A
:103D8000F0000030E8279D314E279D31C6005730A6
:103D9000F0000030E8279D314E279D31C6008C3061
:103DA000F0002330F1005508F200F30146084E27D9
:103DB0009D31C6004608C600D0279D317C082000F2
:103DC00046060319F32E00309E269D317A279D3139
:103DD0002000D5012200B90A06303902031C003444
:103DE0003D08C90206344908F000D8301F279D312C
:103DF00022003B08F000D8301F279D31FD01200034
:103E000047087D0203180E2F7D08EE279D3101081B
:103E1000F000D8301F279D31FD0AFF2EFF30F00043
:103E2000D8301F279D3101309E269D317A279D3144
:103E30002A3022003C06031D0634B9010334F70082
:103E4000770A8600013087000108F100F201770847
:103E5000053E8600403FF300413FF40071087307C0
:103E6000F5007208743DF600750886007608870034
:103E700070088100770AFA279D31023E8600770A92
:103E8000F4279D310318472F770A860081017708B0
:103E9000033EFA27033E860001080800FB00710874
:103EA000F8007008F7000130F2020030F33B720FA7
:103EB0005C2F730A0319782F77088600780887002B
:103EC0000108F4000430F436890B632F7B0E0F39A0
:103ED0007406B2279D3177088600780887007B0E2C
:103EE0000F390106B2279D31F70A0319F80A532F3B
:103EF0007B08080023009E121D1621009116080061
:103F0000F80005307802031808007808D7279D319B
:103F10009D279D317B30C5279D317808D7279D315E
:103F20009D279D317C30C5279D317808D7279D314D
:103F30009D279D317930C5270800F401F501701CDB
:103F4000A52F7208F4077308F53DF235F30DF1362D
:103F5000F00C70087104031D9F2F7508F1007408A0
:103F6000F0000800F9000F30FA017905F400003084
:103F7000F501740784009830753D85000008F6004F
:103F80007B0EF0397606FB000800F6002230F700C1
:103F90007008760786007108773D87008101080068
:103FA00023001D122100911223009E160800F0002C
:103FB0002330F101F200F3010800F6002230F7008F
:103FC0007008760786007108773D870001080800B1
:103FD000F100F201F20AF301460808008C3E860067
:103FE00023308701873D08008400013085000008E8
:103FF00001020800860001308700810A7708080066
:020000040001F9
:04000E00CCCFFFFF55
:00000001FF
