:101370008B31112BFF3FFF3F7E1489312000911EDE
:10138000F32922004208031DC72920001C11210057
:101390009110003023001D1901302000B6003603E3
:1013A0000319D52923009D1CDA29230019082000E0
:1013B000B300E329210091102200C20A90310720D6
:1013C00089312200BA00063022003A060319EB29BF
:1013D0002000360BEF298F31C1278931F3292200F4
:1013E000B801200058142700131D092A8B11111170
:1013F00021000C0804388C002A302200BE009E31E7
:101400000D2689312200BA00B801200058142700A7
:10141000131120009118A42AB22A23001D122100C2
:10142000911223009D139D1722004108AA0020005D
:10143000B5011B2AB50A4B08FF3EB100FF30031867
:101440000030B200803A803C031D282A3108350262
:101450000318472A2200AA0A20004B0822002A0269
:101460000318AA012A08CA3E860001308700010835
:101470009D317B2589312A08C10020008D1A1A2A46
:101480008B152700111520001C112100911001302F
:101490002200B60020009A019B00B02A20004908D3
:1014A000CA3E86000130870001089D317B258931C5
:1014B000200049082200C10020008D1A672A8B15E0
:1014C0002700111520001C1121009110B02A2100C5
:1014D0008D1220008D1202302200B60020001C0860
:1014E00002389C001C0801389C0022002C08223E77
:1014F0002000B40034369B009D319B2589312200A9
:10150000AB000C30F0002B088F31E8278931AC009C
:1015100020004B08F00022002B088F31E82789318A
:101520002000C900B02A21000D0820388D009F310D
:101530007A27893120001C0801389C009C102F302C
:101540009B002200B601B02A22003608003A031997
:101550000D2A013A03194E2A033A0319932AB02A95
:1015600020009110931CE22A2300D20A0319D30A07
:1015700022006F0BE02A230051082000B200230054
:1015800050082000B1002300D00A0319D10A00300E
:1015900020003202103003193102031CE02A23001C
:1015A000D001D10122000730C50A45020318DB2A09
:1015B00001308E06E02A0E100B3045020318EF01B1
:1015C00020009310111811100B1D0F2B2200B70AC9
:1015D0002000581CFC2A033022003802031CFC2A7D
:1015E0003F080319F82A4A080319F82ACA03BF0159
:1015F0008F31C1278931012B2000581C012B22007B
:10160000B80A22004908C90A2000B1000730310297
:10161000031C0E2B2200C9017F30C8000B117E1065
:1016200009009131D129A83021006406031D912BB6
:1016300062089631A3268B312300C0004008031DA9
:1016400008008B112700111121000C0804388C00B0
:10165000200095018B121C1121009110280095018A
:101660001711210093100B138B1323009D139D174B
:101670009E121D1221009112123097002500930135
:1016800020000E0808388E000E0820388E00FF302B
:101690002500910021009D012700131120009310C7
:1016A000911093110B138B1323009D138B132100A7
:1016B00063082000B700003031248B3195185E2B71
:1016C00020005008B700013031248B319518662B6B
:1016D00020004F08B700023031248B3195186E2B53
:1016E00020004C08B700033031248B319518762B3D
:1016F0008B1316302200C6000130933186238B31C4
:101700009518802B8B1316302200C60003309331BE
:10171000F1238B3195188A2B8B1364000100640030
:101720008F2BA0306406031DC42B22003108230038
:10173000B300220032082300B40022003308230043
:10174000B50022002E082300B60022002F08230037
:10175000B700220030082300B8000430B90003307D
:10176000BA00BB01BB0A22002D082300BC00BD014A
:10177000BD0ABE0123258B31B330C1000130C20048
:101780000C30C300A1305B2CA2306406031D08009E
:101790002300BF01C101410820005302031C242C77
:1017A000230041082100CB00D930CC01CB35CC0D32
:1017B000CB35CC0DCB35CC0DCD002130CE004B0838
:1017C0004D0786004C084E3D8700C2308400013032
:1017D00085000830CF0016001A00CF0BEB2B23003A
:1017E00049080319222C45080F39013A031D222C00
:1017F00001302100CB002300450E0739890A210062
:10180000022CCB35890B012C4B082300BF043B2550
:101810008B314E248B31013E42258B3142088100B1
:101820003B258B314E248B31023E42258B314308C0
:1018300081003B258B314E248B31033E42258B3179
:1018400044088100C10ACB2B23003F08A0002325B8
:101850008B31A030C1000130C2001330C300A3306F
:101860005B2CB80023009518322C20003808230088
:101870009100920120003708230093003F30950526
:1018800003108B1B03148B13151555309600AA30CB
:1018900096009514151103188B1708002000B90045
:1018A000B80137083918B807B735B9363908031DF4
:1018B000512C38080800C6003F082000B70021005E
:1018C00040082000B80021003E089631F3268B31F5
:1018D0002100C700470A0319FE34470897318827BB
:1018E0008B3138082100C500200037082100C400D2
:1018F000CA012230C9007930C8004A08FD258B3161
:10190000DE248B3137082100C80720003808210069
:10191000C93D49082000B800210048082000B70050
:10192000210046082000B90021003E082000BA002E
:1019300021003F082000BB00210040082000BC001F
:10194000F3248B31003A031DB62C21004808860091
:101950004908870042310108031DD82C4808860039
:101960004908870043310108031DD82C2100440891
:101970008600450887004331010E0739A00046085C
:10198000A1003A08A2003B08A3003C08A4003D08BF
:10199000A5003E08A6003F08A7004008A80042088E
:1019A000AA004108A9004308AB004A0848250034B2
:1019B0000530CA0A4A020318FF34792CBB01BC0166
:1019C000371CE62C3908BB073A08BC3DB935BA0DBF
:1019D000B836B70C37083804031DE02C3C08B800B3
:1019E0003B08B7000800A03039020318003437085C
:1019F0008600380887004231010B00343708860022
:101A000038088700443101083906031D00343708BF
:101A10008600380887004A3101083A06031D003461
:101A200037088600380887004B3101083B06031D44
:101A3000003437088600380887004C3101083C061E
:101A4000031901340034200044082100BA002000AA
:101A500043082100BB00200042082100BC00BD015A
:101A60006308BE00200050082100BF0020004F087E
:101A70002100C000080003302000B7002300450EFD
:101A800007390800A03E86000130870023000800C7
:101A9000B30005303302031808002B08093EAC00E0
:101AA000003003180130AD002D08803AAE008030C0
:101AB0002E02031D5D2D1F302C020318080022305A
:101AC0002100B6007930B5003308FD258B31DE24C6
:101AD0008B3137082100B507200038082100B63DBA
:101AE0003608B8003508B7000430B7070318B80A3D
:101AF0003508860036088700423181013508033EEB
:101B0000F4258B31013081003508013EF4258B31FD
:101B100020088100B90137088600380887002108AD
:101B20008100B90A2B08033EAC003908AD00AE01B4
:101B30003707AF002E08383DB0002F088600300868
:101B400087002C08E5258B312208E5258B312308F9
:101B5000E5258B312408E5258B312508E5258B31DA
:101B60002608E5258B312708E5258B3128088100DB
:101B7000B90AB4012B0834020318D92D3408AC007B
:101B8000AD01290786002D082A3D87000108AE0017
:101B90003908AF00B0013707B1003008383DB20056
:101BA00031088600320887002E088100B90AB40A7D
:101BB000BA2D3508860036088700390881003508B7
:101BC000023EF4250130810008008100B90A39087D
:101BD000AC00AD013707AE002D08383DAF002E0830
:101BE00086002F0887000800AC000030363DAD00AD
:101BF0002C0886002D08870008002000B70023303D
:101C0000B801B900BA010800230019082200BC007D
:101C10003C0803190D2E1F30BC000E2EFF30C000F3
:101C20002000A80122004408013ECB0005304B02F1
:101C30000318CB014B08C40022302000AC007930DF
:101C4000AB0022004B089F31D0278E319F319D275A
:101C50008E3170082000AB077108AC3D2200CE0128
:101C600020002B0886002C08870041310108480617
:101C7000031D782E2B0886002C0887004231010BAB
:101C8000782E62278E3122003C02031C782E200021
:101C900062278E314702031C782EA90162278E31FC
:101CA00029020318712E2908A100A2012B07A30005
:101CB00022082C3DA4002308860024088700443114
:101CC0000108A50056088C3EA6002330A701A73DB9
:101CD000260886002708870025088100D60AA90A59
:101CE0004E2E62278E312200CE004B08C0007E2E81
:101CF00020000530A80A2802031C122E0130200003
:101D0000A100480A842EA135890B832E21082200C8
:101D100048050319CE2E200068278E31A30080309D
:101D20002302031D952E470821020318CE2E0130F1
:101D30002000A100480A9D2EA135890B9C2E210868
:101D4000FF3A2200C805200049278E31013081006A
:101D5000D60A49278E3102308100D60A49278E31B2
:101D600044088100D60A49278E3143088100D60AEB
:101D7000492742088100D60A56089F31EE278E3146
:101D80008101D60A49278E312200340881002000C3
:101D9000D60A49278E312B308100D60A2000AA01AD
:101DA0002A085302031C342F2130AE00D930AD0075
:101DB0002A08A100A201A135A20DA135A20DA135CD
:101DC000A20D2108AD072208AE3D2D0886002E0881
:101DD0008700473101080319322F54278E3101053E
:101DE0000319322F68278E31803C031DF92E2108FC
:101DF0004702031C342F200054278E31FF3A8105FF
:101E000049278E3101308100D60A49278E310230B0
:101E10008100D60A2D0886002E0887000108362783
:101E20008E314131010836278E3142310108362783
:101E30008E31433101080F3936278E314431010884
:101E400036278E3145310135A10056088C3EA2005F
:101E50002330A301A33D2208860023088700210820
:101E60008100D60AAA0AD02E9E31572EA10056080C
:101E70008C3EA2002330A301A33D22088600230844
:101E8000870021088100D60A2D0886002E088700C9
:101E9000080056088C3EA1002330A201A23D210873
:101EA00086002208870008002D0886002E0887007B
:101EB00001304631A100480A5E2FA135890B5D2F04
:101EC000210808002B0886002C088700010808005C
:101ED0005608083EA100003003180130A200803AE5
:101EE00008002000C00140085302031C08002130F4
:101EF000BF00D930BE004008BC00BD01BC35BD0DDF
:101F0000BC35BD0DBC35BD0D3C08BE073D08BF3D11
:101F1000BB278F3101080319942FBB278F31810B09
:101F2000942F400896278F31C00A732FBB001430BE
:101F30003B02031808002130BA00D930B9003B0831
:101F4000B700B801B735B80DB735B80DB735B80D0E
:101F50003708B9073808BA3DD403390886003A086B
:101F600087004731810153083B06031D08003B08E9
:101F7000031DD30308003E0886003F088700473151
:101F80000800200058102200C201D92723001D128A
:101F9000210091129231F72220001C0801389C0088
:101FA0009C102F309B000C309B002200B601B80122
:101FB00008002000D601C601C7012B302200BE0058
:101FC0000330BA002000D501FF302200BD00080018
:101FD000F2000830F300F4017208F1000730F13626
:101FE000890BEF2F74357104F400F2357008740218
:101FF000031CFC2F7008F402F30BEC2F740808008C
:10200000FF3FFF3FFF3FFF3FFF3FFF3FFF3F3A08DC
:102010002000AF001030B001AF35B00D2F078400A5
:102020009830303D8500013F8A00003F0A00903122
:102030000800230019082000C60023005708643C4C
:102040002200CC0004304C0203182928F001F101D1
:1020500030284C08F000FD30F101F007031CF103BB
:102060007008CC006530200046020318063446088C
:1020700022004C02031C0634013421001B082000FE
:10208000B90021001C082000B700370803194A28AE
:10209000FF30B9000430390203185028B8015B281A
:1020A00023303902031858283908090709075A2824
:1020B00039367D3EB80021001D0802389D00200001
:1020C00038080800A0002130A200D930A100200863
:1020D0002000BF00C001BF35C00DBF35C00DBF35EA
:1020E000C00D3F082100A107200040082100A23DAB
:1020F0002108860022088700433101080F3920009B
:10210000BF003A083F02031CDE28F120903101088D
:1021100020003A06F0393A0681003B08BF00F12062
:1021200090312000BF0E01083F068F393F06810025
:1021300021002108043E2000BF00E72090313C0828
:10214000810021002108053E2000BF00E7209031DA
:102150003E08810021002108063E2000BF00E72044
:1021600090317F3081005408093EBF0000300318D1
:102170000130C00021002108860022088700473175
:1021800020004008803A803C031DC8283F08010217
:102190000318DE2820005408093EBF002100210852
:1021A000073E2000C00000302100223D2000C10079
:1021B00040088600410887003F08810020003D0854
:1021C0000319E428F12081172100200808000030BD
:1021D0002100223D2000C0003F0886004008870003
:1021E00008002100210886002208870043310800EA
:1021F000B00096219031B100310FFF28FF3421301B
:10220000B300D930B20031082000BC00BD01BC359C
:10221000BD0DBC35BD0DBC35BD0D3C082100B20760
:1022200020003D082100B33D3208860033088700B6
:10223000300881003208013E2000BC000030C1217E
:102240009031290881003208023E2000BC00003095
:10225000C12190312A088100CB21903101082B0641
:10226000F0392B0681002C082000BC002100CB2176
:1022700090312000BC0E01083C068F393C068100DD
:1022800021003208043E2000BC000030C121903102
:102290002D088100CB2190312E0C031C81130318D3
:1022A00081173208063E2000BC0000302100333D7B
:1022B0002000BD003C0886003D0887007F3081007B
:1022C0005408093EBC0021003208073E2000BD0032
:1022D00000302100333D2000BE003D0886003E084E
:1022E00087003C08810021003208053E2000BC0028
:1022F0000030C12190312F0881002000D40A043021
:1023000021002F06031D89292B0B8929013022006A
:10231000C70021003108200053020318932921002F
:1023200031082000D300210031080800A001200856
:102330002000B700D930B801B735B80DB735B80DA2
:10234000B735B80DB9002130BA0037083907860013
:1023500038083A3D8700A1308400003085000830FD
:10236000BB0016001A00BB0BB12921002808031D71
:10237000BB29200808001430A00A20020318FF34EB
:1023800097292100333D2000BD003C0886003D0810
:102390008700210008003208860033088700433197
:1023A0000800D9308400213085001730FE0002304B
:1023B000FF009D316F2591314230D80184000030FB
:1023C00085001630FE00FF019D316F2591312100FF
:1023D0002030E201E301E4018400013085002F3068
:1023E000FE00FF019D316F259131CA30840001301C
:1023F00085001130FE00FF019D316F2591312200D3
:102400000130EF007E102000052A23302300DA007F
:102410002830D9007830210099002C3098005123C1
:10242000913120302000B7000030E02291311308B4
:102430002000C4002130B7000030E02291311308A1
:102440002000C3002230B7000030E0229131130891
:102450002000C2002330B7000030E0229131130881
:102460002200AD002000420803193A2A4208210048
:10247000E0003D2A2100E001E00AE10160082000BF
:10248000CA007030B7000030E022913113082200FA
:10249000B10071302000B7000030E0229131130804
:1024A0002200B20072302000B7000030E0229131EB
:1024B00013082200B30073302000B7000030E02280
:1024C000913113082200AE0074302000B7000030B4
:1024D000E022913113082200AF0075302000B700D0
:1024E0000030E022913113082200B00012302100A8
:1024F0009700132391312200C3006A2391310030E9
:102500003E23913123001D122100911223009E12BF
:10251000D430FF2291312C30B7001430B800D430C1
:102520007323913120001330B701B801B9000B308B
:10253000BA00212391313823913122004308031935
:10254000AD2A1630C60000308623913116302200A5
:10255000C6000030F1239131010064001B302100DE
:102560009700F72291310B178B178B1720001C084F
:1025700002389C001C0801389C001B309B0028007E
:1025800095019714171417179716171697152630D5
:102590009600171521009314200095012100951233
:1025A00095111515951415108B1685239131220060
:1025B000EF01EF0A08249131502391316400DA2AA7
:1025C000B80037082300910020003808230092004B
:1025D000151395171514000000000000000064009A
:1025E00023001518F02A640023009513FC2F200007
:1025F0009A0178309B001C152100911408002000DE
:10260000B7008600013087008101370A860081010A
:102610003708023E8600633081003708033E86009B
:10262000013081010800B8302000B7000030E022FE
:102630009131140813082000B900333A031901340A
:102640000034E3263A082200A100200039082200C5
:10265000A000200038082200A30020003708220034
:10266000A2002B30BE000330BA00FF30BD000800CE
:10267000193021009D009E17F62708002000B700A2
:10268000472B22000E10080022000E140800370805
:10269000003A0319412B013A0319442B4F2B080030
:1026A000E42FFF308C008D0006308E0029309D0015
:1026B0009E13F62723008E1120008E118E12230008
:1026C0008D120C110E138E130E1022000E138E138A
:1026D0000E12080023009D171E159F1503309B0046
:1026E0009C011E120800B900D1012100E401200064
:1026F000CE0139082100E200200038082200A500A0
:10270000200037082200A400080008002000BB00B9
:10271000B830B700B8019C23913120003B08B83095
:10272000B7003F30B8000319992B3330B90000309F
:10273000CA2B0030B901CA2B163022004606031DF1
:1027400008002000370823009100200038082300EB
:1027500092001513951715161515C02391312300F6
:10276000151164002300151AB22B6400230095187C
:10277000B62B95139201403091002200C60108004B
:1027800055309600AA309600951400000000000015
:1027900000000800BA00230095171515151215132F
:1027A0009516200037082300910020003A082300E6
:1027B00092002000390823009300200038082300ED
:1027C0009400C023913123009512C023913123003E
:1027D0001511640023009518EA2B6400230095135B
:1027E000FC2F2000BB00D030B700B8019C239131F2
:1027F00020003B08D030B7003F30B8000319042C4C
:102800003B08B9000030CA2B1130B9000030CA2B88
:102810006400AA2591316400083022003702031CAD
:10282000162C8F31712791312200B7011C24913170
:102830006400ED27640008006F08031D08000B30DA
:102840003902031C08000D303902031C2A2C0E101B
:10285000B90108000E14080064002100630820007C
:102860004406031D492C50084306031D492C4F08FC
:102870004206031D492C2100DB0120004E082100E7
:102880005B02031808006208A32691312100DB0ACD
:102890003D2C7030210064020318AC2C640BAD2C6D
:1028A000153020004D020318080002304E06031DAB
:1028B000080021006208A32691312100D900620896
:1028C000A32691312100DF0020004C082100DD000B
:1028D000DF308600003087000108DC000130DC05B5
:1028E0005F36DA00200050082100B40020004F08B5
:1028F0002100B50020004D08013E2100B6005D0812
:10290000B7005908B8005C08B9005A08BA00630853
:10291000A0279131DE005E0F8E2CAD2C5E08D40016
:10292000DF30D501D435D50DD435D50DD435D50D01
:10293000D6002130D7005408560786005508573D69
:1029400087000130D8005D0AA62CD835890BA52C4C
:102950005808FF3A8105AD2CB0242200B90A0800BE
:102960006208A32691312200EC0021006208A32610
:1029700091312200ED0021006208A326913122004E
:10298000EE0020004E08FD3E2200E5002000500829
:10299000BE004F08BF002100630833279131220099
:1029A0006E0820004206031D092D22006D0820003C
:1029B0004306031D092D22006C0820004406031D58
:1029C000092D22004A080319032DCA03032D6208AA
:1029D000A32691312200E60021006208A32691314E
:1029E0002200B5003508031908006608B400080085
:1029F0002200200821040319080021088A00200869
:102A00000A009531080021006408703A0319E72C88
:102A1000F82C22006D082000B70022006E0820006C
:102A2000B80022006C08F32691312200EA006A0AFD
:102A30000319A52D6A088827913138082200E9007A
:102A4000200037082200E800A83021006406031D9A
:102A5000642D22006808073E2100D00000302200CB
:102A6000693D2100D1005008860051088700FF30E1
:102A7000810062088600013087000108D000D10182
:102A80006208053E8600403FD200413FD300500817
:102A9000520786005108533D87000108031D622D2F
:102AA00020004C082300CA0022006808860069083C
:102AB00087004331010E07392300CB00023020008C
:102AC000CB00642DE32691312200EB01E70165087C
:102AD000670203187E2D21006208A3269131210090
:102AE000D00022006B084F3E860001308700210095
:102AF000500881002200EB0AE70A672D21006308D5
:102B0000BA00200050082100BB0020004F0821001F
:102B1000BC0020004D08013E2100BD0022006C08D1
:102B20002100BE0022006D082100BF0022006E08B7
:102B30002100C0004F30C1000130C20022006B08EC
:102B40002100C30064088C315B2422004A08031D65
:102B5000CA030800682E21006208A3269131CC0028
:102B60000130D10006304C02031CBA2DB82DBA2D0D
:102B7000D8269131682E21006208A3269131D20017
:102B80000230D10005305202031CCF2DC82DCF2DAD
:102B9000520A0319CF2DCD2DCF2DD8269131682E75
:102BA00021006208A32691312100E40003302000B7
:102BB000D100682E21006208A3269131CE00063094
:102BC000D1001F304E02031CE92DE72DE92DD82638
:102BD0009131682E21006208A32691312100E30083
:102BE0006208A3269131D00021006208A32691310A
:102BF000CF000430D100682E07302000D100210022
:102C00006208A3269131CD00682E05302000D10046
:102C100021006208043E8600013087008101220005
:102C2000240825040319202E162E202E25088A009C
:102C300024080A009631202E21006208A326913133
:102C400021006208043E86000130870020004E0803
:102C50000102031C1C2E2D2E1C2E682E0830200075
:102C6000D1002100620886000130870001082000A1
:102C7000BD00BE0121006208053E8600403F2000E5
:102C8000BF00413FC0003D083F0786003E08403D71
:102C900087000108C100410F562E4F2E562E2100ED
:102CA0006208A3269131D82691315A2ED826913127
:102CB0000230D100682ED8269131682E5108840048
:102CC0000830040203185B2E983104351E3E820042
:102CD00021006208860001308700433F2000B700D2
:102CE0005108B800063038020318802E782E802E46
:102CF0003708031D7C2E7E2E01309F2E00309F2E24
:102D000006303806031D8F2E862E8F2E0330370295
:102D100003188B2E8D2E01309F2E00309F2E0730F2
:102D20003806031D9E2E952E9E2E4E083702031840
:102D30009A2E9C2E01309F2E00309F2E0130003A9B
:102D4000031908005E2E2000BC008B1386000130A2
:102D500087000108B700B8013C08053E8600403FE7
:102D6000B900413FBA0037083907860038083A3DB4
:102D700087000108BB003C08860001308700810AFB
:102D80003C08023E86003C089F31FA2791313C08FE
:102D90000318CC2E86008101033E86000130870097
:102DA00081033C08043E8600810A8B173B0808001B
:102DB0002000D1012100E401E3012000D001CF0176
:102DC000CE01CD0108002300CA010130CB00023042
:102DD000CC000330CD000430CE000530CF000630EB
:102DE0002000CB0008002100A000A1012108200044
:102DF0005302031CFF34210021082000B900D93000
:102E0000BA01B935BA0DB935BA0DB935BA0DBB002D
:102E10002130BC0039083B0786003A083C3D87005A
:102E2000A2308400003085000830BD0016001A0072
:102E3000BD0B162F210022082006031D302F23086A
:102E400020003706031D302F2100240820003806FB
:102E5000031D302F210029080319302F21080800F5
:102E60002100A10AF62E2000C0003E08B7003F084E
:102E7000B8004008F32691312000C100410A03192F
:102E800008005408093E2100AA0000300318013050
:102E9000AB00200041082100AC00E030AD01AC35B2
:102EA000AD0DAC35AD0DAC35AD0DAE002130AF0084
:102EB0002C082E0786002D082F3D87002B08803A0E
:102EC000803C031D652F2A0801020318080020001A
:102ED0005408093E2100AA00200041082100AB004F
:102EE000E030AC01AB35AC0DAB35AC0DAB35AC0D5A
:102EF000AD002130AE002B082D07AF002C082E3D71
:102F0000B0002F088600300887002A0881000800DA
:102F10002000BA002130BC00D930BB003A08B8000C
:102F2000B901B835B90DB835B90DB835B90D38088E
:102F3000BB073908BC3D3C08B8003B08B700080097
:102F4000BC0034082000B700210035082000B8007C
:102F500021003C08F32691312100BB003B0FC12F1B
:102F60003408A9003508AA003608AB003708AC00C1
:102F70003808AD003908AE003A08AF003C0890317F
:102F8000F8283C082000B700210034082000B800D1
:102F9000210035082000B900210036082000BA00C1
:102FA000210037082000BB00210038082000BC00A9
:102FB000210039082000BD0021003A082000BE0091
:102FC00021003B089031622822003508031D0800CB
:102FD00090313D202200B40008002000D81C0800D9
:102FE0002300D201D3012000D81008001E179E161E
:102FF0001E129E101E100800920140309100080021
:10300000003407340E3409341C341B3412341534A4
:1030100038343F3436343134243423342A342D3494
:1030200019341034BC341D34D4341D3464341D348C
:1030300004340E34F0341D34003400349531AB2D9B
:103040009531BB2D9531D02D9531DA2D9531FC2D53
:1030500096312E2E9531EA2D9631052EFF3FFF3FFA
:103AC000FF3FFF3FFF3FFF3F230019082000C700D3
:103AD00065304702031C04346430C70004346400BA
:103AE000013080010131FE020030FF3B7F087E047F
:103AF00003190034702DF1002000C800711C832DC3
:103B000022000E17852D22000E137108F000F036EA
:103B1000701C8D2D22008E178F2D22008E137108A0
:103B2000F000F036F036701C982D22000E160800BA
:103B300022000E1208004A08F0000430F036890B0B
:103B40009E2D4A08F100F136F136F1364A08F200AE
:103B5000F236F2367208710670064A06F30001303A
:103B6000F3057308F0000730F035890BB42D4A36A1
:103B70007004CA004A080800230019082000D70072
:103B80004608031DC42DA82E5708031902341F3000
:103B900057020318063457084602031C0634220055
:103BA000CA0A0130BF00023455088C3EA4002330FD
:103BB000A501A53D240886002508870023001908D3
:103BC00081002000D50A4608013EA40000300318F9
:103BD0000130A500550824062504031D0234A82E33
:103BE000230019082000A100210B062E2200400A04
:103BF0000319FD2D400880279D312000D6012A3071
:103C000022003E0603190634BB010D2E2200BB0A1A
:103C100006303B0203180634572ED6279D3157082D
:103C2000643C2200CD0004304D0203181A2EF80126
:103C3000F901212E4D08F800FD30F901F807031CA9
:103C4000F9037808CD004D089E269D31FF30FA011A
:103C50002200BD001F304D02031C482EFB017B08D3
:103C6000D0279D319D279D317B30DD279D31031D60
:103C7000432E7B08D0279D319D279D317C30DD2749
:103C80009D310319FA0A0530FB0A7B02031C2F2E13
:103C90002200BF017A084A020318512E4A08FA028C
:103CA000522EFA017A089E269D317A270034200090
:103CB000C501D6279D31200056089E269D31200043
:103CC00056080319732E5630F0000030E8279D3156
:103CD0004E279D31C5004E30F0000130E8279D3160
:103CE0004E279D31C50022004E089E269D312000A2
:103CF000A001560820020318942E20088C3EFC00D8
:103D00002330FD01FD3D7C08F0007D08E8279D3152
:103D10004E279D31C5002008EE279D3101089E26C3
:103D20009D312000A00A792E560803199C2E4508C3
:103D3000C50045089E269D317A270534F0002000F5
:103D4000111E9F2E700823009A009E180800A52EB1
:103D5000D6279D31200046080319132F5508A000CF
:103D60008B30A101A2002330A30020082207860087
:103D70002108233D87000108FC00D503C50155300B
:103D8000F0000030E8279D314E279D31C5005730A7
:103D9000F0000030E8279D314E279D31C5008C3062
:103DA000F0002330F1005508F200F30145084E27DA
:103DB0009D31C5004508C500D6279D317C082000EF
:103DC00045060319F32E00309E269D317A279D313A
:103DD0002000D5012200BB0A06303B02031C003440
:103DE0003F08CA0206344808F000D4301F279D312E
:103DF00022003D08F000D4301F279D31FD01200036
:103E000046087D0203180E2F7D08EE279D3101081C
:103E1000F000D4301F279D31FD0AFF2EFF30F00047
:103E2000D4301F279D3101309E269D317A279D3148
:103E30002A3022003E06031D0634BB010334F7007E
:103E4000770A8600013087000108F100F201770847
:103E5000053E8600403FF300413FF40071087307C0
:103E6000F5007208743DF600750886007608870034
:103E700070088100770AF4279D31023E8600770A98
:103E8000FA279D310318472F770A860081017708AA
:103E9000033EF427033E860001080800FB0071087A
:103EA000F8007008F7000130F2020030F33B720FA7
:103EB0005C2F730A0319782F77088600780887002B
:103EC0000108F4000430F436890B632F7B0E0F39A0
:103ED0007406B2279D3177088600780887007B0E2C
:103EE0000F390106B2279D31F70A0319F80A532F3B
:103EF0007B08080023009E121D1621009116080061
:103F0000F80005307802031808007808D0279D31A2
:103F10009D279D317B30C5279D317808D0279D3165
:103F20009D279D317C30C5279D317808D0279D3154
:103F30009D279D317930C5270800F401F501701CDB
:103F4000A52F7208F4077308F53DF235F30DF1362D
:103F5000F00C70087104031D9F2F7508F1007408A0
:103F6000F0000800F9000F30FA017905F400003084
:103F7000F501740784009830753D85000008F6004F
:103F80007B0EF0397606FB000800F6002230F700C1
:103F90007008760786007108773D87008101080068
:103FA000F0002330F101F200F301080023001D129C
:103FB0002100911223009E160800F6002230F7001F
:103FC0007008760786007108773D870001080800B1
:103FD000F100F201F20AF301450808008C3E860068
:103FE00023308701873D0800860001308700810A61
:103FF00077080800840001308500000801020800ED
:020000040001F9
:04000E00CCCFFFFF55
:00000001FF
