:101370008B310D2BFF3FFF3F7E1489312000911EE2
:10138000F32922004008031DC72920001C11210059
:101390009110003023001D1901302000B6003603E3
:1013A0000319D52923009D1CDA29230019082000E0
:1013B000B300E329210091102200C00A90310020DF
:1013C00089312200B7000630220037060319EB29C5
:1013D0002000360BEF299C31DD248931F3292200CE
:1013E000B501200058142700131D092A8B11111173
:1013F00021000C0804388C002A302200BB009E31EA
:101400000D2689312200B700B501200058142700AD
:10141000131120009118A02AAE2A23001D122100CA
:10142000911223009D139D1722003E08A800200062
:10143000B5011B2AB50A4B08FF3EB100FF30031867
:101440000030B200803A803C031D282A3108350262
:101450000318472A2200A80A20004B08220028026D
:101460000318A8012808CA3E860001308700010839
:101470009C31782489312808BE0020008D1A1A2A50
:101480008B152700111520001C112100911001302F
:101490002200B30020009A019B00AC2A3F08CA3EFC
:1014A00086000130870001089C31782489313F088B
:1014B000BE0020008D1A642A8B152700111520000C
:1014C0001C1121009110AC2A21008D1220008D12D8
:1014D00002302200B30020001C0802389C001C08C7
:1014E00001389C0022002A08223E2000B400343635
:1014F0009B009C31982489312200A9000C30F00017
:1015000029089C3160248931AA0020004B08F00092
:10151000220029089C3160248931BF00AC2A2100B7
:101520000D0820388D009F317A27893120001C0852
:1015300001389C009C102F309B002200B301AC2A84
:1015400022003308003A03190D2A013A03194E2AE2
:10155000033A03198F2AAC2A20009110931CDE2A2B
:101560002300D40A0319D50A22006E0BDC2A2300BB
:1015700053082000B200230052082000B1002300CD
:10158000D20A0319D30A00302000320210300319A6
:101590003102031CDC2A2300D201D30122000730D0
:1015A000C30A43020318D72A01308E06DC2A0E1024
:1015B0000B3043020318EE01200093101118111094
:1015C0000B1D0B2B2200B40A2000581CF82A0330F4
:1015D00022003502031CF82A3C080319F42A4808A3
:1015E0000319F42AC803BC019C31DD248931FD2A8A
:1015F0002000581CFD2A2200B50A22004708C70A0D
:101600002000B10007303102031C0A2B2200C70161
:101610007F30C6000B117E1009009131C2292200D3
:101620003208031D0800490803191E2B21238B31A2
:101630002000C5004508E225C50008002000C501BE
:10164000080032080319272B200045080800210054
:10165000A001A101A301A401240820005302031C3E
:101660007D2B21302100A600D930A50024082000C0
:10167000BF00C001BF35C00DBF35C00DBF35C00DA7
:101680003F082100A507200040082100A63D2508AD
:101690008600260887004731010803197B2B0A269C
:1016A0008B31811F7B2B0A268B3101080F392000DB
:1016B000B7000C30B801B900BA0191238B3137085B
:1016C0002100A20025088600260887004431010871
:1016D0002000B700B801210022082000B900BA019B
:1016E0009D258B3137082100A007200038082100F4
:1016F000A13D2208A307A40A2C2B210023080319CB
:10170000003423082000B700B80121002108200080
:10171000BA00210020082000B9009D3101253708BA
:101720000800BC01B81F9B2BB709B809B70A0319F9
:10173000B80ABC01BC0ABA1FA42BB909BA09B90A74
:101740000319BA0A0130BC06BD01BE0137083804CE
:101750000319C42BBB01BB0AB81BB12BB735B80D9D
:10176000AB2BBD35BE0D38083A02031DB92B370827
:101770003902031CC02B3708B9023808BA3B3D14A4
:10178000B836B70CBB0BB12B3C080319CC2BBD09E9
:10179000BE09BD0A0319BE0A3E08B8003D08B700DD
:1017A0000800A83021006406031D4F2C6208963102
:1017B0009B268B312300C0004008031D08008B11BD
:1017C0002700111121000C0804388C00200095011D
:1017D0008B121C1121009110280095011711210076
:1017E00093100B138B1323009D139D179E121D1234
:1017F00021009112123097002500930120000E085D
:1018000008388E000E0820388E00FF302500910029
:1018100021009D01270013112000931091109311B6
:101820000B138B1323009D138B13210063082000DF
:10183000B7000030EE248B3195181C2C2000500886
:10184000B7000130EE248B319518242C20004F086E
:10185000B7000230EE248B3195182C2C20004C0858
:10186000B7000330EE248B319518342C8B131630CF
:101870002200C400013093317D238B3195183E2C1A
:101880008B1316302200C40003309331E8238B31D0
:101890009518482C8B136400010064004D2CA03077
:1018A0006406031D812C22002F082300B3002200B0
:1018B00030082300B400220031082300B5002200C4
:1018C0002C082300B60022002D082300B7002200B8
:1018D0002E082300B8000430B9000330BA00BB0161
:1018E00022002B082300BC00BD01BD0ABE01E52576
:1018F0008B31B330C1000130C2000C30C300A130C5
:10190000182DA2306406031D08002300BF01C10189
:10191000410820005302031CE12C23004108210050
:10192000CB00D930CC01CB35CC0DCB35CC0DCB3564
:10193000CC0DCD002130CE004B084D0786004C0861
:101940004E3D8700C2308400013085000830CF0052
:1019500016001A00CF0BA82C230049080319DF2C0E
:1019600045080F39013A031DDF2C01302100CB005F
:101970002300450E0739890A2100BF2CCB35890B7E
:10198000BE2C4B082300BF04FD258B310B258B316A
:10199000013E04268B3142088100FD258B310B2549
:1019A0008B31023E04268B3143088100FD258B31AB
:1019B0000B258B31033E04268B3144088100C10A7C
:1019C000882C23003F08A000E5258B31A030C10002
:1019D0000130C2001330C300A330182DB80023001B
:1019E0009518EF2C20003808230091009201200068
:1019F0003708230093003F30950503108B1B031419
:101A00008B13151555309600AA30960095141511B4
:101A100003188B1708002000B900B80137083918DF
:101A2000B807B735B9363908031D0E2D3808080038
:101A3000C6003F082000B700210040082000B80081
:101A400021003E089631EB268B312100C700470A62
:101A50000319FE344708973180278B31380821005D
:101A6000C500200037082100C400CA012230C90087
:101A70007930C8004A089031C7208B319D258B31C1
:101A800037082100C807200038082100C93D49084F
:101A90002000B800210048082000B70021004608B7
:101AA0002000B90021003E082000BA0021003F08B4
:101AB0002000BB00210040082000BC00B2258B3173
:101AC000003A031D742D210048088600490887004C
:101AD00042310108031D972D4808860049088700F8
:101AE00043310108031D972D210044088600450855
:101AF00087004331010E0739A0004608A1003A08CB
:101B0000A2003B08A3003C08A4003D08A5003E0835
:101B1000A6003F08A7004008A8004208AA00410804
:101B2000A9004308AB004A08903112200034053068
:101B3000CA0A4A020318FF34362DBB01BC01371C08
:101B4000A52D3908BB073A08BC3DB935BA0DB836E2
:101B5000B70C37083804031D9F2D3C08B8003B081C
:101B6000B7000800A0303902031800343708860097
:101B7000380887004231010B0034370886003808E6
:101B80008700443101083906031D003437088600F8
:101B9000380887004A3101083A06031D0034370827
:101BA0008600380887004B3101083B06031D0034CE
:101BB00037088600380887004C3101083C060319B5
:101BC00001340034B7003709080020004408210020
:101BD000BA00200043082100BB0020004208210079
:101BE000BC00BD016308BE00200050082100BF00FA
:101BF00020004F082100C000080003302000B7007B
:101C00002300450E07390800A03E860001308700FA
:101C100023000800250886002608870043310800B5
:101C2000230019082200B90039080319192E1F30A2
:101C3000B9001A2EFF30BD002000A8012200420882
:101C4000013ECA0005304A020318CA014A08C20010
:101C500022302000AC007930AB0022004A089F31CE
:101C6000D0278E319F319D278E3170082000AB0721
:101C70007108AC3D2200CD0120002B0886002C0805
:101C80008700413101084906031D842E2B08860078
:101C90002C0887004231010B842E6C278E312200E4
:101CA0003902031C842E20006C278E314802031C4D
:101CB000842EA9016C278E31290203187D2E290854
:101CC000A100A2012B07A30022082C3DA400230899
:101CD00086002408870044310108A50056088C3E80
:101CE000A6002330A701A73D260886002708870005
:101CF00025088100D60AA90A5A2E6C278E312200A7
:101D0000CD004A08BD008A2E20000530A80A28020E
:101D1000031C1E2E01302000A100490A902EA1357F
:101D2000890B8F2E2108220046050319D82E20008A
:101D300072278E31A30080302302031DA12E480894
:101D400021020318D82E01302000A100490AA92E33
:101D5000A135890BA82E2108FF3A2200C6052000D4
:101D600053278E3101308100D60A53278E3102303D
:101D70008100D60A53278E3144088100D60A5327A2
:101D80008E3143088100D60A532742088100D60AC3
:101D900056089F31EE278E318101D60A53278E31A6
:101DA00045088100D60A53278E317B308100D60A40
:101DB0002000AA012A085302031C3E2F2130AE0046
:101DC000D930AD002A08A100A201A135A20DA1358C
:101DD000A20DA135A20D2108AD072208AE3D2D08A8
:101DE00086002E0887004731010803193C2F5E2723
:101DF0008E31010503193C2F72278E31803C031D63
:101E0000032F21084802031C3E2F20005E278E313D
:101E1000FF3A810553278E3101308100D60A5327BE
:101E20008E3102308100D60A2D0886002E088700E8
:101E3000010840278E314131010840278E3142315F
:101E4000010840278E31433101080F3940278E3178
:101E50004431010840278E3145310135A100560833
:101E60008C3EA2002330A301A33D22088600230854
:101E7000870021088100D60AAA0ADA2E9E31572E41
:101E8000A10056088C3EA2002330A301A33D2208E6
:101E900086002308870021088100D60A2D088600C5
:101EA0002E088700080056088C3EA1002330A201AE
:101EB000A23D210886002208870008002D08860020
:101EC0002E08870001304631A100490A682FA1354C
:101ED000890B672F210808002B0886002C08870033
:101EE000010808005608083EA10000300318013020
:101EF000A200803A08002100A70127082000530211
:101F0000031C080021302100A600D930A5002708B5
:101F1000A300A401A335A40DA335A40DA335A40DDE
:101F20002308A5072408A63DED278F3101080319D2
:101F3000A02FED278F31810BA02F2708A3278F31EA
:101F40002100A70A7D2FA2001430220203180800E6
:101F50002130A100D930A00022082000BF00C0011C
:101F6000BF35C00DBF35C00DBF35C00D3F082100C6
:101F7000A007200040082100A13D220026082704D8
:101F80000319D82F2100200884002108850037304C
:101F900086000030870008302000BF0012001E00BD
:101FA000BF0BCE2F220027088A0026080A008F3197
:101FB0002000D40321002008860021088700473133
:101FC00081012000530821002206031D0800220879
:101FD000031908002000D3030800250886002608FE
:101FE0008700473108006400013080010131FE02A2
:101FF0000030FF3B7F087E0403190034F42FFF3FBD
:1020000037082000AF001030B001AF35B00D2F07FA
:1020100084009830303D8500013F8A00003F0A006F
:1020200090310800B30005303302031808002B0874
:10203000093EAC00003003180130AD002D08803A95
:10204000AE0080302E02031D27281F302C020318FB
:10205000080022302100B6007930B5003308C720CF
:102060008D319D25903137082100B50720003808B3
:102070002100B63D3608B8003508B7000430B70770
:102080000318B80A350886003608870042318101F6
:102090003508033EBE209031013081003508013EF5
:1020A000BE20903120088100B90137088600380829
:1020B000870021088100B90A2B08033EAC003908CB
:1020C000AD00AE013707AF002E08383DB0002F0835
:1020D0008600300887002C08AF2090312208AF20FE
:1020E00090312308AF2090312408AF20903125088B
:1020F000AF2090312608AF2090312708AF209031D3
:1021000028088100B90AB4012B0834020318A32857
:102110003408AC00AD01290786002D082A3D870050
:102120000108AE003908AF00B0013707B100300830
:10213000383DB20031088600320887002E08810041
:10214000B90AB40A84283508860036088700390899
:1021500081003508023EBE20013081000800810068
:10216000B90A3908AC00AD013707AE002D08383D7B
:10217000AF002E0886002F0887000800AC00003052
:10218000363DAD002C0886002D0887000800200091
:10219000B7002330B801B900BA010800B0008721A8
:1021A0009031B100310FD528FF342130B300D93040
:1021B000B20031082000BF00C001BF35C00DBF35DF
:1021C000C00DBF35C00D3F082100B20720004008F8
:1021D0002100B33D320886003308870030088100B3
:1021E0003208013E2000BF000030B22190312908A2
:1021F00081003208023E2000BF000030B221903141
:102200002A088100BC21903101082B06F0392B06E9
:1022100081002C082000BF002100BC21903120004B
:10222000BF0E01083F068F393F06810021003208AA
:10223000043E2000BF000030B22190312D08810003
:10224000BC2190312E0C031C811303188117320816
:10225000063E2000BF0000302100333D2000C000BA
:102260003F088600400887007F3081005408093EFF
:10227000BF0021003208073E2000C00000302100CE
:10228000333D2000C10040088600410887003F0818
:10229000810021003208053E2000BF000030B2213D
:1022A00090312F0881002000D40A043021002F062D
:1022B000031D5F292B0B5F2901302200C50021007F
:1022C0003108200053020318692921003108200039
:1022D000D300220024082504031984292100320890
:1022E00084003308850037308600003087000830CE
:1022F0002000BF0012001E00BF0B7A292200250813
:102300008A0024080A009131210031080800A00148
:1023100020082000B700D930B801B735B80DB7355F
:10232000B80DB735B80DB9002130BA0037083907F4
:10233000860038083A3D8700A130840000308500CF
:102340000830BB0016001A00BB0BA2292100280888
:10235000031DAC29200808001430A00A200203182D
:10236000FF3488292100333D2000C0003F0886004B
:1023700040088700210008003208860033088700E3
:1023800043310800D9308400213085001730FE0029
:102390000230FF008F31F32791314230D8018400A1
:1023A000003085001630FE00FF018F31F327913198
:1023B00021002030E201E301E401840001308500C6
:1023C0002E30FE00FF018F31F3279131CA30840097
:1023D000013085001330FE00FF018F31F32791316A
:1023E00022000130EE007E102000F6292330230069
:1023F000DC002830DB007830210099002C30980078
:102400004423913120302000B7000030D022913198
:1024100013082000C4002130B7000030D0229131D1
:1024200013082000C3002230B7000030D0229131C1
:1024300013082000C2002330B7000030D0229131B1
:1024400013082200AB002000420803192B2A42087F
:102450002100E0002E2A2100E001E00AE1016008ED
:102460002000CA007030B7000030D022913113082C
:102470002200AF0071302000B7000030D02291312F
:1024800013082200B00072302000B7000030D022C4
:10249000913113082200B10073302000B7000030E2
:1024A000D022913113082200AC0074302000B70014
:1024B0000030D022913113082200AD007530200089
:1024C000B7000030D022913113082200AE00123044
:1024D00021009700032391312200C1006123913133
:1024E00000303023913123001D122100911223006E
:1024F0009E12D630EF2291312330B7001430B8004D
:10250000D6306A2391312000D130B701B801B9002B
:102510000B30BA0011239131262391314108031960
:102520009D2A1630C40000307D23913116302200E0
:10253000C4000030E8239131010064001B30210009
:102540009700E72291310B178B178B1720001C087F
:1025500002389C001C0801389C001B309B0028009E
:1025600095019714171417179716171697152630F5
:102570009600171521009314200095012100951253
:1025800095111515951415108B167C239131220089
:10259000EE01EE0AFF239131422391316400CA2AF1
:1025A000B80037082300910020003808230092006B
:1025B00015139517151400000000000000006400BA
:1025C00023001518E02A640023009513FC2F200037
:1025D0009A0178309B001C152100911408002000FE
:1025E000B7008600013087008101370A860081012B
:1025F0003708023E8600633081003708033E8600BC
:10260000013081010800B8302000B7000030D0222E
:102610009131140813082000B900333A031901342A
:102620000034DB2691313A082200A100200039084D
:102630002200A000200038082300D1002000370825
:102640002300D000F627FF30BA00080047302000F2
:10265000B7001C30B8004D30B9001C30BA00DC2F78
:102660002000B700392B22000E10080022000E14A3
:1026700008003708003A0319332B013A0319362BA7
:10268000412B08008B310F2BFF308C008D00063062
:102690008E0029309D009E131E179E161E129E103E
:1026A0001E1023008E1120008E118E1223008D1219
:1026B0000C110E138E130E1022000E138E130E1219
:1026C000080023009D171E159F1503309B009C01D9
:1026D0001E120800B900D1012100E4012000CE0142
:1026E00039082100E200200038082200A300200061
:1026F00037082200A200080008002000BB00B83004
:10270000B700B8019323913120003B08B830B700DF
:102710003F30B8000319902B3330B9000030C12B83
:102720000030B901C12B163022004406031D0800F9
:102730002000370823009100200038082300920071
:102740001513951715161515B7239131230015117B
:1027500064002300151AA92B640023009518AD2BE3
:1027600095139201403091002200C40108005530B9
:102770009600AA30960095140000000000000000AA
:102780000800BA0023009517151515121513951694
:10279000200037082300910020003A08230092000F
:1027A00020003908230093002000380823009400FB
:1027B000B723913123009512B723913123001511CE
:1027C000640023009518E12B640023009513FC2F6F
:1027D0002000BB00D030B700B80193239131200016
:1027E0003B08D030B7003F30B8000319FB2B3B0843
:1027F000B9000030C12B1130B9000030C12B64008A
:10280000A22591316400083022003402031C0D2CF3
:102810008F317B2791312200B40113249131640060
:10282000ED27640008006E08031D08000B30360217
:10283000031C08000D303602031C212C0E10B601BB
:1028400008000E14080064002100630820004406FC
:10285000031D402C50084306031D402C4F08420620
:10286000031D402C2100DB0120004E0821005B02EB
:102870000318080062089B2691312100DB0A342CE2
:102880007030210064020318A32C640BA42C1530B3
:1028900020004D020318080002304E06031D0800F8
:1028A000210062089B2691312100D90062089B26F5
:1028B00091312100DF0020004C082100DD00DF30D5
:1028C0008600003087000108DC000130DC055F363F
:1028D000DA00200050082100B40020004F08210039
:1028E000B50020004D08013E2100B6005D08B7008C
:1028F0005908B8005C08B9005A08BA00630898275C
:102900009131DE005E0F852CA42C5E08D400DF30F0
:10291000D501D435D50DD435D50DD435D50DD6004A
:102920002130D7005408560786005508573D8700C8
:102930000130D8005D0A9D2CD835890B9C2C580895
:10294000FF3A8105A42CA7242200B60A08006208D9
:102950009B2691312200EB00210062089B269131D9
:102960002200EC00210062089B2691312200ED003C
:1029700020004E08FD3E2200E40020005008BE006A
:102980004F08BF00210063082B27913122006D08FA
:1029900020004206031D012D22006C082000430682
:1029A000031D012D22006B0820004406031D012D8C
:1029B000220048080319FB2CC803FB2C62089B2645
:1029C00091312200E500210062089B26913122000E
:1029D000B20032080319080065082000C50008008D
:1029E0002200200821040319080021088A00200879
:1029F0000A009431080021006408703A0319DE2CA3
:102A0000F02C22006C082000B70022006D08200086
:102A1000B80022006B08EB2691312200E900690A18
:102A200003199D2D69088027913138082200E8009C
:102A3000200037082200E700A83021006406031DAB
:102A40005C2D22006708073E2100D00000302200E4
:102A5000683D2100D1005008860051088700FF30F2
:102A6000810062088600013087000108D000D10192
:102A70006208053E8600403FD200413FD300500827
:102A8000520786005108533D87000108031D5A2D47
:102A900020004C082300CA0022006708860068084E
:102AA00087004331010E07392300CB00023020009C
:102AB000CB005C2DDB2691312200EA01E60164089F
:102AC00066020318762D210062089B2691312100B1
:102AD000D00022006A084E3E8600013087002100A7
:102AE000500881002200EA0AE60A5F2D21006308EF
:102AF000BA00200050082100BB0020004F08210030
:102B0000BC0020004D08013E2100BD0022006B08E2
:102B10002100BE0022006C082100BF0022006D08C9
:102B20002100C0004E30C1000130C20022006A08FE
:102B30002100C30064088D31182522004808031DB8
:102B4000C8030800602E210062089B269131CC004A
:102B50000130D10006304C02031CB22DB02DB22D35
:102B6000D0269131602E210062089B269131D2003F
:102B70000230D10005305202031CC72DC02DC72DD5
:102B8000520A0319C72DC52DC72DD0269131602EAD
:102B9000210062089B2691312100E40003302000CF
:102BA000D100602E210062089B269131CE000630B4
:102BB000D1001F304E02031CE12DDF2DE12DD02668
:102BC0009131602E210062089B2691312100E300A3
:102BD00062089B269131D000210062089B2691312A
:102BE000CF000430D100602E07302000D10021003A
:102BF00062089B269131CD00602E05302000D10067
:102C000021006208043E8600013087008101220015
:102C1000220823040319182E0E2E182E23088A00CA
:102C200022080A009631182E210062089B26913155
:102C300021006208043E86000130870020004E0813
:102C40000102031C142E252E142E602E08302000A5
:102C5000D1002100620886000130870001082000B1
:102C6000BD00BE0121006208053E8600403F2000F5
:102C7000BF00413FC0003D083F0786003E08403D81
:102C800087000108C100410F4E2E472E4E2E210015
:102C900062089B269131D0269131522ED026913157
:102CA0000230D100602ED0269131602E5108840070
:102CB000083004020318532E983104351E3E82005A
:102CC00021006208860001308700433F2000B700E2
:102CD0005108B800063038020318782E702E782E6E
:102CE0003708031D742E762E0130972E0030972E54
:102CF00006303806031D872E7E2E872E03303702BE
:102D00000318832E852E0130972E0030972E073022
:102D10003806031D962E8D2E962E4E083702031868
:102D2000922E942E0130972E0030972E0130003ACB
:102D300003190800562E2000BC008B1386000130BA
:102D400087000108B700B8013C08053E8600403FF7
:102D5000B900413FBA0037083907860038083A3DC4
:102D600087000108BB003C08860001308700810A0B
:102D70003C08023E86003C089F31FA2791313C080E
:102D80000318C42E86008101033E860001308700AF
:102D900081033C08043E8600810A8B173B0808002B
:102DA0002000D1012100E401E3012000D001CF0186
:102DB000CE01CD0108002300CA010130CB00023052
:102DC000CC000330CD000430CE000530CF000630FB
:102DD0002000CB0008002100A000A1012108200054
:102DE0005302031CFF34210021082000B900D93010
:102DF000BA01B935BA0DB935BA0DB935BA0DBB003E
:102E00002130BC0039083B0786003A083C3D87006A
:102E1000A2308400003085000830BD0016001A0082
:102E2000BD0B0E2F210022082006031D282F23088A
:102E300020003706031D282F210024082000380613
:102E4000031D282F210029080319282F2108080015
:102E50002100A10AEE2E2000C0003E08B7003F0866
:102E6000B8004008EB2691312000C100410A031947
:102E700008005408093E2100AA0000300318013060
:102E8000AB00200041082100AC00E030AD01AC35C2
:102E9000AD0DAC35AD0DAC35AD0DAE002130AF0094
:102EA0002C082E0786002D082F3D87002B08803A1E
:102EB000803C031D5D2F2A08010203180800200032
:102EC0005408093E2100AA00200041082100AB005F
:102ED000E030AC01AB35AC0DAB35AC0DAB35AC0D6A
:102EE000AD002130AE002B082D07AF002C082E3D81
:102EF000B0002F088600300887002A0881000800EB
:102F00002000BA002130BC00D930BB003A08B8001C
:102F1000B901B835B90DB835B90DB835B90D38089E
:102F2000BB073908BC3D3C08B8003B08B7000800A7
:102F3000BC0034082000B700210035082000B8008C
:102F400021003C08EB2691312100BB003B0FB92F3B
:102F50003408A9003508AA003608AB003708AC00D1
:102F60003808AD003908AE003A08AF003C0890318F
:102F7000CE283C082000B700210034082000B8000B
:102F8000210035082000B900210036082000BA00D1
:102F9000210037082000BB00210038082000BC00B9
:102FA000210039082000BD0021003A082000BE00A1
:102FB00021003B089D31262DD40138082200A500B0
:102FC000200037082200A40020003A082200A700B1
:102FD000200039082200A60008002000D81C0800A4
:102FE0002300D401D5012000D81008002B30220086
:102FF000BB000330B7000800920140309100080088
:10300000003407340E3409341C341B3412341534A4
:1030100038343F3436343134243423342A342D3494
:10302000B9341C34BC341D34D4341D3455341C34F0
:1030300010340E34F0341D34003400349531A32D97
:103040009531B32D9531C82D9531D22D9531F42D73
:103050009631262E9531E22D9531FD2DFF3FFF3F14
:10388000FF3FFF3FFF3FFF3FFF3FFF3FFF3F200066
:10389000BA1F08002200C90A08002000BA1F080049
:1038A00022004908031DC90308002300190820004D
:1038B000C80065304802031C04346430C800043476
:1038C000F2000830F300F4017208F1000730F1361D
:1038D000890B672C74357104F400F235700874029A
:1038E000031C742C7008F402F30B642C7408080099
:1038F000F1002000C900711C802C22000E17822CC0
:1039000022000E137108F000F036701C8A2C220081
:103910008E178C2C22008E137108F000F036F036D2
:10392000701C952C22000E16080022000E120800B2
:103930004A08F0000430F036890B9B2C4A08F1004D
:10394000F136F136F1364A08F200F236F2367208F4
:10395000710670064A06F3000130F3057308F000A3
:103960000730F035890BB12C4A367004CA004A087A
:103970000800230019082000C70023005908643CF0
:103980002200CB0004304B020318C92CF001F101D6
:10399000D02C4B08F000FD30F101F007031CF103BF
:1039A0007008CB0065302000470203180634470832
:1039B00022004B02031C0634013420005810220060
:1039C000C001F52423001D12210091129231E7223B
:1039D00020001C0801389C009C102F309B000C30EC
:1039E0009B002200B301B50108002000D601C701E9
:1039F000C8019731F6272000D501FF302200BA0018
:103A00000800BC01BD01370838040319212DBB0192
:103A1000BB0AB81B0E2DB735B80D082DBC35BD0D32
:103A200038083A02031D162D37083902031C1D2DD4
:103A30003708B9023808BA3B3C14B836B70CBB0B90
:103A40000E2D3D08B8003C08B7000800A00021304A
:103A5000A200D930A10020082000BF00C001BF355E
:103A6000C00DBF35C00DBF35C00D3F082100A107F7
:103A7000200040082100A23D21088600220887007E
:103A8000433101080F392000BF003A083F02031CF0
:103A9000A22DB5259D31010820003A06F0393A06DD
:103AA00081003B08BF00B5259D312000BF0E0108F5
:103AB0003F068F393F06810021002108043E200087
:103AC000BF00AB259D313C08810021002108053E47
:103AD0002000BF00AB259D313E0881002100210858
:103AE000063E2000BF00AB259D317F308100540889
:103AF000093EBF00003003180130C000210021083A
:103B0000860022088700473120004008803A803C28
:103B1000031D8C2D3F0801020318A22D200054081C
:103B2000093EBF0021002108073E2000C0000030F0
:103B30002100223D2000C100400886004108870086
:103B40003F08810020003D080319A82DB5258117E5
:103B500021002008080000302100223D2000C00084
:103B60003F088600400887000800210021088600E1
:103B70002208870043310800230019082000D700DD
:103B80004708031DC42DA82E5708031902341F30FF
:103B900057020318063457084702031C0634220054
:103BA000C80A0130BC00023455088C3EA400233002
:103BB000A501A53D240886002508870023001908D3
:103BC00081002000D50A4708013EA40000300318F8
:103BD0000130A500550824062504031D0234A82E33
:103BE000230019082000A100210B062E22003D0A07
:103BF0000319FD2D3D0880279D312000D6012A3074
:103C000022003B0603190634B8010D2E2200B80A23
:103C10000630380203180634572ED6279D3159082E
:103C2000643C2200CC0004304C0203181A2EF80128
:103C3000F901212E4C08F800FD30F901F807031CAA
:103C4000F9037808CC004C089E269D31FF30FA011C
:103C50002200BA001F304C02031C482EFB017B08D7
:103C6000D0279D319D279D317B30DD279D31031D60
:103C7000432E7B08D0279D319D279D317C30DD2749
:103C80009D310319FA0A0530FB0A7B02031C2F2E13
:103C90002200BC017A0848020318512E4808FA0293
:103CA000522EFA017A089E269D317A270034200090
:103CB000C601D6279D31200056089E269D31200042
:103CC00056080319732E5630F0000030E8279D3156
:103CD0004E279D31C6004D30F0000130E8279D3160
:103CE0004E279D31C60022004D089E269D312000A2
:103CF000A001560820020318942E20088C3EFC00D8
:103D00002330FD01FD3D7C08F0007D08E8279D3152
:103D10004E279D31C6002008EE279D3101089E26C2
:103D20009D312000A00A792E560803199C2E4608C2
:103D3000C60046089E269D317A270534F0002000F3
:103D4000111E9F2E700823009A009E180800A52EB1
:103D5000D6279D31200047080319132F5508A000CE
:103D60008B30A101A2002330A30020082207860087
:103D70002108233D87000108FC00D503C60155300A
:103D8000F0000030E8279D314E279D31C6005730A6
:103D9000F0000030E8279D314E279D31C6008C3061
:103DA000F0002330F1005508F200F30146084E27D9
:103DB0009D31C6004608C600D6279D317C082000EC
:103DC00046060319F32E00309E269D317A279D3139
:103DD0002000D5012200B80A06303802031C003446
:103DE0003C08C80206344908F000D6301F279D3130
:103DF00022003A08F000D6301F279D31FD01200037
:103E000047087D0203180E2F7D08EE279D3101081B
:103E1000F000D6301F279D31FD0AFF2EFF30F00045
:103E2000D6301F279D3101309E269D317A279D3146
:103E30002A3022003B06031D0634B8010334F70084
:103E4000770A8600013087000108F100F201770847
:103E5000053E8600403FF300413FF40071087307C0
:103E6000F5007208743DF600750886007608870034
:103E700070088100770AF4279D31023E8600770A98
:103E8000FA279D310318472F770A860081017708AA
:103E9000033EF427033E860001080800FB0071087A
:103EA000F8007008F7000130F2020030F33B720FA7
:103EB0005C2F730A0319782F77088600780887002B
:103EC0000108F4000430F436890B632F7B0E0F39A0
:103ED0007406B2279D3177088600780887007B0E2C
:103EE0000F390106B2279D31F70A0319F80A532F3B
:103EF0007B08080023009E121D1621009116080061
:103F0000F80005307802031808007808D0279D31A2
:103F10009D279D317B30C5279D317808D0279D3165
:103F20009D279D317C30C5279D317808D0279D3154
:103F30009D279D317930C5270800F401F501701CDB
:103F4000A52F7208F4077308F53DF235F30DF1362D
:103F5000F00C70087104031D9F2F7508F1007408A0
:103F6000F0000800F9000F30FA017905F400003084
:103F7000F501740784009830753D85000008F6004F
:103F80007B0EF0397606FB000800F6002230F700C1
:103F90007008760786007108773D87008101080068
:103FA000F0002330F101F200F301080023001D129C
:103FB0002100911223009E160800F6002230F7001F
:103FC0007008760786007108773D870001080800B1
:103FD000F100F201F20AF301460808008C3E860067
:103FE00023308701873D0800860001308700810A61
:103FF00077080800840001308500000801020800ED
:020000040001F9
:04000E00CCCFFFFF55
:00000001FF
