:101370008B310D2BFF3FFF3F7E1489312000911EE2
:10138000F32922004208031DC72920001C11210057
:101390009110003023001D1901302000B6003603E3
:1013A0000319D52923009D1CDA29230019082000E0
:1013B000B300E329210091102200C20A8F31E927EE
:1013C00089312200B9000630220039060319EB29C1
:1013D0002000360BEF29903102208931F3292200B9
:1013E000B701200058142700131D092A8B11111171
:1013F00021000C0804388C002A302200BD009E31E8
:101400000D2689312200B900B701200058142700A9
:10141000131120009118A02AAE2A23001D122100CA
:10142000911223009D139D1722004008AA0020005E
:10143000B5011B2AB50A4B08FF3EB100FF30031867
:101440000030B200803A803C031D282A3108350262
:101450000318472A2200AA0A20004B0822002A0269
:101460000318AA012A08CA3E860001308700010835
:101470009C31C32489312A08C00020008D1A1A2A01
:101480008B152700111520001C112100911001302F
:101490002200B50020009A019B00AC2A4108CA3EF8
:1014A00086000130870001089C31C324893141083E
:1014B000C00020008D1A642A8B152700111520000A
:1014C0001C1121009110AC2A21008D1220008D12D8
:1014D00002302200B50020001C0802389C001C08C5
:1014E00001389C0022002C08223E2000B400343633
:1014F0009B009C31E32489312200AB000C30F000CA
:101500002B089C318D248931AC0020004B08F00061
:1015100022002B089C318D248931C100AC2A210086
:101520000D0820388D009F317A27893120001C0852
:1015300001389C009C102F309B002200B501AC2A82
:1015400022003508003A03190D2A013A03194E2AE0
:10155000033A03198F2AAC2A20009110931CDE2A2B
:101560002300D20A0319D30A22006F0BDC2A2300BE
:1015700051082000B200230050082000B1002300D1
:10158000D00A0319D10A00302000320210300319AA
:101590003102031CDC2A2300D001D10122000730D4
:1015A000C50A45020318D72A01308E06DC2A0E1020
:1015B0000B3045020318EF01200093101118111091
:1015C0000B1D0B2B2200B60A2000581CF82A0330F2
:1015D00022003702031CF82A3E080319F42A4A089D
:1015E0000319F42ACA03BE01903102208931FD2A71
:1015F0002000581CFD2A2200B70A22004908C90A07
:101600002000B10009303102031C0A2B2200C9015D
:101610007F30C8000B117E1009009131BE292200D5
:1016200034080319162B2000450808002100A001EA
:10163000A101A301A401240820005302031C6F2B65
:1016400021302100A600D930A50024082000BF00C9
:10165000C001BF35C00DBF35C00DBF35C00D3F083F
:101660002100A507200040082100A63D250886008E
:10167000260887004731010803196D2B25088600CD
:10168000260887004331811F6D2B25088600260818
:10169000F8258B31B7000C30B801B900BA018223AC
:1016A0008B3137082100A200250886002608870014
:1016B000443101082000B700B801210022082000B1
:1016C000B900BA018E258B3137082100A007200010
:1016D00038082100A13D2208A307A40A1B2B2100E2
:1016E00023080319003423082000B700B8012100A3
:1016F00021082000BA00210020082000B900FE25A2
:1017000037080800BC01B81F8C2BB709B809B70A05
:101710000319B80ABC01BC0ABA1F952BB909BA094A
:10172000B90A0319BA0A0130BC06BD01BE01370867
:1017300038040319B52BBB01BB0AB81BA22BB73564
:10174000B80D9C2BBD35BE0D38083A02031DAA2BDF
:1017500037083902031CB12B3708B9023808BA3BE5
:101760003D14B836B70CBB0BA22B3C080319BD2B9C
:10177000BD09BE09BD0A0319BE0A3E08B8003D08EE
:10178000B7000800A83021006406031D402C620841
:101790009631AA268B312300C0004008031D0800A3
:1017A0008B112700111121000C0804388C00200037
:1017B00095018B121C112100911028009501171121
:1017C000210093100B138B1323009D139D179E1262
:1017D0001D12210091121230970025009301200064
:1017E0000E0808388E000E0820388E00FF302500C5
:1017F000910021009D0127001311200093109110EA
:1018000093110B138B1323009D138B13210063087B
:101810002000B7000030DF248B3195180D2C2000FC
:101820005008B7000130DF248B319518152C2000AB
:101830004F08B7000230DF248B3195181D2C200093
:101840004C08B7000330DF248B319518252C8B13FF
:1018500016302200C600013093318C238B3195184D
:101860002F2C8B1316302200C60003309331F72340
:101870008B319518392C8B136400010064003E2CC9
:10188000A0306406031D722C220031082300B3002F
:10189000220032082300B400220033082300B500E0
:1018A00022002E082300B60022002F082300B700D4
:1018B000220030082300B8000430B9000330BA0019
:1018C000BB0122002D082300BC00BD01BD0ABE01E2
:1018D000D3258B31B330C1000130C2000C30C300BE
:1018E000A130092DA2306406031D08002300BF01AA
:1018F000C101410820005302031CD22C23004108DF
:101900002100CB00D930CC01CB35CC0DCB35CC0D63
:10191000CB35CC0DCD002130CE004B084D078600D5
:101920004C084E3D8700C2308400013085000830ED
:10193000CF0016001A00CF0B992C23004908031979
:10194000D02C45080F39013A031DD02C013021005D
:10195000CB002300450E0739890A2100B02CCB3576
:10196000890BAF2C4B082300BF04EB258B31FC24E3
:101970008B31013EF2258B3142088100EB258B3102
:10198000FC248B31023EF2258B3143088100EB258C
:101990008B31FC248B31033EF2258B3144088100CE
:1019A000C10A792C23003F08A000D3258B31A03039
:1019B000C1000130C2001330C300A330092DB800AC
:1019C00023009518E02C2000380823009100920194
:1019D00020003708230093003F30950503108B1B30
:1019E00003148B13151555309600AA3096009514E4
:1019F000151103188B1708002000B900B80137082B
:101A00003918B807B735B9363908031DFF2C38081F
:101A10000800C6003F082000B70021004008200051
:101A2000B80021003E089631FA268B312100C7000C
:101A3000470A0319FE34470897318F278B3138083E
:101A40002100C500200037082100C400CA0122304F
:101A5000C9007930C8004A089031DE208B318E25CC
:101A60008B3137082100C807200038082100C93D04
:101A700049082000B800210048082000B7002100D4
:101A800046082000B90021003E082000BA002100CD
:101A90003F082000BB00210040082000BC00A32517
:101AA0008B31003A031D652D210048088600490846
:101AB000870042310108031D882D48088600490827
:101AC000870043310108031D882D2100440886004A
:101AD000450887004331010E0739A0004608A100E0
:101AE0003A08A2003B08A3003C08A4003D08A5005A
:101AF0003E08A6003F08A7004008A8004208AA0028
:101B00004108A9004308AB004A089031292000345D
:101B10000530CA0A4A020318FF34272DBB01BC0155
:101B2000371C962D3908BB073A08BC3DB935BA0DAC
:101B3000B836B70C37083804031D902D3C08B800A0
:101B40003B08B7000800A0303902031800343708FA
:101B50008600380887004231010B003437088600C0
:101B600038088700443101083906031D003437085E
:101B70008600380887004A3101083A06031D003400
:101B800037088600380887004B3101083B06031DE3
:101B9000003437088600380887004C3101083C06BD
:101BA000031901340034200044082100BA00200049
:101BB00043082100BB00200042082100BC00BD01F9
:101BC0006308BE00200050082100BF0020004F081D
:101BD0002100C000080003302000B7002300450E9C
:101BE00007390800A03E8600013087002300080066
:101BF0008700433101080F3920000800BC01BD01F6
:101C00003708380403191E2EBB01BB0AB81B0B2E64
:101C1000B735B80D052EBC35BD0D38083A02031D89
:101C2000132E37083902031C1A2E3708B902380858
:101C3000BA3B3C14B836B70CBB0B0B2E3D08B800B2
:101C40003C08B7000800230019082200BB003B082D
:101C500003192C2E1F30BB002D2EFF30BF0020009B
:101C6000A80122004408013ECB0005304B020318B6
:101C7000CB014B08C40022302000AC007930AB000F
:101C800022004B089F31D0278E319F319D278E3106
:101C900070082000AB077108AC3D2200CE01200087
:101CA0002B0886002C088700413101084906031DD6
:101CB000972E2B0886002C0887004231010B972EA7
:101CC0008A278E3122003B02031C972E20008A2790
:101CD0008E314802031C972EA9018A278E312902D2
:101CE0000318902E2908A100A2012B07A3002208A7
:101CF0002C3DA400230886002408870044310108F5
:101D0000A50056088C3EA6002330A701A73D260853
:101D100086002708870025088100D60AA90A6D2EAB
:101D20008A278E312200CE004B08BF009D2E200056
:101D30000530A80A2802031C312E01302000A10022
:101D4000490AA32EA135890BA22E2108220048059D
:101D50000319EB2E200090278E31A3008030230240
:101D6000031DB42E480821020318EB2E0130200079
:101D7000A100490ABC2EA135890BBB2E2108FF3AD0
:101D80002200C805200071278E3101308100D60A5B
:101D900071278E3102308100D60A71278E314408B6
:101DA0008100D60A71278E3143088100D60A712737
:101DB00042088100D60A56089F31EE278E318101F4
:101DC000D60A71278E3145088100D60A71278E31D7
:101DD0005C308100D60A2000AA012A085302031CA5
:101DE0005C2F2130AE00D930AD002A08A100A2013D
:101DF000A135A20DA135A20DA135A20D2108AD0777
:101E00002208AE3D2D0886002E08870047310108C4
:101E100003195A2F7C278E31010503195A2F902759
:101E20008E31803C031D162F21084802031C5C2FB5
:101E300020007C278E31FF3A810571278E310130D9
:101E40008100D60A71278E3102308100D60A2D0812
:101E500086002E08870001085E278E314131010877
:101E60005E278E31423101085E278E3143310108F1
:101E70000F395E278E31443101085E278E3145319E
:101E80000108A100A1352D0886002E0887004331E6
:101E9000010D010D01392107A20056088C3EA30057
:101EA0002330A401A43D23088600240887002208CB
:101EB0008100D60AAA0AED2E9E31572EA10056089F
:101EC0008C3EA2002330A301A33D220886002308F4
:101ED000870021088100D60A2D0886002E08870079
:101EE000080056088C3EA1002330A201A23D210823
:101EF00086002208870008002D0886002E0887002B
:101F000001304631A100490A862FA135890B852F62
:101F1000210808002B0886002C088700010808000B
:101F20005608083EA100003003180130A200803A94
:101F300008002000C00140085302031C08002130A3
:101F4000BF00D930BE004008BC00BD01BC35BD0D8E
:101F5000BC35BD0DBC35BD0D3C08BE073D08BF3DC1
:101F6000E3278F3101080319BC2FE3278F31810B41
:101F7000BC2F4008BE278F31C00A9B2FBB001430F6
:101F80003B02031808002130BA00D930B9003B08E1
:101F9000B700B801B735B80DB735B80DB735B80DBE
:101FA0003708B9073808BA3DD403390886003A081B
:101FB00087004731810153083B06031D08003B0899
:101FC000031DD30308003E0886003F088700473101
:101FD000080039082000AF001030B001AF35B00D57
:101FE0002F0784009830303D8500013F8A00003F74
:101FF0000A008F310800FF3FFF3FFF3FFF3FFF3FD9
:10200000FF3FFF3F200058102200C2011A2023008A
:102010001D12210091129231E42220001C08013887
:102020009C009C102F309B000C309B002200B501BF
:10203000B70108002000D601C701C8012B302200DB
:10204000BD000330B9002000D501FF302200BC00E4
:102050000800B30005303302031808002B08093EBE
:10206000AC00003003180130AD002D08803AAE00FE
:1020700080302E02031D3E281F302C02031808005A
:1020800022302100B6007930B5003308DE208D31D2
:102090008E25903137082100B5072000380821002F
:1020A000B63D3608B8003508B7000430B707031846
:1020B000B80A3508860036088700423181013508A4
:1020C000033ED5209031013081003508013ED520F6
:1020D000903120088100B901370886003808870050
:1020E00021088100B90A2B08033EAC003908AD0075
:1020F000AE013707AF002E08383DB0002F0886002C
:10210000300887002C08C62090312208C620903164
:102110002308C62090312408C62090312508C62007
:1021200090312608C62090312708C6209031280813
:102130008100B90AB4012B0834020318BA28340804
:10214000AC00AD01290786002D082A3D8700010853
:10215000AE003908AF00B0013707B1003008383D94
:10216000B20031088600320887002E088100B90AC3
:10217000B40A9B2835088600360887003908810094
:102180003508023ED5200130810008008100B90ADF
:102190003908AC00AD013707AE002D08383DAF005F
:1021A0002E0886002F0887000800AC000030363D5E
:1021B000AD002C0886002D08870008002000B7001D
:1021C0002330B801B900BA010800B0008321903172
:1021D000B100310FEC28FF342130B300D930B20008
:1021E00031082000BC00BD01BC35BD0DBC35BD0DA6
:1021F000BC35BD0D3C082100B20720003D08210080
:10220000B33D320886003308870030088100320869
:10221000013E2000BC000030AE2190312908810031
:102220003208023E2000BC000030AE2190312A0866
:102230008100B821903101082B06F0392B0681006E
:102240002C082000BC002100B82190312000BC0ED9
:1022500001083C068F393C06810021003208043E0B
:102260002000BC000030AE2190312D088100B82143
:1022700090312E0C031C8113031881173208063E7F
:102280002000BC0000302100333D2000BD003C0890
:1022900086003D0887007F3081005408093EBC005D
:1022A00021003208073E2000BD0000302100333DF0
:1022B0002000BE003D0886003E0887003C088100E3
:1022C00021003208053E2000BC000030AE219031D4
:1022D0002F0881002000D40A043021002F06031D9E
:1022E00076292B0B762901302200C7002100310806
:1022F0002000530203188029210031082000D30058
:10230000210031080800A00120082000B700D930C2
:10231000B801B735B80DB735B80DB735B80DB90038
:102320002130BA0037083907860038083A3D87005F
:10233000A1308400003085000830BB0016001A0070
:10234000BB0B9E2921002808031DA829200808008E
:102350001430A00A20020318FF3484292100333DE1
:102360002000BD003C0886003D08870021000800D1
:10237000320886003308870043310800D9308400D2
:10238000213085001730FE000230FF009C3181248F
:1023900091314230D8018400003085001630FE00B3
:1023A000FF019C318124913121002030E201E301C1
:1023B000E4018400013085002F30FE00FF019C31D4
:1023C00081249131CA308400013085001130FE0033
:1023D000FF019C318124913122000130EF007E10F9
:1023E0002000F22923302300DA002830D900783089
:1023F000210099002C309800532391312030200087
:10240000B7000030CD22913113082000C4002130E4
:10241000B7000030CD22913113082000C3002230D4
:10242000B7000030CD22913113082000C2002330C4
:10243000B7000030CD22913113082200AD002000FA
:1024400042080319272A42082100E0002A2A210015
:10245000E001E00AE10160082000CA007030B70026
:102460000030CD22913113082200B10071302000DC
:10247000B7000030CD22913113082200B200723033
:102480002000B7000030CD22913113082200B300A4
:1024900073302000B7000030CD22913113082200A4
:1024A000AE0074302000B7000030CD229131130807
:1024B0002200AF0075302000B7000030CD229131EE
:1024C00013082200B0001230210097000023913140
:1024D0002200C3007023913100303E23913123004C
:1024E0001D122100911223009E12D430EC22913152
:1024F0003230B7001430B800D43079239131200045
:10250000C230B701B801B9000B30BA000E239131C7
:10251000252391312200430803199A2A1630C60058
:1025200000308C23913116302200C6000030F72392
:102530009131010064001B3021009700E4229131A9
:102540000B178B178B1720001C0802389C001C08E7
:1025500001389C001B309B0028009501971417142C
:10256000171797161716971526309600171521007E
:1025700093142000950121009512951115159514BD
:1025800015108B168B2391312200EF01EF0A0E24D8
:102590009131502391316400C72AB80037082300D5
:1025A0009100200038082300920015139517151488
:1025B0000000000000000000640023001518DD2A60
:1025C000640023009513F32F20009A0178309B00BC
:1025D0001C152100911408002000B700860001306E
:1025E00087008101370A860081013708023E860094
:1025F000633081003708033E860001308101080006
:10260000B8302000B7000030CD22913114081308F3
:102610002000B900333A031901340034EA263A089D
:102620002200A100200039082200A0002000380864
:102630002200A300200037082200A2002B30BD009A
:102640000330B900FF30BC0008001E1021008E11BD
:102650008E1222008E168E15FF3028009D000C3041
:1026600025009300FF3091009E141E10200093114E
:1026700028009C019E141E141E1508002000B7009F
:10268000472B22000E10080022000E140800370805
:10269000003A0319412B013A0319442B4F2B080030
:1026A000EE279131EB2FFF308C008D0006308E002D
:1026B00029309D009E131E179E161E129E101E107E
:1026C00023008E1120008E118E1223008D120C110A
:1026D0000E138E130E1022000E138E130E1208000E
:1026E00023009D171E159F1503309B009C011E1291
:1026F0000800B900D1012100E4012000CE01390811
:102700002100E200200038082200A5002000370840
:102710002200A400080008002000BB00B830B70069
:10272000B801A223913120003B08B830B7003F30F8
:10273000B80003199F2B3330B9000030D02B003084
:10274000B901D02B163022004606031D08002000D8
:102750003708230091002000380823009200151349
:10276000951715161515C623913123001511640010
:102770002300151AB82B640023009518BC2B951361
:102780009201403091002200C601080055309600A9
:10279000AA30960095140000000000000000080018
:1027A000BA0023009517151515121513951620005C
:1027B00037082300910020003A08230092002000EF
:1027C0003908230093002000380823009400C62312
:1027D000913123009512C623913123001511640015
:1027E00023009518F02B640023009513F32F20008D
:1027F000BB00D030B700B801A223913120003B08C4
:10280000D030B7003F30B80003190A2C3B08B9009C
:102810000030D02B1130B9000030D02B6400B1252E
:1028200091316400083022003602031C1C2C8F31C9
:10283000992791312200B601222491316400F727B3
:10284000640008006F08031D08000B303802031CE9
:1028500008000D303802031C302C0E10B80108009F
:102860000E14080064002100630820004406031DC4
:102870004F2C50084306031D4F2C4F084206031DE2
:102880004F2C2100DB0120004E0821005B020318C1
:1028900008006208AA2691312100DB0A432C70301F
:1028A000210064020318B22C640BB32C15302000F5
:1028B0004D020318080002304E06031D08002100D7
:1028C0006208AA2691312100D9006208AA26913116
:1028D0002100DF0020004C082100DD00DF308600F1
:1028E000003087000108DC000130DC055F36DA00CB
:1028F000200050082100B40020004F082100B5003E
:1029000020004D08013E2100B6005D08B7005908BF
:10291000B8005C08B9005A08BA006308A7279131CB
:10292000DE005E0F942CB32C5E08D400DF30D5019E
:10293000D435D50DD435D50DD435D50DD6002130AF
:10294000D7005408560786005508573D87000130C8
:10295000D8005D0AAC2CD835890BAB2C5808FF3A4F
:102960008105B32CB6242200B80A08006208AA2602
:1029700091312200EC0021006208AA269131220048
:10298000ED0021006208AA2691312200EE0020000D
:102990004E08FD3E2200E50020005008BE004F0812
:1029A000BF00210063083A27913122006E08200001
:1029B0004206031D102D22006D0820004306031D52
:1029C000102D22006C0820004406031D102D22004B
:1029D0004A0803190A2DCA030A2D6208AA26913152
:1029E0002200E60021006208AA2691312200B400EC
:1029F00034080319080066082000C50008002200FA
:102A0000200821040319080021088A0020080A0070
:102A10009531080021006408703A0319ED2CFF2C51
:102A200022006D082000B70022006E082000B800C8
:102A300022006C08FA2691312200EA006A0A031982
:102A4000AC2D6A088F27913138082200E900200058
:102A500037082200E800A83021006406031D6B2D12
:102A600022006808073E2100D00000302200693DA6
:102A70002100D1005008860051088700FF308100F6
:102A800062088600013087000108D000D101620889
:102A9000053E8600403FD200413FD3005008520718
:102AA00086005108533D87000108031D692D200051
:102AB0004C082300CA0022006808860069088700C5
:102AC0004331010E07392300CB0002302000CB0038
:102AD0006B2DEA2691312200EB01E70165086702C0
:102AE0000318852D21006208AA2691312100D0000B
:102AF00022006B084F3E86000130870021005008FD
:102B000081002200EB0AE70A6E2D21006308BA005B
:102B1000200050082100BB0020004F082100BC000D
:102B200020004D08013E2100BD0022006C0821005C
:102B3000BE0022006D082100BF0022006E082100A7
:102B4000C0004F30C1000130C20022006B082100DC
:102B5000C30064088D31092522004A08031DCA03F9
:102B600008006F2E21006208AA269131CC000130A6
:102B7000D10006304C02031CC12DBF2DC12DDF2614
:102B800091316F2E21006208AA269131D2000230C5
:102B9000D10005305202031CD62DCF2DD62D520A5E
:102BA0000319D62DD42DD62DDF2691316F2E21007D
:102BB0006208AA2691312100E40003302000D100F0
:102BC0006F2E21006208AA269131CE000630D10076
:102BD0001F304E02031CF02DEE2DF02DDF2691311B
:102BE0006F2E21006208AA2691312100E3006208BD
:102BF000AA269131D00021006208AA269131CF0087
:102C00000430D1006F2E07302000D100210062086F
:102C1000AA269131CD006F2E05302000D100210071
:102C20006208043E860001308700810122002408EA
:102C300025040319272E1D2E272E25088A00240877
:102C40000A009631272E21006208AA269131210020
:102C50006208043E86000130870020004E08010211
:102C6000031C232E342E232E6F2E08302000D1007B
:102C70002100620886000130870001082000BD00A5
:102C8000BE0121006208053E8600403F2000BF00D3
:102C9000413FC0003D083F0786003E08403D870099
:102CA0000108C100410F5D2E562E5D2E21006208E5
:102CB000AA269131DF269131612EDF269131023033
:102CC000D1006F2EDF2691316F2E5108840008301D
:102CD00004020318622E983104351E3E8200210042
:102CE0006208860001308700433F2000B70051088A
:102CF000B800063038020318872E7F2E872E37083B
:102D0000031D832E852E0130A62E0030A62E063000
:102D10003806031D962E8D2E962E0330370203188B
:102D2000922E942E0130A62E0030A62E07303806A3
:102D3000031DA52E9C2EA52E4E0837020318A12E8A
:102D4000A32E0130A62E0030A62E0130003A031922
:102D50000800652E2000BC008B1386000130870020
:102D60000108B700B8013C08053E8600403FB900A5
:102D7000413FBA0037083907860038083A3D8700D6
:102D80000108BB003C08860001308700810A3C082E
:102D9000023E86003C089F31FA2791313C08031817
:102DA000D32E86008101033E860001308700810317
:102DB0003C08043E8600810A8B173B08080020006F
:102DC000D1012100E401E3012000D001CF01CE01B7
:102DD000CD0108002300CA010130CB000230CC0035
:102DE0000330CD000430CE000530CF000630200087
:102DF000CB0008002100A000A101210820005302FF
:102E0000031CFF34210021082000B900D930BA0189
:102E1000B935BA0DB935BA0DB935BA0DBB00213087
:102E2000BC0039083B0786003A083C3D8700A230C9
:102E30008400003085000830BD0016001A00BD0B6C
:102E40001D2F210022082006031D372F23082000F4
:102E50003706031D372F2100240820003806031DE4
:102E6000372F210029080319372F210808002100D6
:102E7000A10AFD2E2000C0003E08B7003F08B800A0
:102E80004008FA2691312000C100410A03190800C8
:102E90005408093E2100AA00003003180130AB009D
:102EA000200041082100AC00E030AD01AC35AD0D93
:102EB000AC35AD0DAC35AD0DAE002130AF002C08FA
:102EC0002E0786002D082F3D87002B08803A803C76
:102ED000031D6C2F2A080102031808002000540863
:102EE000093E2100AA00200041082100AB00E0308B
:102EF000AC01AB35AC0DAB35AC0DAB35AC0DAD00AD
:102F00002130AE002B082D07AF002C082E3DB0005D
:102F10002F088600300887002A088100080020005A
:102F2000BA002130BC00D930BB003A08B800B90162
:102F3000B835B90DB835B90DB835B90D3808BB0776
:102F40003908BC3D3C08B8003B08B7000800BC008D
:102F500034082000B700210035082000B800210007
:102F60003C08FA2691312100BB003B0FC82F3408E2
:102F7000A9003508AA003608AB003708AC003808AD
:102F8000AD003908AE003A08AF003C089031E528A2
:102F90003C082000B700210034082000B8002100C0
:102FA00035082000B900210036082000BA002100B1
:102FB00037082000BB00210038082000BC00210099
:102FC00039082000BD0021003A082000BE00210081
:102FD0003B089D31282D45089C31A52C8B310F23B2
:102FE0002000C50008009201403091000800200038
:102FF000D81C08002300D201D3012000D8100800FB
:10300000003407340E3409341C341B3412341534A4
:1030100038343F3436343134243423342A342D3494
:1030200004341D34BC341D34D4341D3476341C3483
:1030300023340E34F0341D34003400349531B22D75
:103040009531C22D9531D72D9531E12D9631032E35
:103050009631352E9531F12D96310C2EFF3FFF3FE5
:1038E000FF3FFF3FFF3FFF3FFF3FFF3F2300190820
:1038F0002000C80065304802031C04346430C8004E
:1039000004346400013080010131FE020030FF3BCD
:103910007F087E0403190034822CF2000830F30083
:10392000F4017208F1000730F136890B942C7435DC
:103930007104F400F23570087402031CA12C7008A5
:10394000F402F30B912C74080800B7001130370211
:103950000318B32C22008E1DB02C25009301080003
:103960002500910108000C302500930022008E1DD7
:10397000BE2C2000370925009100080020003708E0
:10398000250091000800F1002000C900711CCB2C1B
:1039900022000E17CD2C22000E137108F000F03615
:1039A000701CD52C22008E17D72C22008E13710884
:1039B000F000F036F036701CE02C22000E160800E5
:1039C00022000E1208004A08F0000430F036890B7D
:1039D000E62C4A08F100F136F136F1364A08F200D9
:1039E000F236F2367208710670064A06F3000130AC
:1039F000F3057308F0000730F035890BFC2C4A36CC
:103A00007004CA004A080800230019082000C700F3
:103A100023005708643C2200CC0004304C020318F9
:103A2000142DF001F1011B2D4C08F000FD30F101C7
:103A3000F007031CF1037008CC006530200047023A
:103A400003180634470822004C02031C06340134D4
:103A5000A0002130A200D930A10020082000BF0022
:103A6000C001BF35C00DBF35C00DBF35C00D3F080B
:103A70002100A107200040082100A23D2108860066
:103A800022088D31F8259D31BF003A083F02031C02
:103A9000A22DB5259D31010820003A06F0393A06DD
:103AA00081003B08BF00B5259D312000BF0E0108F5
:103AB0003F068F393F06810021002108043E200087
:103AC000BF00AB259D313C08810021002108053E47
:103AD0002000BF00AB259D313E0881002100210858
:103AE000063E2000BF00AB259D317F308100540889
:103AF000093EBF00003003180130C000210021083A
:103B0000860022088700473120004008803A803C28
:103B1000031D8C2D3F0801020318A22D200054081C
:103B2000093EBF0021002108073E2000C0000030F0
:103B30002100223D2000C100400886004108870086
:103B40003F08810020003D080319A82DB5258117E5
:103B500021002008080000302100223D2000C00084
:103B60003F088600400887000800210021088600E1
:103B70002208870043310800230019082000D700DD
:103B80004708031DC42DA82E5708031902341F30FF
:103B900057020318063457084702031C0634220054
:103BA000CA0A0130BE00023455088C3EA4002330FE
:103BB000A501A53D240886002508870023001908D3
:103BC00081002000D50A4708013EA40000300318F8
:103BD0000130A500550824062504031D0234A82E33
:103BE000230019082000A100210B062E22003F0A05
:103BF0000319FD2D3F0880279D312000D6012A3072
:103C000022003D0603190634BA010D2E2200BA0A1D
:103C100006303A0203180634572ED6279D3157082E
:103C2000643C2200CD0004304D0203181A2EF80126
:103C3000F901212E4D08F800FD30F901F807031CA9
:103C4000F9037808CD004D089E269D31FF30FA011A
:103C50002200BC001F304D02031C482EFB017B08D4
:103C6000D0279D319D279D317B30DD279D31031D60
:103C7000432E7B08D0279D319D279D317C30DD2749
:103C80009D310319FA0A0530FB0A7B02031C2F2E13
:103C90002200BE017A084A020318512E4A08FA028D
:103CA000522EFA017A089E269D317A270034200090
:103CB000C601D6279D31200056089E269D31200042
:103CC00056080319732E5630F0000030E8279D3156
:103CD0004E279D31C6004E30F0000130E8279D315F
:103CE0004E279D31C60022004E089E269D312000A1
:103CF000A001560820020318942E20088C3EFC00D8
:103D00002330FD01FD3D7C08F0007D08E8279D3152
:103D10004E279D31C6002008EE279D3101089E26C2
:103D20009D312000A00A792E560803199C2E4608C2
:103D3000C60046089E269D317A270534F0002000F3
:103D4000111E9F2E700823009A009E180800A52EB1
:103D5000D6279D31200047080319132F5508A000CE
:103D60008B30A101A2002330A30020082207860087
:103D70002108233D87000108FC00D503C60155300A
:103D8000F0000030E8279D314E279D31C6005730A6
:103D9000F0000030E8279D314E279D31C6008C3061
:103DA000F0002330F1005508F200F30146084E27D9
:103DB0009D31C6004608C600D6279D317C082000EC
:103DC00046060319F32E00309E269D317A279D3139
:103DD0002000D5012200BA0A06303A02031C003442
:103DE0003E08CA0206344908F000D4301F279D312E
:103DF00022003C08F000D4301F279D31FD01200037
:103E000047087D0203180E2F7D08EE279D3101081B
:103E1000F000D4301F279D31FD0AFF2EFF30F00047
:103E2000D4301F279D3101309E269D317A279D3148
:103E30002A3022003D06031D0634BA010334F70080
:103E4000770A8600013087000108F100F201770847
:103E5000053E8600403FF300413FF40071087307C0
:103E6000F5007208743DF600750886007608870034
:103E700070088100770AF4279D31023E8600770A98
:103E8000FA279D310318472F770A860081017708AA
:103E9000033EF427033E860001080800FB0071087A
:103EA000F8007008F7000130F2020030F33B720FA7
:103EB0005C2F730A0319782F77088600780887002B
:103EC0000108F4000430F436890B632F7B0E0F39A0
:103ED0007406B2279D3177088600780887007B0E2C
:103EE0000F390106B2279D31F70A0319F80A532F3B
:103EF0007B08080023009E121D1621009116080061
:103F0000F80005307802031808007808D0279D31A2
:103F10009D279D317B30C5279D317808D0279D3165
:103F20009D279D317C30C5279D317808D0279D3154
:103F30009D279D317930C5270800F401F501701CDB
:103F4000A52F7208F4077308F53DF235F30DF1362D
:103F5000F00C70087104031D9F2F7508F1007408A0
:103F6000F0000800F9000F30FA017905F400003084
:103F7000F501740784009830753D85000008F6004F
:103F80007B0EF0397606FB000800F6002230F700C1
:103F90007008760786007108773D87008101080068
:103FA000F0002330F101F200F301080023001D129C
:103FB0002100911223009E160800F6002230F7001F
:103FC0007008760786007108773D870001080800B1
:103FD000F100F201F20AF301460808008C3E860067
:103FE00023308701873D0800860001308700810A61
:103FF00077080800840001308500000801020800ED
:020000040001F9
:04000E00CCCFFFFF55
:00000001FF
