:101370008B31352BFF3FFF3F7E1489312000911EBA
:10138000F32922004108031DC72920001C11210058
:101390009110003023001D1901302000B6003603E3
:1013A0000319D52923009D1CDA29230019082000E0
:1013B000B400E329210091102200C10A90317C2061
:1013C00089312200B7000630220037060319EB29C5
:1013D0002000360BEF298F31BC278931F3292200F9
:1013E000B501200058142700131D092A8B11111173
:1013F00021000C0804388C002A302200BB009B31ED
:10140000E42389312200B700B501200058142700D9
:10141000131120009118A32AB12A23001D122100C4
:10142000911223009D139D1722003E08A800200062
:10143000B5011B2AB50A4D08FF3EB100FF30031865
:101440000030B200803A803C031D282A3108350262
:101450000318472A2200A80A20004D08220028026B
:101460000318A8012808CA3E860001308700010839
:101470008F31E02789312808BE0020008D1A1A2AF2
:101480008B152700111520001C112100911001302F
:101490002200B30020009A019B00AF2A20004B08D5
:1014A000CA3E86000130870001088F31E02789316C
:1014B00020004B082200BE0020008D1A672A8B15E1
:1014C0002700111520001C1121009110AF2A2100C6
:1014D0008D1220008D1202302200B30020001C0863
:1014E00002389C001C0801389C0022002A08223E79
:1014F0002000B3009B009031BF2089312200A90059
:101500000C30F000290890318E208931AA0020008B
:101510004D08F0002200290890318E2089312000EA
:10152000CB00AF2A21000D0820388D009D314625C3
:10153000893120001C0801389C009C105F309B0002
:101540002200B301AF2A22003308003A03190D2A02
:10155000013A03194E2A033A0319922AAF2A2000AE
:101560009110931CE12A2300D40A0319D50A220002
:101570006F0BDF2A230053082000B200230052081B
:101580002000B1002300D20A0319D30A0030200042
:101590003202103003193102031CDF2A2300D2016A
:1015A000D30122000730C40A44020318DA2A0130AA
:1015B0008E06DF2A0E100B3044020318EF012000C4
:1015C0009310111C082B1110C83025001106031DA3
:1015D000EB2A6430EC2AC830910022004008200039
:1015E000970022003F0820009600C50A7F3045067C
:1015F000031D002B3030250098002000C501082B6A
:10160000450822004606031D082BDF302500980000
:101610000B1D332B2200B40A2000581C202B033052
:1016200022003502031C202B3C0803191C2B4A08FE
:1016300003191C2BCA03BC018F31BC278931252B10
:101640002000581C252B2200B50A22004908C90A8F
:101650002000B10009303102031C322B2200C901E5
:101660007F30C8000B117E1009009131C029220083
:10167000320803193E2B2000460808002100A00173
:10168000A101A301A401240820005302031C942BF0
:1016900022302100A6003D30A50024082000BF0014
:1016A000C001BF35C00DBF35C00DBF35C00D3F08EF
:1016B0002100A507200040082100A63D250886003E
:1016C00026088700473101080319922B1B268B310E
:1016D000811F922B1B268B3101080F392000B70088
:1016E0000C30B801B900BA01A7238B3137082100AB
:1016F000A200250886002608870044310108200042
:10170000B700B801210022082000B900BA01B525B0
:101710008B3137082100A007200038082100A13DA7
:101720002208A307A40A432B21002308031900342D
:1017300023082000B700B801210021082000BA00CA
:10174000210020082000B900212637080800BC012C
:10175000B81FB12BB709B809B70A0319B80ABC01F9
:10176000BC0ABA1FBA2BB909BA09B90A0319BA0ACD
:101770000130BC06BD01BE01370838040319DA2B5D
:10178000BB01BB0AB81BC72BB735B80DC12BBD3584
:10179000BE0D38083A02031DCF2B37083902031C4F
:1017A000D62B3708B9023808BA3B3D14B836B70C07
:1017B000BB0BC72B3C080319E22BBD09BE09BD0AB0
:1017C0000319BE0A3E08B8003D08B7000800A8305B
:1017D00021006406031D672C6008963125268B3195
:1017E0002300C0004008031D08008B1127001111C1
:1017F00021000C0804388C00200095018B121C116C
:1018000021009110280095011711210093100B134E
:101810008B1323009D139D179E121D122100911200
:10182000123097002500930120000E0808388E0022
:101830000E0820388E00FF302500910021009D0108
:101840002700131120009310911093110B138B1389
:1018500023009D138B13210063082000B700003084
:1018600006258B319518322C210062082000B70024
:10187000013006258B3195183B2C21006108200092
:10188000B700023006258B319518442C20004E08F5
:10189000B700033006258B3195184C2C8B1316306E
:1018A0002200C500013093319A238B319518562CB4
:1018B0008B1316302200C5000330943105248B3180
:1018C0009518602C8B13640001006400652CA03017
:1018D0006406031D992C22002F082300B300220068
:1018E00030082300B400220031082300B500220094
:1018F0002C082300B60022002D082300B700220088
:101900002E082300B8000430B9000330BA00BB0130
:1019100022002B082300BC00BD01BD0ABE01FA2530
:101920008B31B330C1000130C2000C30C300A13094
:10193000302DA2306406031D08002300BF01C10141
:10194000410820005302031CF92C23004108210008
:10195000CB003D30CC01CB35CC0DCB35CC0DCB35D0
:10196000CC0DCD002230CE004B084D0786004C0830
:101970004E3D8700C2308400013085000830CF0022
:1019800016001A00CF0BC02C230049080319F72CAE
:1019900045080F39013A031DF72C01302100CB0017
:1019A0002300450E0739890A2100D72CCB35890B36
:1019B000D62C4B082300BF040E268B3123258B31F8
:1019C000013E15268B31420881000E268B312325DE
:1019D0008B31023E15268B31430881000E268B3158
:1019E00023258B31033E15268B3144088100C10A23
:1019F000A02C23003F08A000FA258B31A030C100A5
:101A00000130C2001330C300A330302DB8002300D2
:101A10009518072D2000380823009100920120001E
:101A20003708230093003F30950503108B1B0314E8
:101A30008B13151555309600AA3096009514151184
:101A400003188B1708002000B900B80137083918AF
:101A5000B807B735B9363908031D262D38080800F0
:101A6000C6003F082000B700210040082000B80051
:101A700021003E0896316D268B312100C700470AB0
:101A80000319FE344708973102278B3138082100AB
:101A9000C500200037082100C400CA012230C90057
:101AA000DD30C8004A089131B9218B31B5258B3121
:101AB00037082100C807200038082100C93D49081F
:101AC0002000B800210048082000B7002100460887
:101AD0002000B90021003E082000BA0021003F0884
:101AE0002000BB00210040082000BC00CA258B312B
:101AF000003A031D8C2D2100480886004908870004
:101B000042310108031DAF2D4808860049088700AF
:101B100043310108031DAF2D21004408860045080C
:101B200087004331010E0739A0004608A1003A089A
:101B3000A2003B08A3003C08A4003D08A5003E0805
:101B4000A6003F08A7004008A8004208AA004108D4
:101B5000A9004308AB004A08913104210034053044
:101B6000CA0A4A020318FF344E2DBB01BC01371CC0
:101B7000BD2D3908BB073A08BC3DB935BA0DB8369A
:101B8000B70C37083804031DB72D3C08B8003B08D4
:101B9000B7000800A0303902031800343708860067
:101BA000380887004231010B0034370886003808B6
:101BB0008700443101083906031D003437088600C8
:101BC000380887004A3101083A06031D00343708F7
:101BD0008600380887004B3101083B06031D00349E
:101BE00037088600380887004C3101083C06031985
:101BF00001340034200044082100BA0020004308CA
:101C00002100BB00200042082100BC00BD01630888
:101C1000BE006208BF006108C00008000330200059
:101C2000B7002300450E07390800A03E86000130AA
:101C30008700230008002508860026088700433116
:101C40000800BC01BD01370838040319412EBB014F
:101C5000BB0AB81B2E2EB735B80D282EBC35BD0DCE
:101C600038083A02031D362E37083902031C3D2E70
:101C70003708B9023808BA3B3C14B836B70CBB0B6E
:101C80002E2E3D08B8003C08B700080023001908B4
:101C90002200B900390803194F2E1F30B900502E09
:101CA000FF30BD002000A80122004308013ECB0008
:101CB00005304B020318CB014B08C3002230200033
:101CC000AC00DD30AB0022004B089D319C258E31ED
:101CD0009D3169258E3170082000AB077108AC3D3D
:101CE0002200CE0120002B0886002C0887004131FD
:101CF00001084A06031DBA2E2B0886002C0887000F
:101D00004231010BBA2EB6278E3122003902031C54
:101D1000BA2E2000B6278E314902031CBA2EA90123
:101D2000B6278E3129020318B32E2908A100A2017B
:101D30002B07A30022082C3DA400230886002408BA
:101D4000870044310108A50056088C3EA6002330C8
:101D5000A701A73D260886002708870025088100DF
:101D6000D60AA90A902EB6278E312200CE004B0843
:101D7000BD00C02E20000530A80A2802031C542EE6
:101D800001302000A1004A0AC62EA135890BC52EBC
:101D900021082200480503190E2F2000AD278E319F
:101DA000A30080302302031DD72E49082102031807
:101DB0000E2F01302000A1004A0ADF2EA135890B29
:101DC000DE2E2108FF3A2200C805200094278E311C
:101DD00001308100D60A94278E3102308100D60A64
:101DE00094278E3144088100D60A94278E31430807
:101DF0008100D60A942742088100D60A56089D31F0
:101E0000BA258E318101D60A94278E314608810089
:101E1000D60A94278E315E308100D60A2000AA01AE
:101E20002A085302031C7F2F2230AE003D30AD0044
:101E30002A08A100A201A135A20DA135A20DA1354C
:101E4000A20D2108AD072208AE3D2D0886002E0800
:101E500087004731010803197D2F9F278E31010527
:101E600003197D2FAD278E31803C031D392F2108AA
:101E70004902031C7F2F20009F278E31FF3A8105E6
:101E800094278E3101308100D60A94278E3102309A
:101E90008100D60A2D0886002E08870001088127B8
:101EA0008E314131010881278E314231010881276D
:101EB0008E31433101080F3981278E3144310108B9
:101EC00081278E3145310108A100A1352D088600FA
:101ED0002E0887004331010D010D01392107A200B1
:101EE00056088C3EA3002330A401A43D230886009D
:101EF0002408870022088100D60AAA0A102F9C31E4
:101F00002E2CA10056088C3EA2002330A301A33D35
:101F1000220886002308870021088100D60A2D08A0
:101F200086002E088700080056088C3EA10023304A
:101F3000A201A23D210886002208870008002D0882
:101F400086002E08870001304631A1004A0AA92FD9
:101F5000A135890BA82F210808005608083EA100CA
:101F6000003003180130A200803A08002B088600D8
:101F70002C08870001080800200058102200C10129
:101F8000D42723001D12210091129231F02220004B
:101F90001C0801389C009C105F309B0019309B008E
:101FA0002200B301B50108002000D601C801C90113
:101FB0009731F6272000D501FF302200BA00080033
:101FC000F1002000CA00711CE82F22000E17EA2F32
:101FD00022000E137108F000F036701CF22F220060
:101FE0008E17F42F22008E137108F000F036F036B1
:101FF000701CFD2F22000E16080022000E12080091
:102000009531322D9531422D9531572D9531612DD8
:102010009531852D9531B72D9531712D95318E2DB9
:1020C000FF3FFF3FFF3FFF3FFF3F23001908200076
:1020D000C90065304902031C04346430C90004346B
:1020E0006400013080010131FE020030FF3B7F08B7
:1020F0007E0403190034712837082000AF0028300F
:10210000B001AF35B00D2F0784009830303D850009
:10211000013F8A00003F0A0090310800F2000830B9
:10212000F300F4017208F1000730F136890B9528AD
:1021300074357104F400F23570087402031CA2288F
:102140007008F402F30B9228740808002000B9000C
:102150000830BA00BB013908B8000730B836890B1F
:10216000AE283B353804BB00B93537083B02031CA9
:10217000BB283708BB02BA0BAB283B0808004C0849
:10218000F0000430F036890BC2284C08F100F1361B
:10219000F136F1364C08F200F236F236720871066A
:1021A00070064C06F3000130F3057308F0000730A9
:1021B000F035890BD8284C367004CC004C08080048
:1021C000230019082000C800230059084B3C2200B6
:1021D000CC0004304C020318F028F001F101F7287C
:1021E0004C08F000FD30F101F007031CF10370080A
:1021F000CC0065302000480203180634480822004D
:102200004C02031C06340134B300053033020318BA
:1022100008002B08093EAC00003003180130AD0067
:102220002D08803AAE0080302E02031D19291F3080
:102230002C020318080022302100B600DD30B50062
:102240003308B9218D31B525913137082100B50703
:10225000200038082100B63D3608B8003508B70020
:102260000430B7070318B80A350886003608870017
:10227000423181013508033EB021913101308100A6
:102280003508013EB021913120088100B90137089D
:1022900086003808870021088100B90A2B08033E10
:1022A000AC003908AD00AE013707AF002E08383D4D
:1022B000B0002F088600300887002C08A12191313A
:1022C0002208A12191312308A12191312408A121C3
:1022D00091312508A12191312608A12191312708AA
:1022E000A121913128088100B90AB4012B083402D8
:1022F000031895293408AC00AD01290786002D0884
:102300002A3D87000108AE003908AF00B001370749
:10231000B1003008383DB20031088600320887002D
:102320002E088100B90AB40A7629350886003608D5
:102330008700390881003508023EB0210130810054
:1023400008008100B90A3908AC00AD013707AE00BA
:102350002D08383DAF002E0886002F0887000800A2
:10236000AC000030363DAD002C0886002D088700FB
:1023700008002000B7002330B801B900BA010800F6
:102380003D30840022308500B330FE000130FF0074
:102390009031702091314230D801840000308500A6
:1023A0001630FE00FF019031702091312100203065
:1023B000E001E101E201E301E40184000130850074
:1023C0002F30FE00FF01903170209131CA3084001F
:1023D000013085001230FE00FF01903170209131F4
:1023E00020308400023085004B30FE00FF01903128
:1023F0007020913122000130EF007E102000002A71
:1024000020302300DB007030210099002C30980030
:102410006123913120302000B7000030D922913162
:1024200013082000C4002130B7000030D9229131B8
:1024300013082000C3002230B7000030D9229131A8
:1024400013082000C2002330B7000030D922913198
:1024500013082200AB00200042080319332A420867
:102460002100DE00362A2100DE01DE0ADF015E08DF
:102470002000CC007030B7000030D9229131130811
:102480002200AF0071302000B7000030D922913116
:1024900013082200B00072302000B7000030D922AB
:1024A000913113082200B10073302000B7000030D2
:1024B000D922913113082200AC0074302000B700FB
:1024C0000030D922913113082200AD007530200070
:1024D000B7000030D922913113082200AE0012302B
:1024E000210097000C2391312200C2007E239131FC
:1024F00000304C23913123001D1221009112230042
:102500009E12D630F8229131C630B7001D30B80087
:10251000D630872391312000E730B701B801B900E8
:102520000B30BA001A2391312F2391312200420837
:102530000319A62A1630C50000309A2391311630AF
:102540002200C500003005249131010064001B30D9
:1025500021009700F02291310B178B178B17200069
:102560001C0802389C001C0801389C0037309B0076
:102570002800950197141714171797161716971513
:102580004C3096001715210093142000950121006E
:10259000951295111515951415148B1699239131D3
:1025A0002200EF01EF0A1C2491315E239131640077
:1025B000D32AB800370823009100200038082300F0
:1025C000920015139517151400000000000000007C
:1025D000640023001518E92A640023009513FC2FDA
:1025E00020009A01FA309B001C152100911408006C
:1025F0002000B7008600013087008101370A86007D
:1026000081013708023E86004A3081003708033EC8
:102610008600013081010800B8302000B70000308A
:10262000D9229131140813082000B900333A031954
:10263000013400345D2691313A082200A1002000C7
:1026400039082200A000200038082300D100200013
:1026500037082300D000F627FF30BA000800210019
:102660000E0820388E000E0808388E00FF30280033
:102670009D002500931513159A151A159E149E1585
:1026800028001E1521008E128E1120001814210022
:1026900011142500980108002000B700552B2200D6
:1026A0000E10080022000E1408003708003A031923
:1026B0004F2B013A0319522B5D2B080066279131ED
:1026C000642FFF308C008D0006308E0029309D0075
:1026D0009E131E179E161E129E101E1023008E1192
:1026E00020008E118E1223008D120C110E138E13EA
:1026F0000E1022000E138E130E12080023009D17D9
:102700001E159F1507309B009C011E120800B90082
:10271000D1012100E4012000D00139082100E000AE
:10272000200038082200A300200037082200A20061
:10273000080008002000BB00B830B700B801B02383
:10274000913120003B08B830B7003F30B800031982
:10275000AD2B3330B9000030DE2B0030B901DE2B59
:10276000163022004506031D08002000370823000C
:1027700091002000380823009200151395171516B4
:102780001515D42391312300151164002300151A67
:10279000C62B640023009518CA2B95139201403074
:1027A00091002200C501080055309600AA3096001D
:1027B000951400000000000000000800BA0023008B
:1027C00095171515151215139516200037082300B7
:1027D000910020003A0823009200200039082300CD
:1027E00093002000380823009400D4239131230063
:1027F0009512D423913123001511640023009518FC
:10280000FE2B640023009513FC2F2000BB00D0306A
:10281000B700B801B023913120003B08D030B70099
:102820003F30B8000319182C3B08B9000030DE2BEC
:102830001130B9000030DE2B640031259131640085
:10284000083022003402031C292C1A27913122005F
:10285000B4012F2491316400E127640008006F085F
:10286000031D08000B303602031C08000D30360231
:10287000031C3D2C0E10B60108000E140800600861
:10288000252691312200EC00210060082526913197
:102890002200ED0021006008252691312200EE0083
:1028A00020005008FD3E2200E500210062082000C3
:1028B000BE00210061082000BF0021006308AD2692
:1028C000913122006E0820004206031D9C2C22003C
:1028D0006D0820004306031D9C2C22006C0820007C
:1028E0004406031D9C2C22004A080319962CCA0397
:1028F000962C6008252691312200E6002100600810
:10290000252691312200B20032080319080066081A
:102910002000C60008002200200821040319080036
:1029200021088A0020080A00943108002100640868
:10293000703A0319792C8B2C22006D082000B70007
:1029400022006E082000B80022006C086D2691312C
:102950002200EA006A0A03192C2D6A080227913125
:1029600038082200E900200037082200E800A830DB
:1029700021006406031DEF2C22006808073E210099
:10298000D00000302200693D2100D10050088600AF
:1029900051088700FF3081006008053E8600013045
:1029A00087006008EA279131D00086000230870056
:1029B0000108031DED2C20004E082300CA00220050
:1029C00068088600690887004331010E0739230033
:1029D000CB0002302000CD00EF2C5D26913122008B
:1029E000EB01E701650867020318092D2100600863
:1029F000252691312100D00022006B084F3E860031
:102A0000013087002100500881002200EB0AE70A0C
:102A1000F22C21006308BA006208BB006108BC0008
:102A200020004F08013E2100BD0022006C0821005B
:102A3000BE0022006D082100BF0022006E082100A8
:102A4000C0004F30C1000130C20022006B082100DD
:102A5000C30064088D31302522004A08031DCA03D3
:102A60000800EA2D2100600825269131CE000130B2
:102A7000D10006304E02031C412D3F2D412D522620
:102A80009131EA2D2100600825269131D2000230D3
:102A9000D10005305202031C562D4F2D562D520ADF
:102AA0000319562D542D562D52269131EA2D210011
:102AB0006008252691312100E40003302000D10078
:102AC000EA2D2100600825269131D0000630D10082
:102AD0001F305002031C702D6E2D702D5226913127
:102AE000EA2D21006008252691312100E3006008CD
:102AF000252691312100E200600825269131210030
:102B0000E10004302000D100EA2D07302000D10080
:102B10002100600825269131CF00EA2D05302000E4
:102B2000D10021006008043E860001308700810149
:102B30002200220823040319A92D9F2DA92D230863
:102B40008A0022080A009531A92D21006008252657
:102B5000913121006008043E86000130870020008A
:102B600050080102031CA52DB62DA52DEA2D083015
:102B70002000D10021006008053E8600013087005A
:102B80006008840001308500000801072000BA00B9
:102B90008600023087000108BB003B0FD82DD12DE5
:102BA000D82D210060082526913152269131DC2D47
:102BB000522691310230D100EA2D52269131EA2D70
:102BC00051088400083004020318DD2D90310435CB
:102BD000003E820021006008860001308700433FEC
:102BE0002000B7005108B800063038020318022E42
:102BF000FA2D022E3708031DFE2D002E0130212E46
:102C00000030212E06303806031D112E082E112EFD
:102C10000330370203180D2E0F2E0130212E003005
:102C2000212E07303806031D202E172E202E500887
:102C3000370203181C2E1E2E0130212E0030212EAB
:102C40000130003A03190800E02D2000B9008B1371
:102C5000053E8600013087003908EA279131B70028
:102C60008600023087000108B8003908860001306C
:102C70008700810A3908023E86003908840000086E
:102C8000010239080318462E86008101033E8600A2
:102C90000130870081033908043E8600810A8B17C2
:102CA000380808002000D1012100E401E301E2011D
:102CB000E1012000D001CF0108002300CA0101304A
:102CC000CB000230CC000330CD000430CE00053004
:102CD000CF0006302000CD0008002100A000A10197
:102CE000210820005302031CFF342100210820008A
:102CF000B9003D30BA01B935BA0DB935BA0DB9359B
:102D0000BA0DBB002230BC0039083B0786003A08E8
:102D10003C3D8700A2308400003085000830BD00B3
:102D200016001A00BD0B902E210022082006031D5C
:102D3000AA2E230820003706031DAA2E21002408EE
:102D400020003806031DAA2E210029080319AA2EE7
:102D5000210808002100A10A702E2000C0003E08B2
:102D6000B7003F08B80040086D2691312000C1002F
:102D7000410A031908005408093E2100AA00003046
:102D800003180130AB00200041082100AC004430A2
:102D9000AD01AC35AD0DAC35AD0DAC35AD0DAE0006
:102DA0002230AF002C082E0786002D082F3D87000B
:102DB0002B08803A803C031DDF2E2A0801020318ED
:102DC000080020005408093E2100AA002000410804
:102DD0002100AB004430AC01AB35AC0DAB35AC0DD4
:102DE000AB35AC0DAD002230AE002B082D07AF0087
:102DF0002C082E3DB0002F088600300887002A08D6
:102E0000810008002000BA002230BC003D30BB0029
:102E10003A08B800B901B835B90DB835B90DB835AB
:102E2000B90D3808BB073908BC3D3C08B8003B0861
:102E3000B70008002000C00140085302031C08002E
:102E40002230BF003D30BE004008BC00BD01BC3593
:102E5000BD0DBC35BD0DBC35BD0D3C08BE073D08E4
:102E6000BF3DF0279131010803193D2FF027913123
:102E7000810B3D2F40083F279131C00A1C2FBB001A
:102E800014303B02031808002230BA003D30B9006C
:102E90003B08B700B801B735B80DB735B80DB73531
:102EA000B80D3708B9073808BA3DD4033908860089
:102EB0003A0887004731810153083B06031D08008B
:102EC0003B08031DD303080046086B2F8B313723C3
:102ED0002000C6000800C100083041020318742F0A
:102EE0007F302200C600080064302200C6002000A7
:102EF0004108F83EBE00FF3003180030BF003F0D10
:102F0000BF0CBE0C3F0DBF0CBE0C3F0DBF0CBE0C6A
:102F10003E08143EC0008C2F2100A6003C30260243
:102F2000031C942F3B30A6000C302000B70021007A
:102F30002608C8272100A0000C302000B70021007F
:102F400026089031A62091312100A1002000BC006C
:102F50000030BD01BC35BD0D3C07840098303D3DBF
:102F60008500003F2100A200013FA300200ABA2FE4
:102F7000A336A20C890BB82F2209A4002309A500AF
:102F800025082200C000210024082200BF000800FC
:102F90002000B800BA0137080319DF2FB901B90AB8
:102FA000B71BD42FB735CF2FBA3537083802031CDB
:102FB000DC2F3708B8023A14B736B90BD42F3A08C9
:102FC00008002000D81C08002300D401D5012000EF
:102FD000D8100800840001308500000801070800AF
:102FE0003E0886003F088700473108002B3022004A
:102FF000BB000330B7000800920140309100080088
:10300000E434EE347B34E134D434D434E234C834A0
:103010009C34BD34F734B234EC34A83470349F346B
:103020007D3496340C348E34133486348D347E34AF
:10303000003407340E3409341C341B341234153474
:1030400038343F3436343134243423342A342D3464
:10305000E034103493341B34AB341B3465341034F7
:1030600046340E34C7341B3400340034FF3FFF3F76
:10372000FF3FFF3FFF3F230019082000D700480854
:10373000031D9B2B7F2C5708031902341F3057029F
:103740000318063457084802031C06342200CA0A2C
:103750000130BC00023455088C3EA4002330A50182
:10376000A53D24088600250887002300190881004C
:103770002000D50A4808013EA4000030031801309B
:10378000A500550824062504031D02347F2C2300C0
:1037900019082000A100210BDD2B22003D0A03198E
:1037A000D42B3D084C259B312000D6012A30220025
:1037B0003B0603190634B801E42B2200B80A063090
:1037C0003802031806342E2CA2259B3159084B3C95
:1037D0002200CD0004304D020318F12BF801F9014D
:1037E000F82B4D08F800FD30F901F807031CF90328
:1037F0007808CD004D0875249B31FF30FA01220076
:10380000BA001F304D02031C1F2CFB017B089C25B6
:103810009B3169259B31DF30A9259B31031D1A2C73
:103820007B089C259B3169259B31E030A9259B3184
:103830000319FA0A0530FB0A7B02031C062C22003E
:10384000BC017A084A020318282C4A08FA02292CDB
:10385000FA017A0875249B31462500342000C701FF
:10386000A2259B312000560875249B312000560864
:1038700003194A2C5630F0000030B4259B311A252C
:103880009B31C7004E30F0000130B4259B311A2522
:103890009B31C70022004E0875249B312000A001F7
:1038A0005608200203186B2C20088C3EFC002330A5
:1038B000FD01FD3D7C08F0007D08B4259B311A25F3
:1038C0009B31C7002008BA259B31010875249B3124
:1038D0002000A00A502C56080319732C4708C70073
:1038E000470875249B3146250534F0002000111E41
:1038F000762C700823009A009E1808007C2CA225C4
:103900009B31200048080319EA2C5508A0008B3091
:10391000A101A2002330A30020082207860021086D
:10392000233D87000108FC00D503C7015530F00096
:103930000030B4259B311A259B31C7005730F00069
:103940000030B4259B311A259B31C7008C30F00024
:103950002330F1005508F200F30147081A259B3186
:10396000C7004708C700A2259B317C0820004706F6
:103970000319CA2C003075249B3146259B31200049
:10398000D5012200B80A06303802031C00343C0876
:10399000CA0206344A08F000D630F6249B312200D1
:1039A0003A08F000D630F6249B31FD01200048088B
:1039B0007D020318E52C7D08BA259B310108F00033
:1039C000D630F6249B31FD0AD62CFF30F000D630DD
:1039D000F6249B31013075249B3146259B312A30DA
:1039E00022003B06031D0634B8010334F200053EF5
:1039F000860001308700720A9731EA279B31F10077
:103A000086000230870070088100720AC0259B3151
:103A1000023E8600720A8400000801020318132D7A
:103A2000720A860081017208033EC025033E8600AB
:103A300001080800FB007108F8007008F700013069
:103A4000F2020030F33B720F282D730A0319442D44
:103A500077088600780887000108F4000430F436FF
:103A6000890B2F2D7B0E0F3974067E259B3177082D
:103A70008600780887007B0E0F3901067E259B3172
:103A8000F70A0319F80A1F2D7B08080023009E126D
:103A90001D16210091160800F80005307802031861
:103AA000080078089C259B3169259B31DF309125E2
:103AB0009B3178089C259B3169259B31E03091250D
:103AC0009B3178089C259B3169259B31DD30912500
:103AD0000800F401F501701C712D7208F4077308D9
:103AE000F53DF235F30DF136F00C70087104031D4D
:103AF0006B2D7508F1007408F0000800F9000F3014
:103B0000FA017905F4001830F50174078400983043
:103B1000753D85000008F6007B0EF0397606FB0047
:103B20000800F6002230F70070087607860071085A
:103B3000773D870081010800F0002330F101F20099
:103B4000F301080023001D122100911223009E168C
:103B50000800F6002230F70070087607860071082A
:103B6000773D870001080800F100F201F20AF30135
:103B7000470808008C3E860023308701873D0800F7
:103B8000860001308700810A720808006400210065
:103B9000630820004406031DE82D21006208200070
:103BA0004306031DE82D2100610820004206031D85
:103BB000E82D2100D90120005008210059020318E6
:103BC00008006008963125269D312100D90ADB2D99
:103BD0007030210064020318492E640B4B2E1530FF
:103BE00020004F020318080002305006031D080091
:103BF00021006008963125269D312100D7006008FC
:103C0000963125269D312100DD0020004E0821003F
:103C1000DB00DD308600003087000108DA0001306B
:103C2000DA055D36D8006208B4006108B5002000EE
:103C30004F08013E2100B6005B08B7005708B800E6
:103C40005A08B9005808BA0063084E269D31DC00B6
:103C50005C0F2B2E4B2E5C08D2004330D301D235A3
:103C6000D30DD235D30DD235D30DD4002230D500AB
:103C70005208540786005308553D87000130D6008E
:103C80005B0A432ED635890B422E5608FF3A810532
:103C90004B2E94313F242200B60A0800BC003408A1
:103CA0002000B700210035082000B80021003C08A2
:103CB00096316D269D312100BB003B0F6F2E3408DD
:103CC000A9003508AA003608AB003708AC00380850
:103CD000AD003908AE003A08AF003C08912E3C0810
:103CE0002000B700210034082000B800210035086A
:103CF0002000B900210036082000BA002100370852
:103D00002000BB00210038082000BC002100390839
:103D10002000BD0021003A082000BE0021003B0821
:103D20005A2FB0002F279D31B100310F982EFF344C
:103D30002230B3003D30B20031082000BC00BD018C
:103D4000BC35BD0DBC35BD0DBC35BD0D3C082100DD
:103D5000B20720003D082100B33D32088600330839
:103D60008700300881003208013E2000BC0000308E
:103D7000DF279D31290881003208023E2000BC0067
:103D80000030DF279D312A088100FA279D31010884
:103D90002B06F0392B0681002C082000BC002100E6
:103DA000FA279D312000BC0E01083C068F393C06E5
:103DB000810021003208043E2000BC000030DF27D3
:103DC0009D312D088100FA279D312E0C031C811393
:103DD000031881173208063E2000BC000030210085
:103DE000333D2000BD003C0886003D0887007F3041
:103DF00081005408093EBC0021003208073E200023
:103E0000BD0000302100333D2000BE003D0886008B
:103E10003E0887003C08810021003208053E200052
:103E2000BC000030DF279D312F0881002000D40A1C
:103E3000043021002F06031D222F2B0B222F0130CF
:103E40002200C700210031082000530203182C2F44
:103E5000210031082000D300210031080800A00112
:103E600020082000B7003D30B801B735B80DB73590
:103E7000B80DB735B80DB9002230BA003708390788
:103E8000860038083A3D8700A13084000030850064
:103E90000830BB0016001A00BB0B4A2F210028086F
:103EA000031D542F200808001430A00A2002031814
:103EB000FF34302FA0002230A2003D30A1002008A6
:103EC0002000BF00C001BF35C00DBF35C00DBF35DC
:103ED000C00D3F082100A107200040082100A23D9D
:103EE0002108860022088700433101080F3920008D
:103EF000BF003A083F02031CD62FF3279D3101086B
:103F000020003A06F0393A0681003B08BF00F3274B
:103F10009D312000BF0E01083F068F393F0681000A
:103F200021002108043E2000BF00E9279D313C0804
:103F3000810021002108053E2000BF00E9279D31B6
:103F40003E08810021002108063E2000BF00E9272D
:103F50009D317F3081005408093EBF0000300318B6
:103F60000130C00021002108860022088700473167
:103F700020004008803A803C031DC02F3F0801020A
:103F80000318D62F20005408093EBF002100210845
:103F9000073E2000C00000302100223D2000C1006B
:103FA00040088600410887003F08810020003D0846
:103FB0000319DC2FF32781172100200808002100B6
:103FC000333D2000BD003C0886003D0887002100ED
:103FD000080000302100223D2000C0003F0886007C
:103FE0004008870008002100210886002208870079
:103FF0004331080032088600330887004331080047
:020000040001F9
:04000E00CCCFFFFF55
:00000001FF
