:101370008B31112BFF3FFF3F7E1489312000911EDE
:10138000F32922004108031DC72920001C11210058
:101390009110003023001D1901302000B6003603E3
:1013A0000319D52923009D1CDA29230019082000E0
:1013B000B300E329210091102200C10A9C31B1241D
:1013C00089312200B9000630220039060319EB29C1
:1013D0002000360BEF29903108208931F3292200B3
:1013E000B701200058142700131D092A8B11111171
:1013F00021000C0804388C002A302200BD009E31E8
:101400000D2689312200B900B701200058142700A9
:10141000131120009118A42AB22A23001D122100C2
:10142000911223009D139D1722004008A800200060
:10143000B5011B2AB50A4B08FF3EB100FF30031867
:101440000030B200803A803C031D282A3108350262
:101450000318472A2200A80A20004B08220028026D
:101460000318A8012808CA3E860001308700010839
:101470009C31C32489312808C00020008D1A1A2A03
:101480008B152700111520001C112100911001302F
:101490002200B50020009A019B00B02A20004908D4
:1014A000CA3E86000130870001089C31C32489317F
:1014B000200049082200C00020008D1A672A8B15E1
:1014C0002700111520001C1121009110B02A2100C5
:1014D0008D1220008D1202302200B50020001C0861
:1014E00002389C001C0801389C0022002A08223E79
:1014F0002000B40034369B009C31E3248931220063
:10150000A9000C30F00029088F31E2278931AA00A8
:1015100020004B08F000220029088F31E227893192
:101520002000C900B02A21000D0820388D009F310D
:101530007A27893120001C0801389C009C102F302C
:101540009B002200B501B02A22003508003A031999
:101550000D2A013A03194E2A033A0319932AB02A95
:1015600020009110931CE22A2300D40A0319D50A03
:1015700022006F0BE02A230053082000B200230052
:1015800052082000B1002300D20A0319D30A003008
:1015900020003202103003193102031CE02A23001C
:1015A000D201D30122000730C40A44020318DB2A07
:1015B00001308E06E02A0E100B3044020318EF01B2
:1015C00020009310111811100B1D0F2B2200B60ACA
:1015D0002000581CFC2A033022003702031CFC2A7E
:1015E0003E080319F82A49080319F82AC903BE015D
:1015F000903108208931012B2000581C012B22003A
:10160000B70A22004808C80A2000B100073031029A
:10161000031C0E2B2200C8017F30C7000B117E1067
:1016200009009131C12934080319182B3308080027
:101630002100A001A101A301A4012408200053025C
:10164000031C712B21302100A600D930A5002408ED
:101650002000BF00C001BF35C00DBF35C00DBF3574
:10166000C00D3F082100A507200040082100A63D2D
:1016700025088600260887004731010803196F2BCB
:1016800025088600260887004331811F6F2B250817
:1016900086002608FA258B31B7000C30B801B90056
:1016A000BA0184238B3137082100A2002508860067
:1016B00026088700443101082000B700B801210046
:1016C00022082000B900BA0190258B31370821008B
:1016D000A007200038082100A13D2208A307A40A82
:1016E0001D2B210023080319003423082000B70014
:1016F000B801210021082000BA00210020082000A4
:10170000B900002637080800BC01B81F8E2BB709A6
:10171000B809B70A0319B80ABC01BC0ABA1F972B4B
:10172000B909BA09B90A0319BA0A0130BC06BD01E0
:10173000BE01370838040319B72BBB01BB0AB81B1D
:10174000A42BB735B80D9E2BBD35BE0D38083A0217
:10175000031DAC2B37083902031CB32B3708B90221
:101760003808BA3B3D14B836B70CBB0BA42B3C0869
:101770000319BF2BBD09BE09BD0A0319BE0A3E08E5
:10178000B8003D08B7000800A83021006406031D1A
:10179000422C620896318D268B312300C000400810
:1017A000031D08008B112700111121000C080438BB
:1017B0008C00200095018B121C1121009110280033
:1017C00095011711210093100B138B1323009D1308
:1017D0009D179E121D1221009112123097002500B4
:1017E000930120000E0808388E000E0820388E0065
:1017F000FF302500910021009D01270013112000DA
:101800009310911093110B138B1323009D138B13C3
:10181000210063082000B7000030E1248B319518C7
:101820000F2C20005008B7000130E1248B319518AF
:10183000172C20004F08B7000230E1248B31951897
:101840001F2C20004C08B7000330E1248B31951881
:10185000272C8B1316302200C500013093317023E2
:101860008B319518312C8B1316302200C5000330B4
:101870009331DB238B3195183B2C8B1364000100D3
:101880006400402CA0306406031D742C22002F0835
:101890002300B300220030082300B40022003108E6
:1018A0002300B50022002C082300B60022002D08DA
:1018B0002300B70022002E082300B8000430B9002E
:1018C0000330BA00BB0122002B082300BC00BD017D
:1018D000BD0ABE01D5258B31B330C1000130C20035
:1018E0000C30C300A1300B2DA2306406031D08008C
:1018F0002300BF01C101410820005302031CD42C66
:10190000230041082100CB00D930CC01CB35CC0DD0
:10191000CB35CC0DCB35CC0DCD002130CE004B08D6
:101920004D0786004C084E3D8700C23084000130D0
:1019300085000830CF0016001A00CF0B9B2C230027
:1019400049080319D22C45080F39013A031DD22C3E
:1019500001302100CB002300450E0739890A210000
:10196000B22CCB35890BB12C4B082300BF04ED25DD
:101970008B31FE248B31013EF4258B3142088100EE
:10198000ED258B31FE248B31023EF4258B3143084B
:101990008100ED258B31FE248B31033EF4258B3104
:1019A00044088100C10A7B2C23003F08A000D525F4
:1019B0008B31A030C1000130C2001330C300A3300E
:1019C0000B2DB80023009518E22C200038082300C6
:1019D0009100920120003708230093003F309505C5
:1019E00003108B1B03148B13151555309600AA306A
:1019F00096009514151103188B1708002000B900E4
:101A0000B80137083918B807B735B9363908031D92
:101A1000012D38080800C6003F082000B70021004B
:101A200040082000B80021003E089631DD268B31A9
:101A30002100C700470A0319FE344708973172276F
:101A40008B3138082100C500200037082100C40070
:101A5000CA012230C9007930C8004A089031E1201B
:101A60008B3190258B3137082100C80720003808BA
:101A70002100C93D49082000B80021004808200085
:101A8000B700210046082000B90021003E082000D0
:101A9000BA0021003F082000BB00210040082000C0
:101AA000BC00A5258B31003A031D672D2100480895
:101AB00086004908870042310108031D8A2D480825
:101AC00086004908870043310108031D8A2D210043
:101AD00044088600450887004331010E0739A000FD
:101AE0004608A1003A08A2003B08A3003C08A40055
:101AF0003D08A5003E08A6003F08A7004008A80032
:101B00004208AA004108A9004308AB004A089031E6
:101B10002C2000340530CA0A4A020318FF34292D4C
:101B2000BB01BC01371C982D3908BB073A08BC3DE6
:101B3000B935BA0DB836B70C37083804031D922DE5
:101B40003C08B8003B08B7000800A0303902031871
:101B5000003437088600380887004231010B003412
:101B60003708860038088700443101083906031D0C
:101B7000003437088600380887004A3101083A06E1
:101B8000031D003437088600380887004B310108F0
:101B90003B06031D003437088600380887004C31A7
:101BA00001083C06031901340034200044082100D8
:101BB000BA00200043082100BB0020004208210099
:101BC000BC00BD016308BE00200050082100BF001A
:101BD00020004F082100C000080003302000B7009B
:101BE0002300450E07390800A03E8600013087001B
:101BF000230008008700433101080F392000080046
:101C0000BC01BD01370838040319202EBB01BB0AF3
:101C1000B81B0D2EB735B80D072EBC35BD0D3808D5
:101C20003A02031D152E37083902031C1C2E3708F3
:101C3000B9023808BA3B3C14B836B70CBB0B0D2EB2
:101C40003D08B8003C08B70008002300190822002E
:101C5000BB003B0803192E2E1F30BB002F2EFF3078
:101C6000BF002000A80122004308013ECB00053040
:101C70004B020318CB014B08C30022302000AC00FC
:101C80007930AB0022004B089F31D7278E319F312E
:101C90009D278E3170082000AB077108AC3D2200F3
:101CA000CE0120002B0886002C0887004131010856
:101CB0004806031D992E2B0886002C088700423108
:101CC000010B992E83278E3122003B02031C992E93
:101CD000200083278E314702031C992EA9018327F8
:101CE0008E3129020318922E2908A100A2012B0788
:101CF000A30022082C3DA4002308860024088700A6
:101D000044310108A50056088C3EA6002330A701E7
:101D1000A73D260886002708870025088100D60AE7
:101D2000A90A6F2E83278E312200CE004B08BF00F8
:101D30009F2E20000530A80A2802031C332E0130F4
:101D40002000A100480AA52EA135890BA42E210848
:101D5000220047050319EF2E200089278E31A300AA
:101D600080302302031DB62E470821020318EF2EF0
:101D700001302000A100480ABE2EA135890BBD2EDE
:101D80002108FF3A2200C70520006A278E31013062
:101D90008100D60A6A278E3102308100D60A6A276E
:101DA0008E3144088100D60A6A278E3143088100AB
:101DB000D60A6A2742088100D60A56089F31EE27C4
:101DC0008E318101D60A6A278E31220033088100C4
:101DD0002000D60A6A278E3181308100D60A200081
:101DE000AA012A085302031C552F2130AE00D93016
:101DF000AD002A08A100A201A135A20DA135A20DB6
:101E0000A135A20D2108AD072208AE3D2D088600A0
:101E10002E088700473101080319532F75278E318B
:101E200001050319532F89278E31803C031D1A2F7A
:101E300021084702031C552F200075278E31FF3AD9
:101E400081056A278E3101308100D60A6A278E31DA
:101E500002308100D60A2D0886002E08870001086E
:101E600057278E314131010857278E314231010801
:101E700057278E31433101080F3957278E314431AE
:101E8000010857278E3145310135A10056088C3E97
:101E9000A2002330A301A33D220886002308870067
:101EA00021088100D60AAA0AF12E9E31572EA100E0
:101EB00056088C3EA2002330A301A33D22088600D1
:101EC0002308870021088100D60A2D0886002E08E5
:101ED0008700080056088C3EA1002330A201A23DD5
:101EE000210886002208870008002D0886002E0899
:101EF000870001304631A100480A7F2FA135890BA8
:101F00007E2F210808002B0886002C088700010876
:101F100008005608083EA100003003180130A20056
:101F2000803A08002000C00140085302031C08004A
:101F30002130BF00D930BE004008BC00BD01BC3517
:101F4000BD0DBC35BD0DBC35BD0D3C08BE073D0803
:101F5000BF3DDC278F3101080319B52FDC278F31F6
:101F6000810BB52F4008B7278F31C00A942FBB00D3
:101F700014303B02031808002130BA00D930B900F0
:101F80003B08B700B801B735B80DB735B80DB73550
:101F9000B80D3708B9073808BA3DD40339088600A8
:101FA0003A0887004731810153083B06031D0800AA
:101FB0003B08031DD30308003E0886003F08870046
:101FC00047310800F2000830F300F4017208F10014
:101FD0000730F136890BE92F74357104F400F235BE
:101FE00070087402031CF62F7008F402F30BE62F3E
:101FF00074080800FF3FFF3FFF3FFF3FFF3FFF3FE9
:10201000200058102200C101202023001D122100A1
:1020200091129231E72220001C0801389C009C107C
:102030002F309B000C309B002200B501B701080037
:102040002000D601C601C7019731F6272000D5012F
:10205000FF302200BC000800B30005303302031833
:1020600008002B08093EAC00003003180130AD0019
:102070002D08803AAE0080302E02031D41281F300B
:102080002C020318080022302100B6007930B50078
:102090003308E1208D319025903137082100B507B4
:1020A000200038082100B63D3608B8003508B700D2
:1020B0000430B7070318B80A3508860036088700C9
:1020C000423181013508033ED82090310130810032
:1020D0003508013ED820903120088100B901370829
:1020E00086003808870021088100B90A2B08033EC2
:1020F000AC003908AD00AE013707AF002E08383DFF
:10210000B0002F088600300887002C08C9209031C5
:102110002208C92090312308C92090312408C92001
:1021200090312508C92090312608C9209031270810
:10213000C920903128088100B90AB4012B08340263
:102140000318BD283408AC00AD01290786002D080E
:102150002A3D87000108AE003908AF00B0013707FB
:10216000B1003008383DB2003108860032088700DF
:102170002E088100B90AB40A9E2835088600360860
:102180008700390881003508023ED82001308100DF
:1021900008008100B90A3908AC00AD013707AE006C
:1021A0002D08383DAF002E0886002F088700080054
:1021B000AC000030363DAD002C0886002D088700AD
:1021C00008002000B7002330B801B900BA010800A8
:1021D000B00086219031B100310FEF28FF3421305B
:1021E000B300D930B20031082000BC00BD01BC35BD
:1021F000BD0DBC35BD0DBC35BD0D3C082100B20781
:1022000020003D082100B33D3208860033088700D6
:10221000300881003208013E2000BC000030B121AE
:102220009031290881003208023E2000BC000030B5
:10223000B12190312A088100BB21903101082B0681
:10224000F0392B0681002C082000BC002100BB21A6
:1022500090312000BC0E01083C068F393C068100FD
:1022600021003208043E2000BC000030B121903132
:102270002D088100BB2190312E0C031C8113031803
:1022800081173208063E2000BC0000302100333D9B
:102290002000BD003C0886003D0887007F3081009B
:1022A0005408093EBC0021003208073E2000BD0052
:1022B00000302100333D2000BE003D0886003E086E
:1022C00087003C08810021003208053E2000BC0048
:1022D0000030B12190312F0881002000D40A043051
:1022E00021002F06031D79292B0B792901302200AB
:1022F000C600210031082000530203188329210061
:1023000031082000D300210031080800A001200876
:102310002000B700D930B801B735B80DB735B80DC2
:10232000B735B80DB9002130BA0037083907860033
:1023300038083A3D8700A13084000030850008301D
:10234000BB0016001A00BB0BA12921002808031DA1
:10235000AB29200808001430A00A20020318FF341B
:1023600087292100333D2000BD003C0886003D0840
:1023700087002100080032088600330887004331B7
:102380000800D9308400213085001730FE0002306B
:10239000FF009C31982491314230D80184000030F4
:1023A00085001630FE00FF019C31982491312100F8
:1023B0002030E201E301E4018400013085002F3088
:1023C000FE00FF019C3198249131CA308400013015
:1023D00085001330FE00FF019C31982491312200CA
:1023E0000130EF007E102000F52923302300DC00AF
:1023F0002830DB007830210099002C3098003D23F4
:10240000913120302000B7000030D02291311308E4
:102410002000C4002130B7000030D02291311308D1
:102420002000C3002230B7000030D02291311308C1
:102430002000C2002330B7000030D02291311308B1
:102440002200AB002000420803192A2A420821007A
:10245000E0002D2A2100E001E00AE10160082000EF
:10246000CA007030B7000030D0229131130822002A
:10247000AF0071302000B7000030D0229131130836
:102480002200B00072302000B7000030D02291311D
:1024900013082200B10073302000B7000030D022B2
:1024A000913113082200AC0074302000B7000030D6
:1024B000D022913113082200AD0075302000B70002
:1024C0000030D022913113082200AE0012302100DA
:1024D0009700032391312200C20054239131003030
:1024E0002A23913123001D122100911223009E12F4
:1024F000D630EF2291311630B7001430B800D63004
:102500005D2391312000C430B701B801B9000B3010
:10251000BA00112391312623913122004208031978
:102520009D2A1630C50000307023913116302200EC
:10253000C5000030DB239131010064001B30210015
:102540009700E72291310B178B178B1720001C087F
:1025500002389C001C0801389C001B309B0028009E
:1025600095019714171417179716171697152630F5
:102570009600171521009314200095012100951253
:1025800095111515951415108B166F239131220096
:10259000EF01EF0AF22391313C2391316400CA2A02
:1025A000B80037082300910020003808230092006B
:1025B00015139517151400000000000000006400BA
:1025C00023001518E02A640023009513FC2F200037
:1025D0009A0178309B001C152100911408002000FE
:1025E000B7008600013087008101370A860081012B
:1025F0003708023E8600633081003708033E8600BC
:10260000013081010800B8302000B7000030D0222E
:102610009131140813082000B900333A031901342A
:102620000034CD2691313A082200A100200039085B
:102630002200A000200038082300D1002000370825
:102640002300D000F627FF30BC000800193021001D
:10265000EE2708002000B700332B22000E100800E0
:1026600022000E1408003708003A03192D2B013AF6
:102670000319302B3B2B0800CE2FFF308C008D0030
:1026800006308E002930EE2723008E1120008E1197
:102690008E1223008D120C110E138E130E102200B9
:1026A0000E138E130E12080023009D171E159F1582
:1026B00003309B009C011E120800B900D1012100CB
:1026C000E4012000CE0139082100E2002000380892
:1026D0002200A300200037082200A2000800080002
:1026E0002000BB00B830B700B8018623913120002C
:1026F0003B08B830B7003F30B8000319832B3330A4
:10270000B9000030B42B0030B901B42B16302200D0
:102710004506031D08002000370823009100200013
:102720003808230092001513951715161515AA23BE
:1027300091312300151164002300151A9C2B6400AD
:1027400023009518A02B9513920140309100220090
:10275000C501080055309600AA3096009514000077
:102760000000000000000800BA00230095171515AE
:10277000151215139516200037082300910020002C
:102780003A0823009200200039082300930020001B
:10279000380823009400AA23913123009512AA231C
:1027A000913123001511640023009518D42B640087
:1027B00023009513FC2F2000BB00D030B700B801D8
:1027C0008623913120003B08D030B7003F30B8005D
:1027D0000319EE2B3B08B9000030B42B1130B900BF
:1027E0000030B42B6400942591316400083022003D
:1027F0003602031C002C8F31922791312200B60142
:10280000062491316400E527640008006F08031D69
:1028100008000B303802031C08000D303802031C7E
:10282000142C0E10B80108000E14080064002100DA
:10283000630820004406031D332C50084306031D83
:10284000332C4F084206031D332C2100DB012000EE
:102850004E0821005B020318080062088D269131A2
:102860002100DB0A272C7030210064020318962C0B
:10287000640B972C153020004D020318080002301D
:102880004E06031D0800210062088D2691312100AB
:10289000D90062088D2691312100DF0020004C080C
:1028A0002100DD00DF308600003087000108DC00F9
:1028B0000130DC055F36DA00200050082100B4004A
:1028C00020004F082100B50020004D08013E2100E6
:1028D000B6005D08B7005908B8005C08B9005A088E
:1028E000BA0063088A279131DE005E0F782C972C9E
:1028F0005E08D400DF30D501D435D50DD435D50DE3
:10290000D435D50DD6002130D7005408560786009F
:102910005508573D87000130D8005D0A902CD83506
:10292000890B8F2C5808FF3A8105972C9A24220096
:10293000B80A080062088D2691312200EC002100BF
:1029400062088D2691312200ED00210062088D265B
:1029500091312200EE0020004E08FD3E2200E500ED
:1029600020005008BE004F08BF00210063081D274B
:10297000913122006E0820004206031DF32C220034
:102980006D0820004306031DF32C22006C08200074
:102990004406031DF32C220049080319ED2CC9033A
:1029A000ED2C62088D2691312200E600210062089C
:1029B0008D2691312200B4003408031908006608FE
:1029C000B300080022002008210403190800210890
:1029D0008A0020080A009431080021006408703A37
:1029E0000319D12CE22C22006D082000B700220030
:1029F0006E082000B80022006C08DD26913122000C
:102A0000EA006A0A03198F2D6A0872279131380883
:102A10002200E900200037082200E800A830210049
:102A20006406031D4E2D22006808073E2100D000D9
:102A300000302200693D2100D10050088600510875
:102A40008700FF308100620886000130870001089E
:102A5000D000D1016208053E8600403FD200413FD0
:102A6000D3005008520786005108533D87000108E3
:102A7000031D4C2D20004C082300CA0022006808CA
:102A80008600690887004331010E07392300CB0017
:102A900002302000CB004E2DCD2691312200EB01DB
:102AA000E701650867020318682D210062088D267A
:102AB00091312100D00022006B084F3E860001308A
:102AC00087002100500881002200EB0AE70A512DFF
:102AD00021006308BA00200050082100BB0020003C
:102AE0004F082100BC0020004D08013E2100BD0020
:102AF00022006C082100BE0022006D082100BF00EA
:102B000022006E082100C0004F30C1000130C20019
:102B100022006B082100C30064088D310B252200C0
:102B20004908031DC9030800522E210062088D26A2
:102B30009131CC000130D10006304C02031CA42D91
:102B4000A22DA42DC2269131522E210062088D267D
:102B50009131D2000230D10005305202031CB92D50
:102B6000B22DB92D520A0319B92DB72DB92DC22690
:102B70009131522E210062088D2691312100E4000E
:102B800003302000D100522E210062088D269131A1
:102B9000CE000630D1001F304E02031CD32DD12DA4
:102BA000D32DC2269131522E210062088D269131FB
:102BB0002100E30062088D269131D00021006208D7
:102BC0008D269131CF000430D100522E07302000E5
:102BD000D100210062088D269131CD00522E0530A2
:102BE0002000D10021006208043E860001308700E9
:102BF000810122002208230403190A2E002E0A2E26
:102C000023088A0022080A0096310A2E2100620851
:102C10008D26913121006208043E86000130870034
:102C200020004E080102031C062E172E062E522EDF
:102C300008302000D10021006208860001308700A2
:102C400001082000BD00BE0121006208053E86008B
:102C5000403F2000BF00413FC0003D083F078600C5
:102C60003E08403D87000108C100410F402E392E2B
:102C7000402E210062088D269131C2269131442ECA
:102C8000C22691310230D100522EC2269131522EED
:102C900051088400083004020318452E9831043589
:102CA0001E3E820021006208860001308700433FFB
:102CB0002000B7005108B8000630380203186A2E09
:102CC000622E6A2E3708031D662E682E0130892E6B
:102CD0000030892E06303806031D792E702E792E8D
:102CE000033037020318752E772E0130892E0030FD
:102CF000892E07303806031D882E7F2E882E4E0819
:102D000037020318842E862E0130892E0030892E3A
:102D10000130003A03190800482E2000BC008B1334
:102D20008600013087000108B700B8013C08053E65
:102D30008600403FB900413FBA0037083907860096
:102D400038083A3D87000108BB003C088600013086
:102D50008700810A3C08023E86003C089F31F42728
:102D600091313C080318B62E86008101033E86008F
:102D70000130870081033C08043E8600810A8B17DE
:102D80003B0808002000D1012100E401E3012000FC
:102D9000D001CF01CE01CD0108002300CA010130CE
:102DA000CB000230CC000330CD000430CE00053023
:102DB000CF0006302000CB0008002100A000A101B8
:102DC000210820005302031CFF34210021082000A9
:102DD000B900D930BA01B935BA0DB935BA0DB9351E
:102DE000BA0DBB002130BC0039083B0786003A0809
:102DF0003C3D8700A2308400003085000830BD00D3
:102E000016001A00BD0B002F210022082006031D0A
:102E10001A2F230820003706031D1A2F210024082B
:102E200020003806031D1A2F2100290803191A2F24
:102E3000210808002100A10AE02E2000C0003E0861
:102E4000B7003F08B8004008DD2691312000C100DE
:102E5000410A031908005408093E2100AA00003065
:102E600003180130AB00200041082100AC00E03025
:102E7000AD01AC35AD0DAC35AD0DAC35AD0DAE0025
:102E80002130AF002C082E0786002D082F3D87002B
:102E90002B08803A803C031D4F2F2A08010203189B
:102EA000080020005408093E2100AA002000410823
:102EB0002100AB00E030AC01AB35AC0DAB35AC0D57
:102EC000AB35AC0DAD002130AE002B082D07AF00A7
:102ED0002C082E3DB0002F088600300887002A08F5
:102EE000810008002000BA002130BC00D930BB00AE
:102EF0003A08B800B901B835B90DB835B90DB835CB
:102F0000B90D3808BB073908BC3D3C08B8003B0880
:102F1000B7000800BC0034082000B70021003508C5
:102F20002000B80021003C08DD2691312100BB00C3
:102F30003B0FAB2F3408A9003508AA003608AB00B8
:102F40003708AC003808AD003908AE003A08AF00C9
:102F50003C089031E8283C082000B70021003408E4
:102F60002000B800210035082000B90021003608F3
:102F70002000BA00210037082000BB0021003808DB
:102F80002000BC00210039082000BD0021003A08C3
:102F90002000BE0021003B089D31282D220034086E
:102FA000031D08009C31A42491312200CA008B31FA
:102FB000132391312200B2004A083202031CE32F8E
:102FC0003208B3000800B30108002000D81C080034
:102FD0002300D401D5012000D81008009D009E13C5
:102FE0001E179E161E129E101E1008002B30220067
:102FF000BD000330B9000800920140309100080084
:10300000003407340E3409341C341B3412341534A4
:1030100038343F3436343134243423342A342D3494
:1030200004341D34BC341D34D4341D348D341C346C
:1030300025340E34F0341D34003400349531952D90
:103040009531A52D9531BA2D9531C42D9531E62DAB
:103050009631182E9531D42D9531EF2DFF3FFF3F3E
:10391000FF3FFF3FFF3FFF3FFF3F2300190820000D
:10392000C70065304702031C04346430C700043408
:103930006400013080010131FE020030FF3B7F084E
:103940007E0403190034992C21001C082000B700C4
:103950003709B80021001D0802389D0020003808F2
:10396000080039082000AF001030B001AF35B00DAD
:103970002F0784009830303D8500013F8A00003FCA
:103980000A009C310800F1002000C800711CCB2CFB
:1039900022000E17CD2C22000E137108F000F03615
:1039A000701CD52C22008E17D72C22008E13710884
:1039B000F000F036F036701CE02C22000E160800E5
:1039C00022000E1208004A08F0000430F036890B7D
:1039D000E62C4A08F100F136F136F1364A08F200D9
:1039E000F236F2367208710670064A06F3000130AC
:1039F000F3057308F0000730F035890BFC2C4A36CC
:103A00007004CA004A080800230019082000C600F4
:103A100023005908643C2200CC0004304C020318F7
:103A2000142DF001F1011B2D4C08F000FD30F101C7
:103A3000F007031CF1037008CC006530200046023B
:103A400003180634460822004C02031C06340134D5
:103A5000A0002130A200D930A10020082000BF0022
:103A6000C001BF35C00DBF35C00DBF35C00D3F080B
:103A70002100A107200040082100A23D2108860066
:103A800022088D31FA259D31BF003A083F02031C00
:103A9000A22DB5259D31010820003A06F0393A06DD
:103AA00081003B08BF00B5259D312000BF0E0108F5
:103AB0003F068F393F06810021002108043E200087
:103AC000BF00AB259D313C08810021002108053E47
:103AD0002000BF00AB259D313E0881002100210858
:103AE000063E2000BF00AB259D317F308100540889
:103AF000093EBF00003003180130C000210021083A
:103B0000860022088700473120004008803A803C28
:103B1000031D8C2D3F0801020318A22D200054081C
:103B2000093EBF0021002108073E2000C0000030F0
:103B30002100223D2000C100400886004108870086
:103B40003F08810020003D080319A82DB5258117E5
:103B500021002008080000302100223D2000C00084
:103B60003F088600400887000800210021088600E1
:103B70002208870043310800230019082000D700DD
:103B80004608031DC42DA82E5708031902341F3000
:103B900057020318063457084602031C0634220055
:103BA000C90A0130BE00023455088C3EA4002330FF
:103BB000A501A53D240886002508870023001908D3
:103BC00081002000D50A4608013EA40000300318F9
:103BD0000130A500550824062504031D0234A82E33
:103BE000230019082000A100210B062E22003F0A05
:103BF0000319FD2D3F0880279D312000D6012A3072
:103C000022003D0603190634BA010D2E2200BA0A1D
:103C100006303A0203180634572ED0279D31590832
:103C2000643C2200CD0004304D0203181A2EF80126
:103C3000F901212E4D08F800FD30F901F807031CA9
:103C4000F9037808CD004D089E269D31FF30FA011A
:103C50002200BC001F304D02031C482EFB017B08D4
:103C6000D7279D319D279D317B30DD279D31031D59
:103C7000432E7B08D7279D319D279D317C30DD2742
:103C80009D310319FA0A0530FB0A7B02031C2F2E13
:103C90002200BE017A0849020318512E4908FA028F
:103CA000522EFA017A089E269D317A270034200090
:103CB000C501D0279D31200056089E269D31200049
:103CC00056080319732E5630F0000030E8279D3156
:103CD0004E279D31C5004E30F0000130E8279D3160
:103CE0004E279D31C50022004E089E269D312000A2
:103CF000A001560820020318942E20088C3EFC00D8
:103D00002330FD01FD3D7C08F0007D08E8279D3152
:103D10004E279D31C5002008EE279D3101089E26C3
:103D20009D312000A00A792E560803199C2E4508C3
:103D3000C50045089E269D317A270534F0002000F5
:103D4000111E9F2E700823009A009E180800A52EB1
:103D5000D0279D31200046080319132F5508A000D5
:103D60008B30A101A2002330A30020082207860087
:103D70002108233D87000108FC00D503C50155300B
:103D8000F0000030E8279D314E279D31C5005730A7
:103D9000F0000030E8279D314E279D31C5008C3062
:103DA000F0002330F1005508F200F30145084E27DA
:103DB0009D31C5004508C500D0279D317C082000F5
:103DC00045060319F32E00309E269D317A279D313A
:103DD0002000D5012200BA0A06303A02031C003442
:103DE0003E08C90206344808F000D6301F279D312E
:103DF00022003C08F000D6301F279D31FD01200035
:103E000046087D0203180E2F7D08EE279D3101081C
:103E1000F000D6301F279D31FD0AFF2EFF30F00045
:103E2000D6301F279D3101309E269D317A279D3146
:103E30002A3022003D06031D0634BA010334F70080
:103E4000770A8600013087000108F100F201770847
:103E5000053E8600403FF300413FF40071087307C0
:103E6000F5007208743DF600750886007608870034
:103E700070088100770AFA279D31023E8600770A92
:103E8000F4279D310318472F770A860081017708B0
:103E9000033EFA27033E860001080800FB00710874
:103EA000F8007008F7000130F2020030F33B720FA7
:103EB0005C2F730A0319782F77088600780887002B
:103EC0000108F4000430F436890B632F7B0E0F39A0
:103ED0007406B2279D3177088600780887007B0E2C
:103EE0000F390106B2279D31F70A0319F80A532F3B
:103EF0007B08080023009E121D1621009116080061
:103F0000F80005307802031808007808D7279D319B
:103F10009D279D317B30C5279D317808D7279D315E
:103F20009D279D317C30C5279D317808D7279D314D
:103F30009D279D317930C5270800F401F501701CDB
:103F4000A52F7208F4077308F53DF235F30DF1362D
:103F5000F00C70087104031D9F2F7508F1007408A0
:103F6000F0000800F9000F30FA017905F400003084
:103F7000F501740784009830753D85000008F6004F
:103F80007B0EF0397606FB000800F6002230F700C1
:103F90007008760786007108773D87008101080068
:103FA00023001D122100911223009E160800F0002C
:103FB0002330F101F200F3010800F6002230F7008F
:103FC0007008760786007108773D870001080800B1
:103FD000F100F201F20AF301450808008C3E860068
:103FE00023308701873D08008400013085000008E8
:103FF00001020800860001308700810A7708080066
:020000040001F9
:04000E00CCCFFFFF55
:00000001FF
