:0E00E000023F003F003F043F033F003FFF3F51
:10020000000081316329FF3F7E1481312000911E5F
:100210002E293508031D0F291C11210091100030D3
:1002200023001D1901302000CF004F0303191B29A3
:1002300023009D1C21292300190888314520813184
:100240006129210091102000B50A883132208131C6
:1002500006302A0603191D29A90168142700131D59
:100260003E298B1111112000E8148631D3268131EB
:100270002000AA00A9016814270013112000911C76
:1002800044298831DF2081310B1D6129681C5629E2
:1002900003302902031C5529300B51298631D226FF
:1002A00081318831452081315629A90A3908B90A96
:1002B000CE0009304E02031C6029B9017F30B8001E
:1002C0000B117E10090020000308A000813168296D
:1002D0002130E801840000308500283088312C204E
:1002E000813121002030ED01EE01EF018400013069
:1002F00085003E3088312C208131A03084000130CF
:1003000085004B3088312C207E1020008331132B48
:10031000220020082100DD0020003A082100E8002A
:1003200022002108FD3E2100DE00220022082100DB
:10033000E900220023082100EA002200240821000D
:10034000EB00220026082100DF0022002708210000
:10035000E000220028082100E1005F086E06031D6E
:10036000BA2960086D06031DBA2961082000260617
:100370000319BC2987316F2F2100E7015E0867024E
:100380000318CD296708B03E860087016708293E1B
:100390008731F9278131E70ABE29EF012000681172
:1003A00021005D08A03A0319A92A063A0319152A63
:1003B0000E3A0319602A033A0319DF29C62A8B1360
:1003C000B830E4000930E50016302000B7006400C2
:1003D000210065082000D100210064082000D00021
:1003E000C722813120302100E4070318E50A6502A5
:1003F000003003196402031CE4298B172000A301B9
:10040000A401210030082000B300210031082000A1
:10041000A200210032082000A100AC30EA22D40161
:10042000D50121006808883199282000A30A031902
:10043000A40A21003008E6003108E2000930660213
:10044000031C0800EC0110306C020318342A6C08FD
:10045000A03E860087016C08023EB03E8400850104
:1004600000088100EC0A232A62082000D000A03096
:10047000D1002100660885314A25813121006608B6
:10048000DB006208DC002000C00A400833060319C4
:10049000512A22082402031D4F2A21082302031C8B
:1004A0005C2AA730C001EA22DB30D4000230D5003C
:1004B0002100680888319920013022008E0608004A
:1004C0003008E300630B692A16302000B70084313E
:1004D000982C6308031D08008B1369082000D000C6
:1004E00000308431402481319518742A21006A0833
:1004F0002000D000013084314024813195187E2ABB
:1005000021006B082000D00002308431402481316A
:100510009518882A210068082000D0000330843113
:10052000402481319518922A8B13F8228431A42417
:1005300081319518992A8B1316302000B7000230AC
:10054000FC2281319518A22A8B13640001006400FB
:10055000A72A0230CF000430D001D101D2000330ED
:10056000D300D401D501D601D701200025082100F0
:10057000D800A130D901DA012000EA22CF30D4001E
:100580000C30D50021006808883199280800163001
:100590003706031D08005008230091002000510871
:1005A0002300920015139517151615158531E825AA
:1005B00081312300151164002300151ADC2A640020
:1005C00023009518E02A95139201403091002000F5
:1005D000B7010800D000210069082000D1002100E7
:1005E0006A082000D20021006B082000D300080018
:1005F00016302000B7000134D400D030D000D10133
:10060000C72281315408D030D0003F30D1000319C7
:100610000E2B5408D20000308531C12D1130D2008C
:1006200000308531C12D783021009900313098009B
:1006300021001A181E2B64000000182B8831782026
:100640008331D0302000DA00C930D900D90B262BF5
:10065000DA0B262B00320530292483312000DF00FD
:10066000223A0319382B64008931B8296400362BEB
:100670002030D00000308531292583311308210036
:10068000EE0021302000D000003085312925833153
:1006900013082100ED0022302000D0000030853109
:1006A0002925833113082000A6002330D000003014
:1006B00085312925833113082000A5002608031958
:1006C000642B2608DB00662BDB01DB0ADC015B0800
:1006D000B6001230210097008224E70064008431C4
:1006E000D4248331E00064008431E2248331E300C8
:1006F0006400200067080319B02B003029248331DF
:100700002000E4000130292483312000E50002307C
:10071000292483312000E60003302924833120007E
:10072000E100640F992B650F992B660F992BE70158
:10073000A92BFF30D000003040248331FF3020004F
:10074000D000013040248331FF302000D00002303F
:10075000402416302000B70000308431A4248331B7
:1007600020006708031DDA2B6008031DDA2B8B13AA
:10077000123021009700200063030319C52B1630A7
:10078000B70001305D24833164008B13D03020002A
:10079000DD000730DE0020005D085E040319D62B63
:1007A0000130DD020030DE3B0000CB2B8931B8295F
:1007B0006400D82B63080319E72B1630B70000300C
:1007C0005D248231F82283318231FC22833164003E
:1007D00023009D171E159F1503309B009C011E12C0
:1007E00064007D248331640023009E126400640051
:1007F0001B3021009700712483310B178B17950153
:100800002100951295111515951415108B162200BF
:100810000E14200067080319212C64002000AA3060
:10082000E201D0006408D1006508D2006608D30058
:100830006230D400D501D50A61088831992083310E
:1008400064002000681D272C8131882183316400D9
:10085000212C2000D0002D2C2000640023009518AE
:100860002C2C200050082300910092013F30950568
:1008700015140310151803140030093D130808005F
:10088000D10023009518412C20005108230091002D
:10089000920120005008230093003F30950503107B
:1008A0008B1B03148B13151555309600AA30960038
:1008B0009514151103188B1708002000D5008B1311
:1008C000D001D1018231C722833164008431BA243E
:1008D0008331640020005508853195258B13640011
:1008E000080020009A0178309B001C15210091140B
:1008F000200091241B309B00080023001D122100C2
:1009000091120800B8302000D00000308531292530
:100910008331140813082000D200333A031901343C
:1009200000341C0802389C001C0801389C00080098
:100930001230210097008B130130A4240130843140
:100940005D248931B82908002000D400B830D000D7
:10095000D1018231C72284315408B830D0003F30F1
:10096000D1000319B72C3330D2000030C12D003034
:10097000D201C12D8B1320001130D001002684310B
:10098000C125843120001230D001D00AD1000A30B4
:10099000D2000030C125843102302000D00029303F
:1009A000D1000030D201C12DD0302000D000003065
:1009B00029258431140813082000D200113A031DA0
:1009C0000134003420000030D201D301D0012925A8
:1009D0008431402584310318D30A0030D001D00A75
:1009E00029258431402584310318D30A0230D000F0
:1009F000003029258431402584310318D30A04307E
:100A0000D000003029258431402584310318D30AD1
:100A10000530D00000302925843140258431031869
:100A2000D30A0630D0000030292584314025843196
:100A30000318D30AA73052060230031953060319CC
:100A400000348A3052060230031953060319013468
:100A5000FF34D100500823009100200051082300EA
:100A600092001513951715140000000000000000F7
:100A7000640023001518392D640023009513042EFB
:100A800014082000D2070318D30A230013082000FB
:100A9000D20708002000D3008B13640023009517B1
:100AA00015151512151395162000500823009100F6
:100AB00020005308230092002000D4015435510730
:100AC000D20086008701413F230094002000543566
:100AD0005107D2008600010823009300E8258431E5
:100AE0002300910A20000730D40A5402031C5E2D13
:100AF0002300951220005108860087014E3F2300F5
:100B000093002000510886004F3F23009400E82501
:100B10008431230015116400230095188C2D951342
:100B20009201403091008B170800D4008B13003ADB
:100B300003199E2D013A0319AF2DC02D0430D000AA
:100B4000113000268431C1258431F2258431C1253C
:100B50008431FA2584310430D2000030C12D0430B4
:100B6000D000153000268431C1258431F22584312E
:100B7000C1258431FA258431BC30D2000030C12D2A
:100B80000800D30023009517151515121513951697
:100B900020005008230091002000530823009200F9
:100BA00020005208230093002000510823009400E5
:100BB000E825843123009512E8258431230015119E
:100BC000640023009518E12D640023009513042E82
:100BD00055309600AA3096009514000000000000E1
:100BE0000000080005302000D0001230D1000A308B
:100BF000D200003406302000D0002930D100080097
:100C0000D1008A30D20000349201403091000800B7
:100C1000230019082000C7002D08031D02343C2EB4
:100C20004408A03E86000130870023001908810097
:100C30002000C40A2D08013EC9000030031801300D
:100C4000CA00440849064A04031D02343C2E23000E
:100C500019082000BF003F0B362E46080319322E1C
:100C6000BD01E811E8180634AB01D32EAB0A0630FB
:100C70002B0203180634F22E3D27863120002D0862
:100C800003197A2E44089F3E860001308700010830
:100C9000FC00C403AC014430F00000306927863109
:100CA000A6268631AC004730F00000306927863137
:100CB000A6268631AC00A030F0000130F1004408D7
:100CC000F200F3012C08A6268631AC002C08AC00FB
:100CD0007C082C0603197A2E0030342786314427ED
:100CE00086312000C401AB0A06302B02031C0034FD
:100CF000D2260634470803199A2E2D08BB00320865
:100D0000BA0001302100EF00FD0120002D087D0216
:100D10000318982E7D08203E8600013087007D084C
:100D2000A03E84000130850000088100FD0A852E68
:100D300068159C2ED226863101303427863144270F
:100D400086312000E81C0634AB010334FB00710837
:100D5000F8007008F7000130F2020030F33B720F28
:100D6000B42E730A0319D02E7708860078088700FE
:100D70000108F4000430F436890BBB2E7B0E0F39CA
:100D800074065627863177088600780887007B0E20
:100D90000F39010656278631F70A0319F80AAB2ED8
:100DA0007B0808006F2F3D27863121006F08031D47
:100DB000E22E0130EF00200068110130C801C80A9E
:100DC000B000E52E2000C801B0011F30F000480837
:100DD0004A27863134278631200048083427863157
:100DE000442700342000AC013D278631200045080F
:100DF000342786312000450803190E2F4530F000B6
:100E0000003069278631A6268631AC004630F000D6
:100E1000003069278631A6268631AC004608342783
:100E20008631FC01200045087C0203182A2F7C082B
:100E3000A03EF000013069278631A6268631AC003D
:100E40007C08A03E860001308700010834278631E7
:100E5000FC0A122F45080319322F2C08AC002C086D
:100E60003427863144270534F000111E352F7008D1
:100E700023009A009E1808003A2F23001D1221001B
:100E8000911223009E16080023009E121D162100B9
:100E900091160800F200F10170087218F107F035A0
:100EA000F2367208031D4C2F71080800F9000F304C
:100EB000FA017905F400FF30F501740784008730EA
:100EC000753D85000008F6007B0EF0397606FB00C4
:100ED0000800F100F201F20AF3012C0808002100D9
:100EE000EF01200068110800230019082000AF005E
:100EF0002F0803197D2F1F30AF007E2FC6013C083D
:100F00003206031D9B2F3D0B9B2FE81D9B2F3E0898
:100F10002F02031C9B2FFD013E087D020318992F11
:100F2000ED2787317D083F3EF9278731C50AFD0A45
:100F30008C2F3E08C6000130C900320AA02FC935E7
:100F4000890B9F2F490838050319E42F4508083EEF
:100F5000C900003003180130CA00803ACB0080304D
:100F60004B02031DB52F2E0849020318E42F013050
:100F70002000C900320ABD2FC935890BBC2F490892
:100F8000FF3AB805ED2787318101810AC50A450876
:100F9000A03E86000230F327873121006E08E62745
:100FA000873121006D08E62787312608F327810164
:100FB000C50A4508A03E86008101C50A4508A03E35
:100FC000860001308101C50A8631F22E81002000A1
:100FD000C50A4508A03E860008004508A03E8600D8
:100FE0000130870008008100C50A4508A03E860040
:100FF00008008400013085000008810008000034EA
:1010000007340E3409341C341B341234153438348C
:101010003F3436343134243423342A342D342234CA
:101020000834083406341034063427340834743451
:1010300007342734063400340034FF3FFF3FFF3FBE
:10104000FF3FFF3F230019082000AD0001342300BB
:1010500019082000AE000434640080010131890BBE
:101060002D2800342A08CC000F30CD01CC35CD0D11
:101070004C07840088304D3D8500013F8A00003FC9
:101080000A0088312000AA0008002000B501512084
:1010900084317D24883184317124B401A901681020
:1010A0000800C501E8100330AA00FF30C401B000F9
:1010B0000800F100B200711C602822000E1762289F
:1010C00022000E137108F000F036701C6A2822000E
:1010D0008E176C2822008E137108F000F036F0365F
:1010E000701C752822000E16080022000E1208003F
:1010F000FF308C008D0006308E0029309D009E133D
:101100001E179E161E129E101E1023008E11200008
:101110008E118E122500930123008D120C110E13D7
:101120008E130E1022000E138E130E128E118E12BD
:1011300008002000D70020003D0BA02864009B2859
:10114000E8110130BD005708BC005508093EBE003B
:1011500050082200BF0020005508033E2200C000B6
:1011600021006E082200C10021006D082200C2008B
:10117000200026082200C300C401200051082200DC
:10118000C500200052082200C6002000530822009B
:10119000C7002000D801550858020318DD28580858
:1011A000483E86000130870058085407D600840066
:1011B000850100088100D80ACB28E81508006400E2
:1011C000612984317D24883123009D139D172000DF
:1011D0003208C100FA010630C10A41020318C101F8
:1011E000410888315920883120008D1AFA28882139
:1011F0008831FF280530FA0A7A02031CEB280130F7
:101200002000B4009A019B006D29420888315920C2
:10121000883120008D1A0F29882188316D292100FD
:101220008D1220008D120230B40084319124883157
:101230004308223EF500003003180130F600760D19
:10124000F60CF50C75089B003608F5000430F536F1
:10125000890B27293608F600F636F636F6363608B4
:10126000F700F736F7367708760675063606F80083
:101270000130F8057808F5000730F535890B3D2970
:1012800036367504B600F9000C30F000790870218C
:101290008831C3000630F000790870218831C2001F
:1012A0006D2921000D0820388D00873144278831B1
:1012B00020001C0801389C009C102F309B00B401BA
:1012C0006D2920003408003A0319E128013A031976
:1012D0000529033A031951296D29200091100800AE
:1012E000F2000830F300F4017208F1000730F13623
:1012F000890B772974357104F400F2357008740293
:10130000031C84297008F402F30B74297408080084
:101310008B152700111520001C11210091100800C9
:101320009E3FFF3FFF3FFF3FFF3FFF3FFF3FFF3F2E
:101370008931BC29FF3FFF3F8931BE293D308400C0
:1013800022308500B330FE000130FF008C31AA24EA
:1013900089312030FC01FD018400003085002730B8
:1013A000FE000030FF008C31AA2489312000522A2F
:1013B000F400B830F000F101A42389317408B8308A
:1013C000F0003F30F1000319E9293330F20000301A
:1013D0003B2B0030F2013B2BF400D030F000F10148
:1013E000A42389317408D030F0003F30F100031994
:1013F000FD297408F20000303B2B1130F200003060
:101400003B2BF5008B13F001F101A423893164001B
:10141000102289316400750824228B1364000800AF
:101420008B131130F0018E2489313B238931123026
:10143000F001F00AF1000A30F20000303B2389315C
:101440000230882489313B2BF4008B13003A0319B6
:101450002D2A013A03193D2A512A04308224893168
:101460003B23893105306F2489313B238931063094
:10147000F0002930922489313B2B0430F0001530E4
:101480008E2489313B23893105306F2489313B23F8
:1014900089310630F0002930F100BC30F200003014
:1014A0003B2B08006F2389311230210097000B136A
:1014B0008B1364007830210099002C309800DC23D5
:1014C0008931F92389311D122100911223009E12C6
:1014D000652489319030F00009305A23893113088E
:1014E0002000CC0002248931CD004C060319862A45
:1014F000C030F0001F30F100A4238931C030F0006B
:101500001F30F101F2013B2389310100E030F0008E
:101510001F305A23893113082000CE006400E130C7
:10152000F0001F305A23893113082000CF006400D7
:10153000E230F0001F305A23893113082000D00018
:1015400064001630FD002030F000F101A423893141
:1015500064002030F0003F30F10020004E08F2001F
:1015600000303B23893164002130F0003F30F1002E
:1015700020004F08F20000303B2389316400223004
:10158000F0003F30F10020005008F20000303B2313
:10159000893164001830F0015A2389311308200082
:1015A000D1002330F0003F30F1005108F20000304C
:1015B0003B2389312430822489313B2389312530F2
:1015C0006F2489313B2389312630882489313B239C
:1015D00089317030F0003F30F1000230F20000300D
:1015E0003B2389317130752489313B238931723035
:1015F000752489313B2389317330F0003F309224C8
:1016000089313B2389317430F0003F30F1000330E1
:10161000F20000303B2389317530752489313B233A
:1016200089311630FD000030D82189311630FD0097
:101630000130EC2189311630FD0000300122893162
:101640002230F0000530C323893164006F238931D3
:10165000D0302000CA000730CB0020004A084B04DD
:101660000319382B0130CA020030CB3B00002D2B70
:1016700001008931BC29F3002300951715151512B7
:101680001513951670089100730892007208930064
:10169000710894009A238931230095129A23893185
:1016A00023001511640023009518532B64002300B8
:1016B0009513962CF1007008230091007108920098
:1016C00015139517151400000000000000006400B9
:1016D00023001518682B640023009513962C8B119A
:1016E0002700111121000C0804388C0020009501FE
:1016F0008B121C1121009110280095011711210057
:1017000093100B138B1323009D139D179E121D1214
:101710002100911212309700652421009D012700BD
:10172000131120009310911093110B138B132300AE
:101730009D13080055309600AA30960095140000BD
:10174000000000000000080016307D06031D0800A0
:101750007008230091007108920015139517151653
:1017600015159A2389312300151164002300151AD9
:10177000B62B640023009518BA2B951392014030C4
:101780009100FD010800F10023009518C42B710899
:1017900091009201700893003F30950503108B1B58
:1017A00003148B13151555309600AA309600951426
:1017B000151103188B170800FF308C008D000630C0
:1017C0008E0029309D009E131E179E161E129E101D
:1017D0001E1023008E1120008E118E1223008D12F8
:1017E0000C110E138E130E1022000E138E130E12F8
:1017F000080023009D171E159F1503309B009C01B8
:101800001E1208000130C701C801C9004808F000D5
:1018100049085A23893193307B24893120004708B5
:1018200026248931C70094307B2489314708262437
:101830008931C700C80A0319C90A09304902903022
:1018400003194802031C062C47080800FB00710816
:10185000F8007008F7000130F2020030F33B720F1D
:10186000342C730A0319502C7708860078088700F7
:101870000108F4000430F436890B3B2C7B0E0F3941
:1018800074065224893177088600780887007B0E19
:101890000F39010652248931F70A0319F80A2B2C53
:1018A0007B080800F9000F30FA017905F4009A303E
:1018B000F501740784008C30753D85000008F60042
:1018C0007B0EF0397606FB00080025009301280006
:1018D0001E1120008E118E12250091010800F000CB
:1018E0001230F1000A30F2000034F0003F30F10015
:1018F0000030F2010800F0000130F100F201F20ABC
:10190000F3010800F0001130F1008A30F2000034D9
:10191000F0002930F1000030F2010800F1008A30B7
:10192000F2000034F1000430F20000349201403043
:1019300091000800003407340E3409341C341B3481
:101940001234153438343F343634313424342334AB
:101950002A342D346400013080010131FE02003050
:10196000FF3B7F087E0403190034AB2CFF3FFF3F91
:103000002D3FFF3FFF3FFF3FFF3FFF3FFF3FFF3FA2
:020000040001F9
:04000E00CCCFFFFF55
:00000001FF
