:1015B0008A31DC2AFF3FFF3F8A31DE2A3D3084003A
:1015C00022308500B330FE000130FF008D31272529
:1015D0008A312030FC01FD01840000308500253077
:1015E000FE000030FF008D3127258A3120008D2B31
:1015F000F400B830F000F101A9248A317408B83041
:10160000F0003F30F1000319092B3330F2000030B5
:10161000412C0030F201412CF400D030F000F101F7
:10162000A9248A317408D030F0003F30F10003194A
:101630001D2B2730F2000030412C1130F200003019
:10164000412CF5008B13F001F101A9248A316400CB
:10165000003031238A31640075085D238B136400E8
:101660000800F4008B13003A03193A2B013A0319CE
:10167000492B5C2B1130F0011D258A3141248A3120
:10168000123017258A3141248A31023021258A31CE
:10169000412C1530F0011D258A3141248A31163044
:1016A00017258A3141248A310230F0002930F100B7
:1016B000B030F2000030412C0800F4008B13003AE7
:1016C0000319662B013A0319782B8C2B0430112552
:1016D0008A3141248A310530F6248A3141248A3105
:1016E0000630F0002930F1000430F2000030412CC7
:1016F0000430F00015301D258A3141248A3105302F
:10170000F6248A3141248A310630F0002A30F10073
:10171000DC30F2000030412C080076248A3112308F
:10172000210097000B138B13640070302100990087
:101730002C309800C6248A31E3248A311D122100FE
:10174000911223009E12EC248A312030F0000030E8
:1017500061248A311408FB001308F9002130F000DD
:10176000003061248A311408F8001308FA007B085D
:101770003F3A031DBF2B78083F3A0319DF2B203077
:10178000F000F101A9248A31640003258A31412443
:101790008A316400FC248A3141248A3164000A259C
:1017A0008A3141248A3164002330F0003F30F10057
:1017B0007808F200003041248A3164000C2C20307B
:1017C000F000003061248A311308F90064002130F0
:1017D000F000003061248A311308FB0064002230DD
:1017E000F000003061248A311308FA0064002030D0
:1017F000F000F101A9248A31640003258A314124D3
:101800008A316400FC248A3141248A3164000A252B
:101810008A3141248A3164002330F0003F30F100E6
:101820000630F200003041248A31243011258A31FB
:1018300041248A312530F6248A3141248A312630E8
:1018400021258A3141248A310030F8228A31013041
:101850000C238A31003021238A31640076248A31B6
:101860008830F6001330F7007708760403193E2C11
:101870000130F6020030F73B0000342C01008A31C1
:10188000DC2AF3002300951715151512151395166C
:101890007008910073089200720893007108940018
:1018A0009F248A31230095129F248A312300151129
:1018B000640023009518592C6400230095139201AD
:1018C0000800F100700823009100710892001513C0
:1018D00095171514000000000000000064002300AC
:1018E00015186F2C64002300951308008B11270036
:1018F000111121000C15200095018B121C112100E3
:101900009110280095011711210093100B138B13D0
:1019100023009D139D179E121D122100911212305B
:101920009700EC2421009D01270013112000931043
:10193000911093110B138B1323009D130800553046
:101940009600AA30960095140000000000000000E8
:1019500008007D08163A031D080070082300910056
:101960007108920015139517151615159F248A31C5
:101970002300151164002300151ABB2C64002300FA
:101980009518BF2C95139201FD010800FF308C00C3
:101990008D0006308E0029309D009E131E179E1666
:1019A0001E129E101E1023008E1120008E118E120A
:1019B00023008D120C110E138E130E1022000E1325
:1019C0008E130E12080023009D171E159F15073059
:1019D0009B009C011E1208002500930128001E1187
:1019E00020008E118E12250091010800F0001230A7
:1019F000F1000A30F20000342130F0003F30F100F5
:101A00007B08F20000342030F0003F30F10079080C
:101A1000F20000342230F0003F30F1007A08F2008A
:101A20000034F0001130F1008A30F2000034F0018F
:101A3000F00AF1000A30F2000034F1008A30F200BE
:101A40000034F0002930F1000030F2010800640099
:101A5000013080010131FE020030FF3B7F087E042F
:101A600003190034282DFF3FFF3FFF3FFF3FFF3F9B
:020000040001F9
:02000E00CCCF55
:00000001FF
