:101370008931BC29FF3FFF3F8931BE293D308400C0
:1013800022308500B330FE000130FF008B31F9239D
:1013900089312030FC01FD018400003085002730B8
:1013A000FE000030FF008B31F92389312000542AE0
:1013B000F400B830F000F101752389317408B830B9
:1013C000F0003F30F1000319E9293330F20000301A
:1013D0000C2B0030F2010C2BF400D030F000F101A6
:1013E000752389317408D030F0003F30F1000319C3
:1013F000FD297408F20000300C2B1130F20000308F
:101400000C2BF5008B13F001F10175238931640079
:10141000102289316400750824228B1364000800AF
:101420008B131130F001EB2389310C2389311230F9
:10143000F001F00AF1000A30F20000300C2389318B
:101440000230E52389310C2BF4008B13003A031989
:101450002D2A013A03193F2A532A0430DF23893108
:101460000C2389310530C42389310C23893106309E
:10147000F0002930F1000430F20000300C2B043071
:10148000F0001530EB2389310C2389310530C4235A
:1014900089310C2389310630F0002930F100BC304D
:1014A000F20000300C2B080040238931123021005B
:1014B00097000B138B1364007830210099002C30B7
:1014C000980094238931B12389311D122100911292
:1014D00023009E12BA2389312030F00000302B23E4
:1014E00089311408FB001308F9002130F0000030A6
:1014F0002B2389311408F8001308FA003F307B06CB
:10150000031D862A3F3078060319A52AEF23893167
:10151000752389316400CA2389310C238931640021
:10152000D82389310C2389316400D12389310C23DC
:10153000893164002330F0003F30F1007808F20078
:1015400000300C2389316400D12A2030F0000030B3
:101550002B2389311308F90064002130F00000309A
:101560002B2389311308FB0064002230F000003087
:101570002B2389311308FA006400EF238931752386
:1015800089316400CA2389310C2389316400D8234E
:1015900089310C2389316400D12389310C238931AD
:1015A00064002330F0003F30F1002F30F2000030B3
:1015B0000C2389312430DF2389310C2389312530F4
:1015C000C42389310C2389312630E52389310C234A
:1015D00089311630FD000030D82189311630FD00E8
:1015E0000130EC2189311630FD00003001228931B3
:1015F0006400402389318830F6001330F700760804
:1016000077040319092B0130F6020030F73B000084
:10161000FF2A01008931BC29F30023009517151515
:101620001512151395167008910073089200720830
:101630009300710894006B238931230095126B236A
:10164000893123001511640023009518242B6400B0
:1016500023009513F52BF100700823009100710809
:1016600092001513951715140000000000000000EB
:10167000640023001518392B640023009513F52B03
:101680008B112700111121000C0804388C00200058
:1016900095018B121C112100911028009501171142
:1016A000210093100B138B1323009D139D179E1283
:1016B0001D122100911212309700BA2321009D01C2
:1016C0002700131120009310911093110B138B130B
:1016D00023009D13080055309600AA3096009514FB
:1016E0000000000000000000080016307D06031D09
:1016F00008007008230091007108920015139517D7
:10170000151615156B23893123001511640023006C
:10171000151A872B6400230095188B2B95139201C3
:1017200040309100FD010800FF308C008D00063034
:101730008E0029309D009E131E179E161E129E10AD
:101740001E1023008E1120008E118E1223008D1288
:101750000C110E138E130E1022000E138E130E1288
:10176000080023009D171E159F1503309B009C0148
:101770001E1208002500930128001E1120008E1162
:101780008E12250091010800F0001230F1000A309D
:10179000F20000342030F0003F30F1007908F20010
:1017A00000342230F0003F30F1007A08F2000034BB
:1017B0002130F0003F30F1007B08F2000034F000EF
:1017C0001130F1008A30F2000034F0002930F100CD
:1017D0000030F2010800F1008A30F20000341630C7
:1017E000FD002030F000F10108009201403091002E
:1017F00008006400013080010131FE020030FF3B2F
:101800007F087E0403190034FA2BFF3FFF3FFF3FA0
:020000040001F9
:02000E00CCCF55
:00000001FF
