:020000040000FA
:100000003DC0000056C0000054C0000052C00000B7
:1000100050C000004EC00000FCC1000045C20000FE
:1000200048C00000FFC1000044C0000042C0000002
:1000300040C0000030C200003CC000003AC00000D8
:10004000F9C1000036C0000034C0000032C000001A
:10005000CDC100002EC000002CC000002AC000004E
:1000600028C0000026C0000024C0000022C00000FC
:10007000C7C100001EC000001CC0000011241FBE2C
:10008000CFEFD8E0DEBFCDBF12E0A0E0B1E0ECE200
:10009000FCE002C005900D92A637B107D9F722E027
:1000A000A6E7B2E001C01D92AC39B207E1F702D079
:1000B000BBC520C214BE0FB6F894A895809160000D
:1000C000886180936000109260000FBE99E288E121
:1000D0000FB6F894A895809360000FBE90936000CF
:1000E00061E08EE190E092D5FAD0B0D08091C90065
:1000F00088608093C9008091C90080618093C900A5
:10010000179A109A429A80EF90E078D58130B1F03A
:1001100084EC99E028EC30E0F9013197F1F7019790
:10012000D9F7BCD2882329F061E080EF90E06ED54A
:1001300015C040E060E070E082EB0FC0359B0EC060
:1001400080EB94E028EC30E0F9013197F1F701976A
:10015000D9F740E060E070E083EB8FD081E08EBBA8
:10016000D8D280917C02882321F0809183028C3345
:1001700081F480917C02823020F080918402813B66
:1001800041F480917C02843030F0809186028E337D
:1001900011F010927C0280917C02853008F44CC0F2
:1001A0008091850220917C0290E0039630E08217D6
:1001B00093070CF041C080918402813B09F03AC062
:1001C00080918702811119C0F8948091C9008F7EB7
:1001D0008093C9008091C900877F8093C9009FD117
:1001E000A8D1BAD1AED0B8D062E481EF90E00ED5FC
:1001F000E0E1F7E00995A895FECF80918702813074
:10020000C9F4F8948091C9008F7E8093C9008091D1
:10021000C900877F8093C90082D18BD19DD191D0B5
:100220009BD062E481EF90E0F1D4E8EAFDE109952A
:10023000A895FECF10927C02359B03C0179A109AA6
:1002400002C0179810984298A8958BCF89E18093A7
:10025000CC00E8ECF0E08081826080838081806463
:100260008083E9ECF0E08081886180838081806810
:10027000808386E08093CA000895A2E0B0E0E2E4C3
:10028000F1E088C4082F142F8CE369837A836FD040
:10029000802F6DD0812F6BD08EE369D06981062FBE
:1002A000E62E7A81F72E8E2D801B811728F4F70118
:1002B00081917F015CD0F7CF2296E6E087C4E0EC25
:1002C000F0E0808182608083E1ECF0E080818068F2
:1002D00080831092C40086E08093C2000895089A3B
:1002E000109A0F9A179A3A9A429A3E9846985098BE
:1002F000589851985998539A5B9A52985A98559A87
:100300005D98569A5E98579A5F983F9A479A0A98CE
:100310001298219A29983D984598249A2C9A279AC0
:100320002F980B9A13983C9A44980895E8E6F0E0C9
:10033000808188608083E3E7F0E080818160808352
:100340000895E8E6F0E08081877F8083E3E7F0E0CE
:1003500080818E7F80830895E8E6F0E080818B7F46
:100360008083EDE6F0E080818F7B8083089590911B
:10037000C80095FFFCCF8093CE008091C80086FF17
:10038000FCCF8091C80080648093C8000895E1ECA0
:10039000F0E080818F7E80830895E1ECF0E0808141
:1003A000877F8083089580937602823089F028F4D5
:1003B000882349F0813049F00895843079F050F075
:1003C000853071F008955D9801C05D9A5E9804C013
:1003D0005D9801C05D9A5E9A5F9808955D9801C02E
:1003E0005D9A5E985F9A089550980895F0990C94DC
:1003F0000000F1990C94601CF2990C94C835189582
:10040000F0991DC2F1990C94901CF2990C9420362D
:100410001895F0990C940000F1990C94301CF29905
:100420000C949035F099D1C1F1990C94A81AF299D5
:100430000C94E8341F920F920FB60F9211242F9351
:100440003F934F935F936F937F938F939F93AF935C
:10045000BF93EF93FF938EB3823031F0843039F045
:10046000813041F4C3D106C0E8E8F3E102C0E8EF0F
:10047000F3E30995FF91EF91BF91AF919F918F9118
:100480007F916F915F914F913F912F910F900FBE90
:100490000F901F901895F0990C940000F1990C940E
:1004A0006814F2990C9478341F920F920FB60F9241
:1004B00011242F933F934F935F936F937F938F9369
:1004C0009F93AF93BF93EF93FF938EB3813009F463
:1004D0003DD1FF91EF91BF91AF919F918F917F910E
:1004E0006F915F914F913F912F910F900FBE0F90A1
:1004F0001F9018951F920F920FB60F9211240F9014
:100500000FBE0F901F90189582E08093B00094E08A
:100510009093B100809370001092B20008951092F1
:10052000B100109270001092B20008958093B30051
:1005300008951092810010926F0010928500109221
:100540008400089582E084BD94E095BD80936E00A0
:1005500016BC8FEF87BD089515BC10926E0016BCB7
:10056000089587BD0895CF92DF92EF92FF921F9377
:10057000CF93DF937C0110E088EEC82E83E0D82E65
:10058000C12FD0E0C70131D3C817D90748F4C6013D
:100590000197F1F7CE0DDF1D8881E9DE1F5FF0CFF7
:1005A000DF91CF911F91FF90EF90DF90CF90089552
:1005B00081E091E0D8CF089586E191E0D4CF08950D
:1005C0008DE391E0D0DF82E691E0CDDF8FE991E02D
:1005D000CACF08958BED91E0C6CF08958EEF91E0DC
:1005E000C2CF08958DE192E0BECF089589E392E0F5
:1005F000BADF88E592E0B7CF08958F929F92AF92CD
:10060000BF92CF92DF92EF92FF92BC0180E090E028
:100610009CD14B015C0120E030E04AEF54E423D24E
:100620006B017C0120E030E040E85FE35ED187FDB4
:1006300020C020E03FEF4FE757E4C701B6010FD2DB
:1006400018169CF420E030E040E251E4C501B4010A
:100650000AD24FD128EC30E06115710579F0C9015B
:100660000197F1F761507109F7CFC701B60141D188
:1006700002C061E070E0CB010197F1F7A895FF900F
:10068000EF90DF90CF90BF90AF909F908F900895A4
:10069000479885E090E0B1DF479A0895CF9384EFC3
:1006A00091E0ABDFF5DF84E79EE0A7DFCAE096B11B
:1006B000892F807295FF08C0C15021F085E090E03D
:1006C0009CDFF5CF80E023C0CC2309F175DF84E106
:1006D00090E093DF75DF84E190E08FDF7BDF84E1E2
:1006E00090E08BDF7BDF84E190E087DF7BDF84E1DC
:1006F00090E083DF7BDF84E190E07FDF84E190E0C6
:100700007CDF56DFC5DF84E79EE077DF81E0CF91B5
:100710000895D5DD3CDE41DEEDE7F2E0108281E0B8
:10072000818382E0828383E0838384E0848385E025
:10073000858386E080938D0257DEF8DD7894EFDEC6
:1007400080E031DEFFDE8FEF0CCF0895489B39C08B
:10075000E6DE809199028A3040F4E0919902F0E05F
:1007600080919B02E157FD4F8083809199028F5FBA
:100770008093990280919902863000F1299AECDEEB
:10078000E0DD80918E0280930001809191028330A0
:1007900040F0809100018093780281E0809379029B
:1007A00006C080910001809378021092790242E0A5
:1007B00068E772E080EB61DDC5DE299810929B024C
:1007C0000895A2DE84E0B2CE08951F920F920FB674
:1007D0000F9211248F9380919B028F5F80939B02D5
:1007E0008F910F900FBE0F901F90189580919A02D5
:1007F0008F5F80939A0280919A028630F8F0299A4E
:10080000A0DD10929A0280918E028F5F80938E02FB
:1008100090918E0280918D02981710F010928E02A6
:100820007EDE10929B0210929902E0918E02F0E01F
:10083000E358FD4F8081B7DD79DD299808951F9237
:100840000F920FB60F9211242F933F934F935F9304
:100850006F937F938F939F93AF93BF93EF93FF9388
:10086000CF93DF931F92CDB7DEB78091C80083FD91
:1008700004C08091C80084FF04C08091CE008983A9
:1008800020C08091CE00898380917C0281110EC0AE
:100890008981813659F48CE36ADD8CE668DD81E07C
:1008A00066DD8EE364DD82E662DD0BC0E0917C02F2
:1008B00081E08E0F80937C02F0E08981ED57FD4F3F
:1008C00080830F90DF91CF91FF91EF91BF91AF9116
:1008D0009F918F917F916F915F914F913F912F9158
:1008E0000F900FBE0F901F9018956CD008F481E008
:1008F000089594D088F09F5790F0B92F9927B75159
:10090000A0F0D1F0660F771F881F991F1AF0BA95D3
:10091000C9F712C0B13081F09BD0B1E0089598C002
:10092000672F782F8827B85F39F0B93FCCF38695C9
:1009300077956795B395D9F73EF490958095709526
:1009400061957F4F8F4F9F4F0895E89409C097FBA3
:100950003EF490958095709561957F4F8F4F9F4F96
:100960009923A9F0F92F96E9BB279395F6958795DA
:1009700077956795B795F111F8CFFAF4BB0F11F49D
:1009800060FF1BC06F5F7F4F8F4F9F4F16C0882344
:1009900011F096E911C0772321F09EE8872F762F7A
:1009A00005C0662371F096E8862F70E060E02AF0BB
:1009B0009A95660F771F881FDAF7880F96958795A7
:1009C00097F90895990F0008550FAA0BE0E8FEEF7C
:1009D00016161706E807F907C0F012161306E40703
:1009E000F50798F0621B730B840B950B39F40A26FC
:1009F00061F0232B242B252B21F408950A2609F4DA
:100A0000A140A6958FEF811D811D089557FD905837
:100A1000440F551F59F05F3F71F04795880F97FBC2
:100A2000991F61F09F3F79F087950895121613067C
:100A30001406551FF2CF4695F1DF08C016161706AB
:100A40001806991FF1CF86957105610508940895E0
:100A5000E894BB2766277727CB0197F90895B2DF83
:100A600008F48FEF08950BD078C069D028F06ED0CD
:100A700018F0952309F05AC05FC01124EACFC6DFF1
:100A8000A0F3959FD1F3950F50E0551F629FF001A1
:100A9000729FBB27F00DB11D639FAA27F00DB11DFA
:100AA000AA1F649F6627B00DA11D661F829F222783
:100AB000B00DA11D621F739FB00DA11D621F839F0A
:100AC000A00D611D221F749F3327A00D611D231FE0
:100AD000849F600D211D822F762F6A2F11249F572E
:100AE00050408AF0E1F088234AF0EE0FFF1FBB1F51
:100AF000661F771F881F91505040A9F79E3F5105F0
:100B000070F014C0A6CF5F3FECF3983EDCF38695FF
:100B100077956795B795F795E7959F5FC1F7FE2B9A
:100B2000880F911D9695879597F9089597F99F6776
:100B300080E870E060E008959FEF80EC0895002465
:100B40000A941616170618060906089500240A9432
:100B500012161306140605060895092E0394000CB8
:100B600011F4882352F0BB0F40F4BF2B11F460FF47
:100B700004C06F5F7F4F8F4F9F4F08952F923F921A
:100B80004F925F926F927F928F929F92AF92BF929D
:100B9000CF92DF92EF92FF920F931F93CF93DF9349
:100BA000CDB7DEB7CA1BDB0B0FB6F894DEBF0FBEA6
:100BB000CDBF09942A88398848885F846E847D84F3
:100BC0008C849B84AA84B984C884DF80EE80FD80F5
:100BD0000C811B81AA81B981CE0FD11D0FB6F8946B
:100BE000DEBF0FBECDBFED010895FC0101900020D6
:100BF000E9F7809590958E0F9F1F0895F999FECF84
:100C000092BD81BDF89A992780B50895262FF9994C
:100C1000FECF1FBA92BD81BD20BD0FB6F894FA9ADF
:100C2000F99A0FBE01960895F894FFCFFF61742BD7
:100C3000616220636F6E6669672052657365740D2B
:100C40000A0061742B616220636F6E6669672053CE
:100C5000747265616D696E6753657269616C203D80
:100C60002066616C73650D0A0061742B61622063FC
:100C70006F6E666967206941504170704944203D3C
:100C80002048354D5548535153504B0D0A0061745F
:100C90002B616220636F6E666967206941505072F4
:100CA0006F746F636F6C5374724D61696E203D2079
:100CB000636F6D2E6D6F64726F626F746963732EF4
:100CC000637562656C6574730D0A0061742B6162F3
:100CD00020636F6E6669672069415050726F746F50
:100CE000636F6C537472416C74203D20636F6D2E82
:100CF0006D6F64726F626F746963732E6375626582
:100D00006C6574730D0A0061742B616220636F6EF1
:100D10006669672044656661756C745365637572B6
:100D2000697479203D20340D0A0061742B616220C2
:100D3000636F6E6669672044656661756C744175A2
:100D40007468203D20340D0A0061742B61622063B9
:100D50006F6E66696720434F44203D203234303740
:100D600030340D0A0061742B6162204175746F523A
:100D700065636F6E6E6563745365747570203220A1
:100D8000350D0A0061742B6162204175746F5265E4
:100D9000636F6E6E65637420656E61626C650D0ACB
:100DA00000003F3F3F3F3F3F3F3F3F3F3F3F3F3FD1
:100DB0003F3F3F3F3F3F3F3F3F3F3F3F3F3F3F3F43
:100DC0003F3F3F3F3F3F3F3F3F3F3F3F3F3F3F3F33
:100DD0003F3F3F3F3F3F3F3F3F3F3F3F3F3F3F3F23
:100DE0003F3F3F3F3F3F3F3F3F3F3F3F3F3F3F3F13
:100DF0003F3F3F3F3F3F3F3F3F3F3F3F3F3F3F3F03
:100E00003F3F3F3F3F3F3F3F3F3F3F3F3F3F3F3FF2
:100E10003F3F3F3F3F3F3F3F3F3F3F3F3F3F3F3FE2
:100E200046C0000060C000005EC000005CC0000062
:100E30005AC0000058C0000056C0000054C0000056
:100E400052C0000050C000004EC000004CC0000066
:100E50004AC0000048C0000046C0000044C0000076
:100E600042C0000040C000003EC000003CC0000086
:100E70003AC0000038C0000036C0000034C0000096
:100E800032C0000030C000002EC000002CC00000A6
:100E90002AC0000028C0000026C000008F169A1645
:100EA0003918361839189517B117111873171124F6
:100EB0001FBECFEFD8E0DEBFCDBF11E0A0E0B1E0B4
:100EC000E4EEF2E202C005900D92AE31B107D9F71F
:100ED00023E0AEE1B1E001C01D92AE3AB207E1F706
:100EE000B2D10C9470119CCFE1ECF0E080818F7E48
:100EF000808350983E9808959091C00095FFFCCF54
:100F00008093C60008951092B20010927000109263
:100F1000B1000895E0ECF0E0808182608083E1EC34
:100F2000F0E08081806880831092C40086E0809326
:100F3000C2000895E0ECF0E0808182608083E1EC03
:100F4000F0E08081806880831092C40086E0809306
:100F5000C2000895089A109A0F9A179A3A9A429ADC
:100F60003E98469850985898519A5998539A5B9839
:100F700052985A98559A5D98569A5E98579A5F98E3
:100F80003F9A479A0A981298219829983D9845982F
:100F90003C9888B18F6E88B90895CF92EF920F93E5
:100FA00090919601992311F0CC20B1F190916503B5
:100FB0009E3190F595E09E1578F5E0916503F0E09F
:100FC000E75CFD4F8083E0916503F0E0E55EFD4F57
:100FD0006083E0916503F0E0E350FE4F4083E091D1
:100FE0006503F0E0E054FE4F2083E0916503F0E0FC
:100FF000E252FE4F0083E0916503F0E0EE55FE4FB4
:10100000E082E0916503F0E0E95AFD4FC0828091F3
:1010100065038F5F809365030F91EF90CF900895E4
:1010200020916503215020936503E0916503F0E072
:10103000E75CFD4F2081FC01E75CFD4F2083E091E0
:101040006503F0E0E55EFD4F2081FC01E55EFD4FAC
:101050002083E0916503F0E0E350FE4F2081FC0126
:10106000E350FE4F2083E0916503F0E0E054FE4F33
:101070002081FC01E054FE4F2083E0916503F0E005
:10108000E252FE4F2081FC01E252FE4F2083E091AC
:101090006503F0E0EE55FE4F2081FC01EE55FE4F5A
:1010A0002083E0916503F0E0E95AFD4F2081FC01C7
:1010B000E95AFD4F2083E0916503F0E0E75CFD4FC6
:1010C0008AE78083E0916503F0E0E55EFD4F808371
:1010D000E0916503F0E0E350FE4F8083E09165030B
:1010E000F0E0E054FE4F8083E0916503F0E0E252CF
:1010F000FE4F8083E0916503F0E0EE55FE4F808364
:10110000E0916503F0E0E95AFD4F808308958093F4
:1011100078028230910591F028F4009751F0019700
:1011200051F008958430910579F050F0059771F0F1
:1011300008955D9801C05D9A5E9804C05D9801C0F5
:101140005D9A5E9A5F9808955D9801C05D9A5E9879
:101150005F9A0895109A089510980895E9ECF0E0C8
:10116000808180688083E8ECF0E080818260808309
:1011700089E18093CC0086E88093CA000895F999AC
:10118000FECF92BD81BDF89A80B50895F999FECF42
:1011900092BD81BD60BDFA9AF99A08952C9A08957E
:1011A0002C9808958EBD0DB407FEFDCF8EB5089521
:1011B000F7DF85E0F7DF80935A03809102018130E9
:1011C00059F48FEFEFDF809361018091610180FD21
:1011D000F4CF10920201F1CF81E080930201DECFC3
:1011E00008959091C80095FFFCCF8093CE0008959C
:1011F0001092810010928500109284001092890054
:1012000010928800EFE6F0E080818D7F8083089562
:101210008DE0809381001092850010928400EFE6AB
:10122000F0E0808182608083089584B5826084BD0F
:1012300082E387BD83E085BD16BCEEE6F0E08081E9
:10124000826080830895A9E0B0E0E9E2F9E00C94BF
:10125000541114BE0FB6F894A8958091600088616F
:1012600080936000109260000FBE99E288E10FB693
:10127000F894A895809360000FBE90936000F89456
:1012800088E893E19A83898388E694E19A83898345
:1012900088EA9AE19A83898380E39CE19A8389832F
:1012A00080E69CE19A83898380E99CE19A83898323
:1012B00082E08EBB81EF90E0BBD7182F823421F4FF
:1012C00060E081EF90E0BCD784E080937F0391E001
:1012D0009093760310927503F89490930F01909376
:1012E00010012FE088E10FB6F894A8958093600074
:1012F0000FBE20936000A8953B9A43981092760306
:1013000010925C0380E180935D0390935B038AE01D
:1013100090E090938900809388007ADF88EC90E0D9
:101320002EDF80937E0389EC90E029DF80937D039C
:101330008AEC90E024DF80937C0310DF9091C90059
:1013400098609093C9009091C90090619093C900F2
:1013500001DE84E690E013DF8093A10385E690E050
:101360000EDF8093A20386E690E009DF8093A3035B
:1013700087E690E004DF80930E019091A1038091B5
:10138000A2032091A303980F920F90937B03909157
:101390007B0380910E01981739F09FEF9093A10382
:1013A0009093A2039093A30381E090E0B0DE04E069
:1013B0000093680080E480936D0037DF82E08093C3
:1013C000B0000093B300179A109A429A81E080937C
:1013D0000F018093100180911601813021F48093D8
:1013E000150198DD01C0A6DD80911601813009F458
:1013F00046C0249A2C9A2698259A279A8CE58CBD6B
:10140000CFDE86E0CFDE80935A03C8DEC9DE89E3F3
:10141000C9DE80935A0380E0C5DE80935A0380E0E2
:10142000C1DE80935A0380E0BDDE80935A03B6DEAE
:1014300010929A01429A78944091A1036091A2037C
:101440008091A303F2E9CF2EA0EAEA2E00E022E683
:10145000A4DD82ED90E0BFD59093A9038093A8030B
:101460001092A4031092A50381ED8093A60310921D
:10147000A703359B18C081E08093870314C01092A6
:1014800098011092970120E030E0F901E15AFC4FF9
:101490001082F901E758FD4F10822F5F3F4F263031
:1014A000310599F7A6CF7894123451F48CE399DE84
:1014B0008FEB97DE81E095DE8EE393DE80E091DEB8
:1014C000A89580911601882341F080911601813002
:1014D00079F580911501813059F58091750381303E
:1014E00089F4809180039091810301969093810308
:1014F000809380038436910529F4359B02C042987D
:1015000001C0429A20919F012F5F20939F01822F5B
:1015100066E0A4D6892F90E090939E0180939D0170
:101520002F70822F90E0059690939C0180939B01F1
:1015300080919A01811101C0A895809183039091B7
:1015400084030196909384038093830380918203A4
:101550008F5F8093820380917603882309F457C0BC
:1015600080917603813071F008F44EC08230B9F179
:10157000833009F04CC0809183039091840360ED27
:1015800077E033C040915503509156036091570363
:10159000709158034431510561057105C0F1909176
:1015A0009901992389F0913091F51092990182E186
:1015B00090E0A0E0B0E08093550390935603A09391
:1015C0005703B093580322C080939901109255039A
:1015D00010925603109257031092580315C0809131
:1015E00083039091840364E670E044D6892B79F4F8
:1015F00080919901882329F0813049F41092990152
:1016000005C081E080939901A5DD01C0A5DD1092A0
:10161000880380917A03813021F4909116019923F7
:1016200069F090911601913009F09BC2813009F068
:1016300098C280911501813009F093C280915503C1
:1016400090915603A0915703B09158030196A11DA4
:10165000B11D8093550390935603A0935703B09305
:1016600058032091530330915403F9013297CF016D
:1016700067E070E0FFD570935203609351031092BE
:10168000140110921301F093A101E093A00180E0F6
:1016900090E0DC01A158BD4F8E179F0770F4409178
:1016A00013015C91450F40931301409114015C912B
:1016B0004527409314010196ECCF809114019C9131
:1016C0008927809314011092140180915103909105
:1016D00052034E9780F0F89480916E008260809360
:1016E0006E0084E08093680080E480936D00109227
:1016F0007A03789436C2809114018111ECCF9091D5
:101700001301F901E258FD4F80819813E4CFE09175
:101710001201F0E0E758FD4F81E0808386E090E021
:1017200020E030E0409151035091520324173507D7
:1017300098F4FC01E158FD4F408147FF03C0408110
:10174000463830F0FC01E358FD4F40814F5F408345
:101750002F5F3F4F0796E6CF80918302813009F0DB
:1017600044C080918502803441F0809185028823B5
:1017700021F0809185028130C1F580917802A4E04A
:101780008A9FC001112420917F02DC01A757BC4F22
:101790003C91321731F020917F022C9321E020936D
:1017A000590320918002FC01E657FC4F308132172B
:1017B00031F020918002208321E020935903209171
:1017C0008102FC01E557FC4F8081821731F0809146
:1017D0008102808381E0809359038BE013968C9380
:1017E000809183028F5F8093830280918502803491
:1017F00019F480E58093850243E0442E512C662441
:101800006394712C62E0862E912C77E0F72EE4E051
:10181000DE2E10E5140152E0251A31082091510303
:1018200030915203F29EC001F39E900D11242816B0
:10183000390608F0BEC0F401ED57FD4F5F0180810D
:10184000833751F590918503913031F510928503DE
:1018500040917403609173038091720320E9C22E5A
:1018600035E2E32E00E020E09F8397DB8AE5B9DCD8
:1018700073DCD0925E03FAE0F0935D0310925C0398
:1018800010925B039F8190936C0344EF51E050935F
:10189000890040938800BCDCD5018C91813069F4CB
:1018A0001C93F201E158FD4F808180937702809173
:1018B00012018093110180917702F50180818736B2
:1018C00019F08081893611F410926503D5018C914D
:1018D000873619F08C918A3619F4B1E0B09376020C
:1018E000F50180818D3611F410927602D5018C912C
:1018F0008B3639F4F201E158FD4F808180937502F7
:101900001C93F5018081823649F0F101E158FD4FC9
:1019100090818091A30398132AC019C000E0802F02
:1019200090E020915103309152038217930768F79A
:10193000FC01E95AFD4F208127FF03C02081263892
:1019400018F020812E3609F46BDB0F5FE8CFD3014E
:10195000A158BD4F9C918091A203981308C0D40157
:10196000A158BD4F9C918091A1039817C1F0D5015A
:101970008C918336A1F4D401A158BD4F4C91D30171
:10198000A158BD4F6C91808104E6C02E98ECE92EE1
:1019900000E023E702DBF501108310927602F7E006
:1019A0008F0E911C27E0620E711C47E0440E511C03
:1019B00031CFF2E0AF2EB12CA3E08A2E912CB4E00F
:1019C0004B2E512C15E0612E712CF5013297209190
:1019D00051033091520347E0429FC001439F900D55
:1019E0001124E817F90708F076CE95012D573D4FE1
:1019F000D9018C91803509F4A7C0A50142585D4FEB
:101A000059874887DA019C918091A203981309C0F5
:101A1000C50181589D4FDC019C918091A1039817CD
:101A2000D1F06091FC0180E090E08F0101581D4FE2
:101A3000A50141585D4F5C834B83D201A158BD4F36
:101A40001D01A40141585D4F5E834D83D301A15810
:101A5000BD4F6D0114C0CF0181589D4FDC019C9199
:101A60008091A3039813DDCF6FC0D8017C91AC01A6
:101A7000475C5D4FDA014C91741741F0019640913B
:101A8000650350E08417950780F33BC0A885B985AE
:101A90007C91AC01455E5D4FDA014C917413EECF41
:101AA000AB81BC817C91AC0143505E4FDA014C911B
:101AB0007413E4CFD9017C91AC01495A5D4FDA012E
:101AC0004C917413DBCFD1017C91AC0142525E4F3B
:101AD000DA016C91671798F0AD81BE81FC90BC0172
:101AE00060547E4FDB01FC92D1016C91DA016C9362
:101AF000D6016C91AC014E555E4FDA016C9361E0FA
:101B0000BDCF6093FC0161111DC0D901CC90C30110
:101B100081589D4FDC01EC90C20181589D4FDC0142
:101B20000C91C40181589D4FDC012C91C501815855
:101B30009D4FDC014C91A885B9856C91E158FD4F12
:101B400080812BDA1092FC01B7E06B0E711CE7E08C
:101B50004E0E511CF7E08F0E911C27E0A20EB11C17
:101B600034CF80915903813079F4809186038111BB
:101B70000BC080918703813039F410925903809112
:101B80007103811101C0E9D19091A703992309F450
:101B900097CC8091A403E091A803F091A903E80FEA
:101BA000F11D80818332C1F4809179038111B5C127
:101BB000809178038111B1C1B5D185E212DBCCDA15
:101BC00061E08EE190E0E2DA82E390E092BD81BDD7
:101BD00081E08093870374CC833309F040C0809107
:101BE000790381119AC180917803811196C1809106
:101BF0007703811192C111E010938603109376034D
:101C00001093750310928100109285001092840049
:101C1000109289001092880080916F008D7F8093D0
:101C20006F0080D110931601BBDA86E0BBDA809397
:101C30005A03B4DAB5DA82E5B5DA80935A0380E064
:101C4000B1DA80935A0380E0ADDA80935A0380E0E2
:101C5000A9DA80935A03A2DAABDA84E330CC853375
:101C600079F480917903811158C1809178038111B1
:101C700054C180917703811150C11092870350C1E4
:101C8000843509F03AC080917903811146C1809171
:101C90007803811142C18091770381113EC181E0B7
:101CA00080937803943008F41EC13CD13BD19091CD
:101CB000A303891318C136D19091A203891313C1CC
:101CC00031D19091A10389130EC1F89461E08AE0AB
:101CD00090E05CDA60E08EE190E058DA82E390E038
:101CE00092BD81BD98E088E10FB6F894A8958093E5
:101CF00060000FBE90936000FFCF8133B9F48091F4
:101D0000790381110AC180917803811106C10AD13A
:101D100040917403609173038091720371E7C72E41
:101D2000E5E2EE2E00E020E038D9CACB883391F509
:101D3000809179038111F1C0809178038111EDC008
:101D4000809177038111E9C011E0109378039330FB
:101D500008F4C9C0E7D010937103E4D080937003F6
:101D6000E1D080936F0310926E0310926D03109276
:101D70006C0310926B0310926A0310937703109315
:101D8000780310937903109269031092680382E537
:101D900028DAA9C08136A1F4809179038111BDC0F0
:101DA000809178038111B9C0BDD0F8948CE319DA21
:101DB0008CE617DA80E015DA8EE313DA789480CBBC
:101DC0008D3691F4809179038111A7C080917803B9
:101DD0008111A3C0A7D081E0809387038091710314
:101DE00081116ECBBAD06CCB8C3409F04FC080918E
:101DF0007903811192C08091780381118EC011E026
:101E00001093780310937103109267031092660386
:101E1000943008F468C086D01092650310925F0376
:101E20001092600310926103109262031092630398
:101E30001092640377D08093720374D080937303FD
:101E400071D0809374034091740360917303809107
:101E5000720332E6C32E56E1E52E01E02DE79DD850
:101E600086E080935E038AE080935D0310925C03BA
:101E700010925B0310936C0384EF91E090938900C0
:101E800080938800C5D9109385032DC0873571F5DF
:101E900080917903811141C08091780381113DC007
:101EA00081E0809378039430F0F03CD01092650389
:101EB00039D08093720336D08093730333D08093EC
:101EC00074031092650340917403609173038091D1
:101ED000720391E6C92E22E3E22E00E020E05DD8F5
:101EE00082E57FD939D910927803EACA8837A9F4F4
:101EF00080917903811111C08091780381110DC007
:101F000011D0F89498E088E10FB6F894A8958093E2
:101F100060000FBE90936000FFCF992309F4D0CAF0
:101F200001D0CECA8091A7038823B1F09091A40379
:101F3000E091A803F091A903E90FF11D20819F5FB3
:101F40009093A4033091A603391710F41092A403C0
:101F500081508093A703822F0895CF93DF93F89445
:101F60008CE33FD98EE63DD985E13BD98EE339D963
:101F70008091A30336D98091A20333D98091A10324
:101F800030D9C9E8D3E088812CD989812AD98A81BE
:101F900028D98C8126D98D8124D98E8122D9888512
:101FA00020D989851ED98A851CD98C851AD98D8519
:101FB00018D98E8516D9888914D9898912D98A8920
:101FC00010D98C890ED98D890CD98E890AD978942B
:101FD000DF91CF910895CF93DF938230910510F474
:101FE00082E090E0E091AC03F091AD0320E030E0BE
:101FF000C0E0D0E0309711F1408151814817590776
:10200000C0F04817590761F482819381209719F035
:102010009B838A832BC09093AD038093AC0326C02F
:102020002115310519F04217530718F49A01BE0122
:10203000DF01EF010280F381E02DDCCF21153105B6
:1020400009F1281B390B2430310590F412968D913B
:102050009C9113976115710521F0FB019383828395
:1020600004C09093AD038093AC03FD01329644C04D
:10207000FD01E20FF31F81939193225031092D93BB
:102080003C933AC02091AA033091AB03232B41F437
:102090002091190130911A013093AB032093AA03C8
:1020A00020911701309118012115310541F42DB708
:1020B0003EB740911B0150911C01241B350BE09150
:1020C000AA03F091AB03E217F307A0F42E1B3F0B1A
:1020D0002817390778F0AC014E5F5F4F241735079A
:1020E00048F04E0F5F1F5093AB034093AA038193B8
:1020F000919302C0E0E0F0E0CF01DF91CF9108952D
:102100000F931F93CF93DF93009709F48CC0FC01CA
:102110003297138212820091AC031091AD03011526
:10212000110581F420813181820F931F2091AA0330
:102130003091AB032817390779F5F093AB03E0939F
:10214000AA0371C0D80140E050E0AE17BF0750F4B9
:1021500012962D913C911397AD012115310509F18E
:10216000D901F3CF9D01DA0133832283608171812C
:10217000860F971F8217930769F4EC012881398134
:10218000260F371F2E5F3F4F318320838A819B812B
:1021900093838283452B29F4F093AD03E093AC0342
:1021A00042C01396FC93EE931297ED014991599119
:1021B0009E01240F351FE217F30771F4808191818E
:1021C000840F951F029611969C938E938281938122
:1021D00013969C938E931297E0E0F0E0D80112964C
:1021E0008D919C911397009719F0F8018C01F6CF0F
:1021F0008D919C9198012E5F3F4F820F931F2091EC
:10220000AA033091AB032817390769F4309729F4F2
:102210001092AD031092AC0302C01382128210938D
:10222000AB030093AA03DF91CF911F910F91089503
:10223000F999FECF92BD81BDF89A992780B508958E
:10224000262FF999FECF1FBA92BD81BD20BD0FB6D2
:10225000F894FA9AF99A0FBE01960895991B79E0BD
:1022600004C0991F961708F0961B881F7A95C9F726
:1022700080950895AA1BBB1B51E107C0AA1FBB1F75
:10228000A617B70710F0A61BB70B881F991F5A9502
:10229000A9F780959095BC01CD010895EE0FFF1F21
:1022A0000590F491E02D09942F923F924F925F9206
:1022B0006F927F928F929F92AF92BF92CF92DF9256
:1022C000EF92FF920F931F93CF93DF93CDB7DEB7BB
:1022D000CA1BDB0B0FB6F894DEBF0FBECDBF09944F
:1022E000F894FFCFDD64010700DD153A9568C19AC7
:1022F00084010101010A08DEDD01010000AE0320B6
:1023000000003F3F3F3F3F3F3F3F3F3F3F3F3F3F5B
:102310003F3F3F3F3F3F3F3F3F3F3F3F3F3F3F3FCD
:102320003F3F3F3F3F3F3F3F3F3F3F3F3F3F3F3FBD
:102330003F3F3F3F3F3F3F3F3F3F3F3F3F3F3F3FAD
:102340003F3F3F3F3F3F3F3F3F3F3F3F3F3F3F3F9D
:10271000CF93DF93809190019091910101969093D6
:1027200091018093900180918F018130D9F028F040
:102730008230E9F0833031F1AAC010926800109223
:102740006D0080919D0190919E0180931201809176
:10275000120190E00E948708509A58983E9A469835
:1027600081E003C050983E9882E087BD08C0809108
:10277000C10080618093C10086E087BD83E08093C3
:102780008F0185C00E9474078091C100886080938A
:10279000C100809192019091930190935403809392
:1027A0005303109293011092920180919B0190919A
:1027B0009C0187BD80919001909191018D3B924049
:1027C000A0F42091530330915403C901029767E0AC
:1027D00070E050DD90930401809303018091030128
:1027E00090910401892BC9F14AC010929101109275
:1027F0009001C0E0D0E08091650390E0C817D90750
:1028000070F4FE01EE55FE4F8081815080838081FF
:10281000853018F4CE010E9410082196ECCF8091EB
:1028200071038111CECFECE8F3E091E08081882341
:1028300071F081508083853050F4DF0113971C9232
:1028400011961C9211961C92108290935903349603
:1028500083E0E43AF80751F7B4CF2930310578F036
:1028600080916E008D7F80936E0081E080937A036B
:102870008CE087BD109291011092900106C084E017
:102880008093680080E480936D0010928F01DF9147
:10289000CF9108953F3F3F3F3F3F3F3F3F3F3F3F47
:1028A0003F3F3F3F3F3F3F3F3F3F3F3F3F3F3F3F38
:1028B0003F3F3F3F3F3F3F3F3F3F3F3F3F3F3F3F28
:1028C0003F3F3F3F3F3F3F3F3F3F3F3F3F3F3F3F18
:1028D0001F920F920FB60F921124CF92DF92EF92B8
:1028E000FF920F931F932F933F934F935F936F9399
:1028F0007F938F939F93AF93BF93EF93FF93CF9368
:10290000DF93CDB7DEB72697DEBFCDBF80915C03E6
:102910008F5F80935C0380915B03882309F4E4C19B
:1029200090915C0380915D03981708F4DDC180915C
:102930007103811114C035990CC0F89498E088E1B6
:102940000FB6F894A895809360000FBE9093600036
:10295000FFCF81E08093760380937503C5C180919A
:102960000D01813079F490917E01992339F09130F5
:1029700049F410927E010E94AA0804C080937E014F
:102980000E94AC0881E08093780380917A01909155
:102990007B01A0917C01B0917D018E83492F5A2F3C
:1029A0006B2F77274D83CD01AA27BB278C830E94ED
:1029B000D0088BE00E94D20880935A038C810E9439
:1029C000D20880935A038D810E94D20880935A03C3
:1029D0008E810E94D20880935A0383E60E94D20817
:1029E00080935A0300E010E08FEF0E94D208F801B4
:1029F000EA58FE4F80830F5F1F4F04301105A1F787
:102A00000E94CE08809177018093750180917701B3
:102A100090E090939801809397018091780190E0E5
:102A200090938401809383018091790190E0909349
:102A30008201809381018091830190918401209192
:102A4000810130918201982F8827820F931F9695DC
:102A500087959093800180937F0180917F01909171
:102A600080019093870180917F01909180018093F4
:102A70008601F090750180917A0190917B01A0917F
:102A80007C01B0917D010596A11DB11D8B83492F5D
:102A90005A2F6B2F77274A83CD01AA27BB2789831B
:102AA0000E94D0088BE00E94D20880935A0389814B
:102AB0000E94D20880935A038A810E94D208809390
:102AC0005A038B810E94D20880935A0383E60E94A6
:102AD000D20880935A0300E00F1591F0EE24E3949E
:102AE000E00E00FD02C00E2D01C0015010E08FEF7E
:102AF0000E94D208F801EE59FE4F80830E2DECCFD4
:102B00000E94CE08809167038F5F80936703809156
:102B100067038431B9F410926703809166038F5F75
:102B2000809366038CE30E94F10885E50E94F1081A
:102B300081E00E94F1088EE30E94F1088091660313
:102B40000E94F10880918701811105C08091860162
:102B5000873009F44FC080918701811105C08091B1
:102B60008601882309F446C08091970190919801CD
:102B70008E5F0E947C07809187010E947C07809174
:102B800086010E947C0720919701309198018091E5
:102B900087011091860118272E5F122780919701D7
:102BA000909198010091870190918601090F0E5F25
:102BB000080FE12CF12C8091970190919801E81673
:102BC000F90688F4C7018E599E4F6C01FC01808183
:102BD0000E947C07F601808118278081080FFFEF93
:102BE000EF1AFF0AE8CF812F0E947C07802F0E94F6
:102BF0007C0761C010925B0383E190E090939801A1
:102C0000809397018FE48093870180938601809160
:102C10009701909198018E5F0E947C0780918701B7
:102C20000E947C07809186010E947C072091970179
:102C300030919801809187011091860118272E5FAD
:102C400012278091970190919801009187019091AE
:102C50008601090F0E5F080FE12CF12C809197017E
:102C600090919801E816F90650F481E10E947C07E2
:102C700081E118270F5E8FEFE81AF80AEFCF812F56
:102C80000E947C07802F0E947C0782E080935E0375
:102C900080935D0310925C0310925B0381E080934C
:102CA0006C0384EF91E090938900809388000E94E8
:102CB00008090E94AA0880917A0190917B01A09155
:102CC0007C01B0917D01209175010896A11DB11D77
:102CD000820F911DA11DB11D80937A0190937B01FC
:102CE000A0937C01B0937D0180916C03882309F44B
:102CF000C0C190915C0380915D03981708F4B9C13D
:102D00000E94F808E0915E038E2F90E0FC0131975D
:102D1000E930F10508F0ADC1E25BF84FBFCA10928F
:102D20005C0380E180935D0381E080935B038AE034
:102D300090E070C1109269031092680310926F03C3
:102D4000109270033A9A42980E94AE088091C9008E
:102D500088608093C9008091C90080618093C90018
:102D60000E94AA0781E090E00E94870814E0109377
:102D7000680080E480936D000E94150982E08093D2
:102D8000B0001093B30080911601813029F4809334
:102D900015010E948A0702C00E949A0780911601BD
:102DA000813009F483C01092650310927903109268
:102DB00078038DED809314018EED809313011092B2
:102DC0005403109253031092A1011092A00110928B
:102DD00052031092510387E090E090930401809396
:102DE0000301109291011092900110928F011092A4
:102DF0008B0110929E0110929D0110929C011092E5
:102E00009B011092FC0110929F011092750210928A
:102E10008A01109277021092890110928801109213
:102E20007903109278031092550310925603109272
:102E300057031092580381E0809399018093160103
:102E4000109298011092970110928C0110928701B4
:102E500010928601809315011092850110928401D1
:102E600010928301109282011092810110928001D0
:102E700010927F0188E080931201109277031092E4
:102E80006B0310926A0310926E0310926D030E94FE
:102E9000AA080E94AA088CE30E94F10888E50E9413
:102EA000F10880E00E94F1088EE3D6C010929801EC
:102EB0001092970110925F031092600310926103C9
:102EC00010926203109263031092640310927902CD
:102ED00010927A0210927B0210927C0210927D0274
:102EE00010927E0260CF1092780310928E011092A1
:102EF000650330E6C32E4AEAE42E00E020E040E01D
:102F000060E080E00E94CD070E94AC088CE30E9444
:102F1000F10888E50E94F10880E00E94F1088EE344
:102F20000E94F10810921601A4C01092650340910E
:102F30007403609173038091720392E7C92E2CE0B1
:102F4000E22E01E021E00E94CD0787E080935E033E
:102F50008AE080935D0310925C0310925B0381E032
:102F600055C080916E008D7F80936E000E94830714
:102F7000109215011092680010926D000E94740763
:102F80008091C10088608093C100109265030BE8B6
:102F900013E0E12CF12C80917203F80132979081BB
:102FA00098130FC08091730331969081981309C0D4
:102FB00080917403F8019081981303C0C7010E94A7
:102FC0008708FFEFEF1AFF0A0C5F1F4F86E0E81635
:102FD000F10409F78091C00082608093C000809165
:102FE000C10080688093C10088E08093C40086E0BF
:102FF0008093C20010928C0181E080935E039AE07E
:1030000090935D0310925C0310925B0380936C03BA
:1030100084EF91E090938900809388000E940809D2
:1030200028C010928D0110927703109279031092AC
:103030006E0310926D030E94CE080E94D8089091F2
:10304000690380916F0398130AC09091680380917F
:103050007003981304C089E50E94F1080AC00E9419
:10306000AA08809169030E94F108A89581E08093E5
:103070009A0126960FB6F894DEBF0FBECDBFDF9142
:10308000CF91FF91EF91BF91AF919F918F917F91E0
:103090006F915F914F913F912F911F910F91FF90F1
:1030A000EF90DF90CF900F900FBE0F901F9018956C
:1030B0003F3F3F3F3F3F3F3F3F3F3F3F3F3F3F3F20
:1030C0003F3F3F3F3F3F3F3F3F3F3F3F3F3F3F3F10
:1030D0003F3F3F3F3F3F3F3F3F3F3F3F3F3F3F3F00
:1030E0003F3F3F3F3F3F3F3F3F3F3F3F3F3F3F3FF0
:103550001F920F920FB60F9211243F924F925F92DB
:103560006F927F928F929F92AF92BF92CF92DF9293
:10357000EF92FF920F931F932F933F934F935F937D
:103580006F937F938F939F93AF93BF93CF93DF936B
:10359000EF93FF9380918B018823E9F0813009F04C
:1035A000E0C08091C100877F8093C1005198C4E042
:1035B000C093680080E480936D000E94830710929E
:1035C0008B01C093B30085E087BD80916E0082605F
:1035D00080936E00C6C00E9483078091C1008860FE
:1035E0008093C1000E9474070E94830780918E011E
:1035F000882359F080918E01813009F06DC090913F
:10360000110180911201981367C0312C412C512C6B
:1036100080916503381608F091C0C32DD0E09E015B
:10362000275C3D4F4901F90180810E947C079E0182
:10363000255E3D4F5901F90180810E947C079E0162
:1036400023503E4F6901F90180810E947C07F401FB
:103650005081F5018081F60140819E0120543E4F4A
:103660003901F9013081BE0162527E4F7B01FB01BD
:1036700020818E010E551E4FF80190818527482626
:103680004426432642264926C95ADD4F88814826CA
:10369000F30180810E947C07F70180810E947C07F2
:1036A000F4015081F5018081F6014081F301308100
:1036B000F7012081F8019081850F580E540E530EAA
:1036C000520E590E8881580E80810E947C07888195
:1036D0000E947C0733949CCF8091A3030E947C07B7
:1036E0008091A2030E947C078091A1030E947C0725
:1036F000809178020E947C074090A3039091A203DE
:103700008091A103492692E74926482680917802B4
:10371000482680E00E947C0782E30E947C0780E4C8
:103720000E947C078091A3039091A2035090A10373
:10373000890F8E58850D50907802580E842D0E9466
:103740007C07852D0E947C0782E08093B30091E086
:1037500090938B0194E09093B1008093700010924D
:10376000B200FF91EF91DF91CF91BF91AF919F9107
:103770008F917F916F915F914F913F912F911F9109
:103780000F91FF90EF90DF90CF90BF90AF909F9000
:103790008F907F906F905F904F903F900F900FBEF3
:1037A0000F901F9018953F3F3F3F3F3F3F3F3F3FA8
:1037B0003F3F3F3F3F3F3F3F3F3F3F3F3F3F3F3F19
:1037C0003F3F3F3F3F3F3F3F3F3F3F3F3F3F3F3F09
:1037D0003F3F3F3F3F3F3F3F3F3F3F3F3F3F3F3FF9
:1037E0003F3F3F3F3F3F3F3F3F3F3F3F3F3F3F3FE9
:1037F0003F3F3F3F3F3F3F3F3F3F3F3F3F3F3F3FD9
:103800003F3F3F3F3F3F3F3F3F3F3F3F3F3F3F3FC8
:103810003F3F3F3F3F3F3F3F3F3F3F3F3F3F3F3FB8
:103820003F3F3F3F3F3F3F3F3F3F3F3F3F3F3F3FA8
:103830003F3F3F3F3F3F3F3F3F3F3F3F3F3F3F3F98
:103840003F3F3F3F3F3F3F3F3F3F3F3F3F3F3F3F88
:103850003F3F3F3F3F3F3F3F3F3F3F3F3F3F3F3F78
:103860001F920F920FB60F9211248F93EF93FF9335
:1038700036991EC08091760281111AC0109268009C
:1038800010926D0084E08093B3008093B10082E0D9
:10389000809370001092B20080916E008D7F8093B3
:1038A0006E00E0911201F0E0E15AFC4F81E080836C
:1038B000FF91EF918F910F900FBE0F901F90189571
:1038C0001F920F920FB60F9211248F939F93EF9335
:1038D000FF938091C6008093050116BC80919201F0
:1038E00090919301823D910590F4E0919201F091C5
:1038F000930180910501E158FD4F808380919201F1
:103900009091930101969093930180939201FF917E
:10391000EF919F918F910F900FBE0F901F90189570
:103920001F920F920FB60F9211241F932F933F9364
:103930004F935F936F937F938F939F93AF93BF93B7
:10394000EF93FF93CF93DF9300D01F92CDB7DEB7F5
:103950001091CE0080919401863581F4193561F47F
:10396000F89498E088E10FB6F894A89580936000E9
:103970000FBE90936000FFCF10929401E0919401EC
:10398000F0E0EA5FFE4F8081181310C0809194012F
:103990008F5F8093940180919401873049F486E58C
:1039A000809394018FE30E94F10802C01092940169
:1039B00080917703813009F083C080916D039091ED
:1039C0006E03019690936E0380936D03809169035B
:1039D000810F809369038091680381278093680336
:1039E00080916A0390916B038B83A0E0B0E0892FF4
:1039F0009A2FAB2FBB278A8319820E94D00886E0BA
:103A00000E94D20880935A030E94CE080E94D008D8
:103A100082E00E94D20880935A0389810E94D208D2
:103A200080935A038A810E94D20880935A038B8123
:103A30000E94D20880935A03812F0E94D20880935B
:103A40005A030E94CE0880916A0390916B030196FD
:103A500090936B0380936A0380910D018130D1F4C0
:103A600020916D0330916E032F3F310599F4109230
:103A70006E0310926D0390919501992339F0913066
:103A800049F4109295010E94AA0804C08093950100
:103A90000E94AC0888E080935E038AE080935D0317
:103AA00010925C0310925B0381E080936C0384EFBF
:103AB00091E090938900809388000E9408091AC0C1
:103AC000E091A803F091A9038091A50391E0980FDC
:103AD0009093A503E80FF11D10839091A5038091A9
:103AE000A603891710F41092A5038091A7038F5F96
:103AF0008093A7030F900F900F90DF91CF91FF91CC
:103B0000EF91BF91AF919F918F917F916F915F9155
:103B10004F913F912F911F910F900FBE0F901F90CB
:103B200018953F3F3F3F3F3F3F3F3F3F3F3F3F3F76
:103B30003F3F3F3F3F3F3F3F3F3F3F3F3F3F3F3F95
:103B40003F3F3F3F3F3F3F3F3F3F3F3F3F3F3F3F85
:103B50004DC0000067C0000065C0000063C00000E9
:103B600061C000005FC000005DC000005BC00000DD
:103B700059C0000057C0000055C0000053C00000ED
:103B800051C000004FC000004DC000004BC00000FD
:103B900049C0000047C0000045C0000043C000000D
:103BA00041C000003FC000003DC000003BC000001D
:103BB00039C0000037C0000035C0000033C000002D
:103BC00031C000002FC000002DC00000C225D2254A
:103BD000CE25C625C925D425CB25C42583308530DF
:103BE000873089308D3091308B308F3011241FBE5B
:103BF000CFEFD8E0DEBFCDBF11E0A0E0B1E0E6E955
:103C0000F4E602C005900D92A832B107D9F726E07C
:103C1000A8E2B1E001C01D92AA3EB207E1F703D0CD
:103C20000C94493295CFA2E0B0E0E9E1FEE10C94BA
:103C3000093214BE99E288E10FB6F894A8958093F2
:103C400060000FBE9093600084E690E00E943332E3
:103C5000082F8093750385E690E00E943332F82E9A
:103C600080939E0286E690E00E943332182F809364
:103C7000490387E690E00E9433320F0D100F1817AA
:103C800039F08FEF8093750380939E0280934903F0
:103C900088EF93E39A83898388E794E39A838983FF
:103CA00088EE94E39A83898380E995E39A838983F4
:103CB00088EC95E39A83898380E296E39A838983EB
:103CC00084E08EBB81EF90E00E943332182F823463
:103CD00029F460E081EF90E00E943B3261E08EE1E8
:103CE00090E00E943B3287E08093480393D680E0C7
:103CF00040D727D77FD6EAD6F8D68ED7A3D780E08D
:103D0000FAD61DD7A3D7B1D750D09091C9009860EB
:103D10009093C9009091C90090619093C9000E944E
:103D20005228A895DCD778940E94DD28123451F4EB
:103D30008CE3A3D68FEBA1D681E09FD68EE39DD6F0
:103D400081E09BD6A8950E947530A8959091A60118
:103D500080914803891720F40E94BD2E1092A6017D
:103D60008091C00083FD04C08091C00084FF04C026
:103D70008091C600809328010E94F028A895359B69
:103D800007C0C5D045D08111DDCF86E0F2D6DACFAD
:103D900042D0F89498E088E10FB6F894A895809303
:103DA00060000FBE90936000FFCF89E18093CC004C
:103DB000E8ECF0E080818260808380818064808391
:103DC000E9ECF0E080818861808380818068808375
:103DD00086E08093CA0081E195E00E94932D82E203
:103DE00096E00E94932D49E050E261E175E084EF96
:103DF00094E04ED510929B0510929A051092AE0653
:103E000081E08093FD041092FE0480932B010895BD
:103E100080912B010895A1E0B0E0E1E1FFE10C9475
:103E20000C328091C80083FF03C08091CE0089834B
:103E30008091C80084FF03C08091CE008983809167
:103E4000C80087FDF9CF81E195E00E949A2D10927C
:103E50009B058091C80080648093C80082E296E050
:103E60000E949A2D2196E2E00C9428328091AA06B5
:103E70009091AB06A091AC06B091AD060196A11D44
:103E8000B11D8093AA069093AB06A093AC06B093A5
:103E9000AD068091FD04811117C08091AA06909112
:103EA000AB06A091AC06B091AD060397A105B10594
:103EB00058F081E08093AE061092AA061092AB06ED
:103EC0001092AC061092AD060895CF93DF93D09177
:103ED0002506C0E0CD17C1F0029B06C0299880EDF1
:103EE00097E00197F1F710C082E296E00E949F2DC3
:103EF0008093CE008091C80085FFFCCF8091C800E0
:103F000086FFFCCFCF5FE6CFDF91CF910895809100
:103F10009A0581111DC0809114058C3520F481E033
:103F20008093FD042998809125068C3518F484EF40
:103F300094E039D58091AE06882351F0C6DF109207
:103F4000AE0680EA9FE00197F1F781E08093FD04DF
:103F500008958091AC01811108C0299A1092FD0446
:103F60001092AE0681E080939A05089510929A050A
:103F7000089580911405811103C084E0FAD5FDCF26
:103F800081E195E00C949F2D08959091250693383A
:103F900019F484E0EED5FDCF682F82E296E00C9410
:103FA000BE2D0895A1E0B0E0E8EDFFE10C940B32E6
:103FB000182F8CE36983E9DF812FE7DF6981862F82
:103FC000E4DF8EE3E2DF2196E3E00C942732EF9208
:103FD000FF921F93CF93DF93162FE4DF80EAE82E42
:103FE00085E0F82EE7018C2F8E19811718F489913E
:103FF000CCDFF9CFDF91CF911F91FF90EF90089523
:10400000E0EAF5E091E09083818362E080EEDFCF2B
:1040100008958F929F92BF92CF92DF92EF92FF927C
:104020000F931F93CF93DF93CDB7DEB760970FB693
:10403000F894DEBF0FBECDBF162F883009F4BFC085
:10404000B8F5823009F44EC048F5813009F01CC241
:104050008093A0051092A1051092A20592E0909382
:10406000A3051092A4051092A5051092A605109222
:10407000A7058093A805809149038093A9058091A5
:104080009E028093AA05809175038093AB0590935F
:10409000AC051092AD056EE081E898C1833041F126
:1040A000873009F0F1C120E030E060E098E048C0DE
:1040B000813209F4FEC020F4893009F4C8C0E4C19B
:1040C000823209F485C1803809F0DEC1F89498E0A5
:1040D00088E10FB6F894A895809360000FBE909386
:1040E0006000D1C181E08093A00561E082E86EC1EB
:1040F000613011F083E0AEC03CDF813029F4809361
:10410000A00561E083E862C18111BEC1F89461E05D
:104110008AE090E00E943B3260E08EE190E00E94F5
:104120003B3282E390E092BD81BD98E088E10FB61A
:10413000F894A895809360000FBE90936000FFCF25
:10414000F901B3E0EE0FFF1FBA95E1F7EA55FD4F15
:10415000DE011996892F01900D928A95E1F78889E1
:10416000882331F18985E62FF0E0E056FA4F80830D
:104170008A85E1E0E60FF0E0E056FA4F80838B8518
:10418000E2E0E60FF0E0E056FA4F80838C858F7016
:10419000E3E0E60FF0E0E056FA4F80838C858295ED
:1041A0008770E4E0E60FF0E06B5FE056FA4F808343
:1041B0002F5F3F4F2431310519F687E807C1613081
:1041C00011F4D7DE01C081E020E030E060E078E06B
:1041D000482F50E0F901A3E0EE0FFF1FAA95E1F789
:1041E000EA55FD4FDE011196872F01900D928A95B9
:1041F000E1F78C818F7090E08417950709F5888529
:104200008823F1F08981E62FF0E0E056FA4F8083B1
:104210008A81E1E0E60FF0E0E056FA4F80838B817F
:10422000E2E0E60FF0E0E056FA4F80839C81929541
:104230009770E3E0E60FF0E06C5FE056FA4F908392
:104240002F5F3F4F2431310529F688E8BFC0653024
:1042500018F489E0D5DE18C18CDEF82E8ADED82E5F
:1042600088DEC82E86DEB82E84DEE82EA82FB0E0C9
:104270001596E12FF0E0AE17BF0759F734ED832E06
:1042800034E0932E8401802F88198E1528F471DE76
:10429000F80181938F01F7CF04ED14E02B2D4C2D05
:1042A0006D2D8F2D0E94B9318093A00561E089E8C2
:1042B0008DC07FD410929A05FF24F394F092FD04F0
:1042C000F092AE0671D655DEE82E8093760351DE6D
:1042D000D82E4FDE282F30E03D293093A8042093BC
:1042E000A7042F38F3E03F0708F06BC092E1929FDC
:1042F000A001939F500D11245093A5014093A40158
:104300000091760310E0F801ED54FE4FD082F801E1
:10431000E155FC4F80832DDEF801EB57FB4F808386
:104320000091760310E025DEF801EE54FB4F808308
:104330000091760310E01DDEF801E25AFD4F808304
:104340000091760310E015DEF801ED5AFC4F8083F2
:104350000091760310E00DDEF801E258FD4F8083F6
:104360000091760310E005DEF801E258FC4F8083EF
:10437000809176038DD48EE18E1518F180917603AD
:104380008F5FEED6F092AC0110929F0110929E01C9
:104390008091760390E0A0E0B0E02EE0880F991FB6
:1043A000AA1FBB1F2A95D1F7905CAF4FBF4F8093D8
:1043B000320190933301A0933401B093350180E032
:1043C00001C081E08093A00561E081EA00DE5CC06D
:1043D000D0DD80937303CDDD8093AF01CADD809380
:1043E0005C02C7DD482F8093B1011092AC0410929B
:1043F000AB041092A3011092A0018091A7049091A8
:10440000A80464E170E00E94E23170932106609399
:10441000200610922A0110922901892B31F06F5F3A
:104420007F4F709321066093200660915C0280911B
:10443000AF010E94292E8F3F29F00E949E2E2FEF60
:10444000FC01278388E28093480383ED91E00E947A
:104450009A2D0E94D12F10E0812F0E9496301F5F6D
:104460001530D1F71982CC24C394CE0101967C017A
:104470000091B10120915C024091AF0168EA8FEF99
:104480000E94733101C0FFCF60960FB6F894DEBF73
:104490000FBECDBFDF91CF911F910F91FF90EF9095
:1044A000DF90CF90BF909F908F9008950F931F93B0
:1044B000CF93DF93482F80919E0190919F0168E6F2
:1044C00071E00E94E231892B21F488B194E09827B1
:1044D00098B9299A20919E0130919F0180913201D3
:1044E00090913301A0913401B0913501BC01CD010F
:1044F000620F731F811D911D3ED480919E0190918A
:104500009F01019690939F0180939E012091A401A9
:104510003091A5018217930708F44FC0109237011C
:1045200000E010E0C0E0D0E08091A7049091A804E2
:10453000C817D907F8F48091320190913301A09106
:104540003401B0913501BC01CD01600F711F811D97
:10455000911D42E150E0F3D442E150E06DE973E097
:10456000809137010E946E2D8093370121960E5E57
:104570001F4FDACF80E0F4D52BD41092AC0110920B
:104580009F0110929E0184EF91E0A0E0B0E0809343
:10459000320190933301A0933401B093350196D248
:1045A000A4D23AD353D34ED380E0A5D2C8D20DD3F0
:1045B0001092A00561E083EE0ADD2998DF91CF918A
:1045C0001F910F910895CF92EF92FF920F93CF9387
:1045D0002091AB043091AC048091A7049091A80481
:1045E0002817390708F075C092B181E0892782B990
:1045F00060917303862F90E0A0E0B0E02EE0880F7A
:10460000991FAA1FBB1F2A95D1F74091AB04509167
:10461000AC04C2E1C49F9001C59F300D1124820FEC
:10462000931FA11DB11DBC01CD01705C8F4F9F4F29
:1046300042E150E084D480919D0390E0982F882738
:1046400020919E03822B9695879590939D0380934E
:104650009E039093A3018093A00152E1C52E6DE9C2
:10466000E62E63E0F62E0091B10120915C024091AC
:10467000AF0166EA8FEF0E947331E091AB04F091D5
:10468000AC04CF0162E370E00E94E231892BC1F4F7
:10469000CE9F9001CF9F300D11242093A005309321
:1046A000A1058091AF018093A20580915C02809367
:1046B000A3058091B1018093A40565E084EE87DCB9
:1046C0008091AB049091AC0401969093AC048093DC
:1046D000AB04CF910F91FF90EF90CF900895A3E09E
:1046E000B0E0E5E7F3E20C9406321091B00180915E
:1046F00072038A3A21F540919C018091AF014813E1
:10470000C3C02091740380915C022813BDC0009146
:104710005D028091B1010813B7C084E18983809163
:10472000A7049091A8049A838B8393E0C92ECE01AD
:1047300001967C016BEA8FEF0E947331A5C08091D6
:1047400072038C3A41F481E08093AD0414E13BDFC5
:104750001150E9F799C080917203873A09F069C056
:104760008091A8019091A9010E949F2D8091A8019C
:104770009091A9010E949F2D8091290190912A0179
:10478000019690932A01809329012091200630916F
:1047900021068217930708F447C02091A70430919F
:1047A000A80442E1429FC001439F900D112442970B
:1047B0008093A0059093A1058091AF018093A205FD
:1047C00080915C028093A3058091B1018093A40540
:1047D00065E084EEFCDB81E0898383ED91E00E945B
:1047E0009A2D0E94D12F10E0812F0E9496301F5FDA
:1047F0001530D1F7CC24C394FE0131967F0100918E
:10480000B10120915C024091AF0168EA8FEF0E94F4
:1048100073311092AD041092A00561E082EAD7DBFB
:1048200087E08093480330C014E1CDDE1150E9F7F2
:104830002BC00DEF010F809172038093A005809132
:104840009C018093A105809174038093A2058091BF
:104850005D028093A3050093A40585EAC82E85E038
:10486000D82E76018E2D8C19801750F48091A801D6
:104870009091A9010E949F2DF70181937F01F2CFB2
:1048800062E0610F82EEA3DB2396E8E00C94223213
:10489000FC011082118212827483638356834583E4
:1048A0000895FC01A381B48113962C9130E080819E
:1048B000843019F0853031F00CC08281811109C03B
:1048C00081E00895428150E081E02417350728F403
:1048D00003C081E0232B09F480E00895CF93DF9398
:1048E000EC018B819C810E949F2D8C3319F481E017
:1048F000888303C0188219821A82DF91CF910895AC
:10490000CF93DF93EC018B819C810E949F2D898343
:1049100082E08883DF91CF910895CF93DF93EC01FC
:104920008B819C810E949F2D8A8383E08883DF9105
:10493000CF910895CF93DF93EC018B819C810E94EE
:104940009F2D8E3319F484E0888303C01882198266
:104950001A82DF91CF910895CF93DF93EC01EB8121
:10496000FC811482ED81FE81309719F06A81898182
:1049700009958B819C812A81FC013481321718F4BE
:104980000E949F2DF6CF188219821A82DF91CF9153
:104990000895FC012281211102C0DECF089525E097
:1049A000FC0120830895CF93DF93EC017ADF882305
:1049B000F1F08881823099F038F4882369F08130F1
:1049C000B1F4CE019DDF13C0843079F058F085300A
:1049D00071F4CE01C1DF0BC0CE0180DF08C0CE0173
:1049E0009CDF05C0CE01A6DF02C0CE01D2DFDF9181
:1049F000CF910895E0ECF0E0808182608083E1EC6B
:104A0000F0E08081806880831092C40086E080930B
:104A1000C2000895089A109A0F9A179A3A9A429AE1
:104A20003E9846985098589851985998539A5B9A3E
:104A300052985A98559A5D98569A5E98579A5F98E8
:104A40003F9A479A0A981298219A29983D98459832
:104A5000249A2C9A279A2F980B9A13983C9A449848
:104A6000089584E08093680080E480936D00089549
:104A70001092680010926D0008959091C80095FF03
:104A8000FCCF8093CE008091C80086FFFCCF809140
:104A9000C80080648093C80008959091C00095FF7D
:104AA000FCCF8093C6008091C00086FFFCCF809130
:104AB000C00080648093C0000895E1ECF0E0808144
:104AC000806180838081877F80830895E1ECF0E0BE
:104AD00080818F7E80830895E1ECF0E080818860A2
:104AE000808380818F7E80830895E1ECF0E0808177
:104AF000877F8083089580939D01823089F028F418
:104B0000882349F0813049F00895843079F050F0DD
:104B1000853071F008955D9801C05D9A5E9804C07B
:104B20005D9801C05D9A5E9A5F9808955D9801C096
:104B30005D9A5E985F9A0895509A58980895509893
:104B400008952C9A0895813011F4179803C08111AB
:104B500001C0179A613011F4109803C0611101C0AF
:104B6000109A413011F442980895411101C0429ABF
:104B7000089590E088309105D8F4FC01EA51F24E96
:104B80000C94F63140E008C041E001C040E061E033
:104B900007C040E004C041E060E008C041E060E0E0
:104BA00081E005C041E001C040E061E080E0CBCFA2
:104BB00008951092A2011092E7061092D20386DFA8
:104BC00094DF35D04DD054CF08951092A2011092A9
:104BD0002E0135D67BDF81E08093D2032FD01CD00D
:104BE00010924E031092E706089590910001292F2C
:104BF00022952F70892F8695869586958227292F55
:104C00002695269529278227879588278795969523
:104C1000892B80930001089582E08093B00094E096
:104C20009093B100809370001092B200089510929A
:104C3000B100109270001092B200089584E0809349
:104C4000B300089580E58093B300089582E084BDA9
:104C500094E095BD80936E0016BC8FEF87BD0895DC
:104C600015BC10926E0016BC0895109280008DE065
:104C70008093810082E080936F00109285001092F3
:104C8000840088E090E090938900809388000895E4
:104C90000F931F93E0EAF2E09081418150E060E0E1
:104CA00070E0BA0155274427792B9381492B9281D3
:104CB000592B01E010E020E030E004C0000F111F8C
:104CC000221F331F8A95D2F7402B512B622B732B57
:104CD00070836183528343831F910F910895A0E0F5
:104CE000B0E0E5E7F6E20C94063285E8E82E84E0D1
:104CF000F82E03EB11E06FEA73E042EB54E02EE58F
:104D000032E0C3E5D3E0AEE7B2E09EE7C92E93E020
:104D1000D92E80E0F70181937F01F80181938F0103
:104D2000FB018193BF01FA018193AF01F9018193E6
:104D30009F0189938D93F60181936F018F5F8F316E
:104D400049F71092A3021092A2021092A1021092AF
:104D5000A0028CEC80935103CDB7DEB7E8E00C9451
:104D600022328EBD0DB407FEFDCF8EB508952C986E
:104D700008952C9A0895A3E0B0E0E1ECF6E20C94DB
:104D80000B32182F4B836A837983F1DF86E0E9DFEA
:104D900080934F03EEDFEBDF82E0E3DF80934F038E
:104DA000812FDFDF80934F037981872FDADF8093B4
:104DB0004F036A81862FD5DF80934F034B81842F69
:104DC000D0DF80934F03D5DF2396E3E00C942732A6
:104DD000A4E0B0E0EEEEF6E20C94FC3125E8622EA1
:104DE00024E0722E33EB832E31E0932E4FEAA42E73
:104DF00043E0B42E52EBC52E54E0D52E6EE5E62EE0
:104E000062E0F62E73E5472E73E0572EEEE72E2E66
:104E1000E2E03E2E2EE733E03A83298300E010E003
:104E2000F30141913F01980193E0220F331F9A95BE
:104E3000E1F73C832B83B901330F880B990B9BDF80
:104E4000F40141914F016B817C816F5F7F4F072E91
:104E5000000C880B990B8FDFF50141915F016B818D
:104E60007C816E5F7F4F072E000C880B990B83DFD0
:104E7000F60141916F016B817C816D5F7F4F072E41
:104E8000000C880B990B77DFF70141917F016B8153
:104E90007C816C5F7F4F072E000C880B990B6BDFBA
:104EA000F20141912F016B817C816B5F7F4F072E57
:104EB000000C880B990B5FDFF10141911F016B81A1
:104EC0007C816A5F7F4F072E000C880B990B53DFA4
:104ED000E981FA814191FA83E9836B817C81695F81
:104EE0007F4F072E000C880B990B45DF0F5F1F4F7C
:104EF0000F31110509F094CF00EA12E088EFC82EB7
:104F0000D12CE12CF12CF80141918F01C701B601A0
:104F100032DFFFEFCF1ADF0AEF0AFF0A2CEFC216CB
:104F2000D104E104F10479F7409151036CEF70E092
:104F300080E090E020DF2496E2E10C941832A2E0B9
:104F4000B0E0E5EAF7E20C940832182F7A016A83A0
:104F500079830DDF8BE005DF80934F03812F01DF25
:104F600080934F037981872FFCDE80934F036A8102
:104F7000862FF7DE80934F0383E6F3DE80934F03A3
:104F80000DE913E0C70183569C4F7C010E151F05E8
:104F900031F08FEFE6DEF80181938F01F7CFE9DE84
:104FA0002296E6E00C942432A0E0B0E0EAEDF7E2CD
:104FB0000C94FC3195E8892E94E0992E23EBA22ED7
:104FC00021E0B22E3FEAC32E33E0D32E42EBE42E93
:104FD00044E0F42E0EE512E0C3E5D3E05EE7452E93
:104FE00052E0552E6EE7262E63E0362E612C712C92
:104FF000B30183E0660F771F8A95E1F7072E000C57
:10500000880B990B48E050E09ADF80919D03F401F2
:1050100081934F0180919E03F50181935F018091FF
:105020009F03F60181936F018091A003F7018193A3
:105030007F018091A103F80181938F018091A203E8
:1050400089938091A303F20181932F018091A4039E
:10505000F10181931F01FFEF6F1A7F0A8FE168163C
:10506000710431F645E050E068EF70E080E090E0D8
:1050700066DF80919D038093A00280919E038093C0
:10508000A10280919F038093A2028091A00380934C
:10509000A3028091A10380935103CDB7DEB7E2E173
:1050A0000C941832249A2C9A2698259A279A8CE5E3
:1050B0008CBD5DDE86E055DE80934F035ADE57DE01
:1050C00089E34FDE80934F0380E04BDE80934F03F4
:1050D00080E047DE80934F0380E043DE80934F0300
:1050E00048CE0895A1E0B0E0E8E7F8E20C940C3275
:1050F0003EDE85E036DE80934F038FEF32DE89831C
:10510000898180FDFACF35DE2196E2E00C942832C9
:10511000A2E0B0E0EEE8F8E20C940B32182F6A83BC
:10512000798325DE86E01DDE80934F0322DE1FDEBD
:1051300080E217DE80934F03812F13DE80934F03AD
:105140007981872F0EDE80934F036A81862F09DED7
:1051500080934F030EDEC6DF2296E3E00C942732E5
:10516000CF92DF92EF92FF92C82ED12CE12CF12C3E
:105170008EE0CC0CDD1CEE1CFF1C8A95D1F7C7011C
:10518000B601C6DFA895C701B601705F8F4F9F4F6C
:10519000BFDFA895C701B601705E8F4F9F4FB8DF84
:1051A000A895C701B601705D8F4F9F4FB1DFA895DD
:1051B000FF90EF90DF90CF90089583ED91E0B3D40E
:1051C0006CEF7CE283ED91E0BFD66DE37CE28EE391
:1051D0009CE2E8D46FE673E280E090E010C30895AB
:1051E00008958091C6008093B2019091D60183E822
:1051F000891B843018F080E8891B01C080E080930F
:1052000030019091B201953630F49091B201891736
:1052100010F082E008958AE008958091C60080939E
:10522000AA018091AA01853618F084E68093AA012C
:1052300086E0089551DC9091D60183E8891B843083
:1052400018F080E8891B01C080E08093310125DCE3
:105250008FEF8093CE03809131018F31C0F020E039
:1052600030E080E093E2929FF001939FF00D1124D3
:10527000EA52FC4F4281411104C04381411101C0F7
:105280008F5F2F5F3F4F2530310569F701C080E008
:105290001092A70190919D02981720F490919D0281
:1052A000891B01C080E0F9DB08DC81E00895A1E002
:1052B000B0E0EDE5F9E20C9409321092D3030CDC76
:1052C00080915003EADB80915003882391F0809114
:1052D000D30341E050E060E573E000D48093D30352
:1052E0008091D30341E050E066E371E0F7D380930F
:1052F000D30380913601D1DBF12C80915003F81655
:10530000C8F40F2D10E08091D303085C1E4F41E0DC
:1053100050E0B801E3D38093D303F8018081BDDB73
:10532000198289818C3020F489818F5F8983F9CF3C
:10533000F394E3CF80915003882339F08091D30315
:105340008093D3038091D303A8DBB7DB89E0219658
:10535000E5E00C942532CF93DF938FEF8093D40355
:1053600080914D0395E023E28F5F853008F080E067
:1053700010923601289FF0011124EA52FC4F41811E
:1053800030919D0143132BC03281313041F5409162
:10539000D1043081431718F14091AA01308143179D
:1053A000F0F080932F0180934D0390E020819217BD
:1053B00080F4A091500321E02A0F20935003B0E025
:1053C000EF01C90FD11D2C81A85CBE4F2C939F5FAC
:1053D000EDCF9081909336018093D40306C0915015
:1053E00019F680932F0180934D0380917D022091C7
:1053F0009D0190E002C0959587952A95E2F780FF80
:1054000075C02091AA018091500330E090E0089689
:10541000821793070CF06AC030919D0120917D02A4
:1054200081E090E002C0880F991F3A95E2F78095DD
:105430009095822380937D02E091500381E08E0F4E
:1054400080935003F0E0E85CFE4F81E08083E091C0
:1054500050038E0F80935003F0E0E85CFE4F82E033
:105460008083E091500381E08E0F80935003F0E041
:1054700080914903E85CFE4F8083E091500381E016
:105480008E0F80935003F0E080919E02E85CFE4F07
:105490008083E091500381E08E0F80935003F0E011
:1054A00080917503E85CFE4F8083E091500381E0BA
:1054B0008E0F80935003F0E0E85CFE4F1082E09185
:1054C000500381E08E0F80935003F0E08091E90655
:1054D000E85CFE4F8083E091500381E08E0F809363
:1054E0005003F0E0E85CFE4F88E0808340E021E07C
:1054F00030E051E062E080914A03841708F491C0E3
:1055000088E0489FE0011124FE01EA55FD4F8781A4
:10551000882309F484C0868170919D0190E002C0C7
:10552000959587957A95E2F780FF79C08091500331
:10553000A091AA0190E00796B0E08A179B070CF0B3
:1055400070C080919D017681D90102C0AA0FBB1F56
:105550008A95E2F7CD018095909587238683A09167
:10556000500381E08A0F80935003B0E0A85CBE4FE7
:105570005C93A091500381E08A0F80935003B0E0C8
:10558000A85CBE4F6C93A091500381E08A0F80937A
:105590005003B0E08081A85CBE4F8C93A091500373
:1055A00081E08A0F80935003B0E08181A85CBE4FF8
:1055B0008C93A091500381E08A0F80935003B0E058
:1055C0008281A85CBE4F8C93A091500381E08A0F2A
:1055D00080935003B0E0C755DD4F88818F70A85C81
:1055E000BE4F8C93A091500381E08A0F80935003AB
:1055F000B0E08481A85CBE4F8C938091500391E011
:10560000980F9093500390E0788177FBAA27A0F938
:105610007581770F7A0FFC01E85CFE4F70834F5F56
:105620006ACF45DEDF91CF9108958091C6008093C7
:10563000D1048091D104882319F08FE18093D104A3
:105640008ACE0895CF9348DA8091B201882309F475
:1056500065C0E0915203F0E0E95CFE4FC0818091AB
:1056600052038150809352031092D3038091D3034D
:1056700041E050E062E573E031D28093D303809142
:10568000D30341E050E06FE972E028D28093D30366
:10569000409152038091D30350E068E371E01ED241
:1056A0008093D3038091D3038093D30315DA809141
:1056B000D303C817B1F080E0F0D9FFD9109252039C
:1056C0008091D5038F5F8093D5038091D503863079
:1056D00080F19091A70180919D02891B80939D028A
:1056E0002AC060919D0183ED91E048D26091CE0384
:1056F00083ED91E043D2C0E08091B201C81750F42D
:10570000EC2FF0E0E85CFE4F608183ED91E036D253
:10571000CF5FF2CF6FEF83ED91E030D281E0BDD962
:10572000CCD98091B1048A3231F41092D50385E04E
:1057300003C081E001C08AE0CF910895E091520357
:10574000F0E08091C600E85CFE4F808380915203B8
:105750008F5F80935203209152038091B20130E019
:1057600090E001962817390711F46CCF089583E073
:1057700008958091C60080939F028091B2018111AB
:1057800002C060CF089580919F02882391F080919C
:105790009F028F3180F490919F028091B20189170E
:1057A00050F080919D028F5F80939D0281E08093F5
:1057B000A70183E008958AE008958091C6008130B2
:1057C00099F48091D4038F3F19F08091D403AED423
:1057D000109250038091B1048A3211F48AE0089546
:1057E0001092D50327CD08958091D5038F5F8093C4
:1057F000D5038091D503863088F759CD08950F934E
:105800001F93CF93DF93EC018B0139D01093AE013E
:105810000093AD01D093AF04C093AE0481E08093B8
:10582000D2038BE28093B10485E080935B028FEF1B
:105830008093CE03DF91CF911F910F910895109225
:1058400050031092B2011092AA018BE28093B1042E
:1058500085E080935B02109252038FEF8093CE031A
:105860000895E0915B02F0E0EE0FFF1FEF5FFE4F47
:105870000190F081E02D0995089508950895E7E7D6
:10588000F3E0108281E0818382E0828383E083837E
:1058900084E0848385E0858386E08093A404089572
:1058A0006F927F928F929F92AF92CF92EF920F93CF
:1058B000CF93DF93CDB7DEB766970FB6F894DEBF10
:1058C0000FBECDBF8091A8019091A90138D1E82EDB
:1058D0008091A8019091A90132D1C82E8091A80190
:1058E0009091A9012CD1A82E0091B00140915D02A8
:1058F0006091740380919C0128D280917503A81255
:105900001AC080919E02C81216C080914903E81205
:1059100012C080919D02882329F080919D028150C0
:1059200080939D02E091AD01F091AE01309709F4B2
:1059300052C0099550C04A2D6C2D8E2D8AD18F3FB3
:1059400009F440C0FBD14C0180917203883AB9F44C
:105950008FEFF40187838091A8019091A90108D16C
:10596000811113C08091A50280937703F401938184
:10597000929597709093780382E08093A404CE016F
:1059800001964C013C01035002C079DFF8CF962DFF
:105990009819901748F48091A8019091A901CFD04F
:1059A000F30181933F01F3CF0091A10120915D02AA
:1059B0004091740360919C01809172030F5F9F93EB
:1059C00038D40F9080919D02882329F080919D0208
:1059D000815080939D0266960FB6F894DEBF0FBE8D
:1059E000CDBFDF91CF910F91EF90CF90AF909F906F
:1059F0008F907F906F900895AF92CF92EF920F9318
:105A00001F93CF93DF931F92CDB7DEB7A8959091E8
:105A10009C0180914903981319C09091740380915F
:105A20009E02981313C090915D02809175039813A4
:105A30000DC0C12C8091B001C81608F046C08091FD
:105A4000A8019091A9017BD0C394F4CF80917203F7
:105A50008037A8F580917203813091F58091A8017B
:105A60009091A9016CD0E82E8091A8019091A90194
:105A700066D0A82E89831091A50299812091A10159
:105A800040915D026091740380919C01A694917095
:105A9000C92E2F5F012F29D28F3F91F098E0899F67
:105AA000F0011124EA55FD4F268181E090E001C00C
:105AB000880F1A95EAF780958223868301C0F0DE6D
:105AC0008091AB018F5F8093AB010F90DF91CF91FD
:105AD0001F910F91EF90CF90AF900895460F571FF1
:105AE00064177507F9F0DB01ED91BD01A82FAE2712
:105AF000A295AF70B0E0A95EBE4F20E1829FC001C9
:105B000011249C918927982F92959F70E927EF7017
:105B1000F0E0E95EFE4FA0E18A9FC0011124908170
:105B20008927DECF0895FC011082118282E88283EA
:105B300013820895FC011082118213820895FC01E2
:105B40002FB7F8948081DF01A80FB11D15968C91B5
:105B500090819F5F908330819281931708F4108227
:105B600093819150938394819F5F94832FBF089575
:105B7000FC012081E20FF11D85810895FC018181E6
:105B800091E0980F9183DF01A80FB11D15966C93DA
:105B900091818281891708F4118283818F5F8383C9
:105BA000838108951092A60490934C0380934B0335
:105BB0007093D1036093D00308958F92AF92CF92E8
:105BC000EF920F93CF93DF93CDB7DEB798E0899F25
:105BD00090011124F901E755FD4F40814F70602F6E
:105BE00070E050E04617570724F10F70F901EA55AD
:105BF000FD4F9381907F092B03839E2D9770E92E93
:105C0000E29490EFE92293819F78E92AE382C482AB
:105C100085829FE796834091A604678150E04C5FA0
:105C20005F4F70E04617570724F09091A6049B5FE2
:105C30009783AA2031F0F901EA55FD4F93819068CE
:105C40009383DF91CF910F91EF90CF90AF908F9092
:105C50000895A8E0B0E0EEE2FEE2DEC390E038E0B6
:105C600020914A032917D8F028E0929FF0011124CF
:105C7000EA55FD4FDE011196232F01900D922A95D2
:105C8000E1F72981281309C02A81261306C02B8138
:105C9000241303C02885211104C09F5FE1CF8FEF3B
:105CA00001C0892F2896E2E0D3C30F931F93CF93AF
:105CB0008431E8F5C82F8091D0039091D10328E07A
:105CC000C29F80011124892BE9F0E091D003F0916B
:105CD000D103D801AA55BD4F2C9111963C91119733
:105CE00012964C91129713965C91139714966C919F
:105CF000149715967C91159716968C911697179672
:105D00009C9109958091A60481508093A604F80186
:105D1000EA55FD4F178280914A038C130AC0CC23A9
:105D200049F080914A03815080934A0302C081E088
:105D300001C080E0CF911F910F91089528E0829FCC
:105D4000C00111248A559D4F089583DF8F3FA1F034
:105D50009091A60428E0829FF0011124EA55FD4F9E
:105D60002781892F90E0049630E08217930724F072
:105D70008091A6048B5F87830895CF93C0E08091C4
:105D80004A038C1790F088E0C89FF0011124EA556F
:105D9000FD4F8781882339F0878181508783811166
:105DA00002C08C2F82DFCF5FEACFCF910895A8E0A9
:105DB000B0E0ECEDFEE230C380E090E028E0FC01D2
:105DC00033E0EE0FFF1F3A95E1F7EA55FD4FDE0194
:105DD0001196322F01900D923A95E1F738853323D1
:105DE00029F001968431910551F78FEF2896E2E072
:105DF0002FC3AF92EF92FF920F931F93CF93DF9336
:105E000000D01F92CDB7DEB7F82E2B834A8369836B
:105E1000CEDF182F2B814A8169818F3F09F457C04B
:105E200088E0189FD0011124FD01EA55FD4FF08252
:105E3000618342838381807F922F9F70892B83832C
:105E400007700295007F83818F78082B0383E4829B
:105E500083818F7783838FE786838091A6048B5F0E
:105E60008783A5828091A6048F5F8093A60484E037
:105E7000A81204C0213011F42093D20180914A036A
:105E8000811710F410934A0380914B0390914C03B7
:105E9000892BF9F0E0914B03F0914C03AA55BD4FCB
:105EA0002C9111963C91119712964C911297139642
:105EB0005C91139714966C91149715967C91159795
:105EC00016968C91169717969C91099502C08FEFA4
:105ED00001C0812F0F900F900F90DF91CF911F91F4
:105EE0000F91FF90EF90AF9008958F92AF92CF9265
:105EF000DF92EF92FF920F931F93CF93DF931F9246
:105F0000CDB7DEB7F82ED62E142F2983A2DE298135
:105F10008F3F29F4412F6D2D8F2D6BDF09C08A2C07
:105F2000AC2CCE2CE02E022F212F4D2D6F2D45DED7
:105F30000F90DF91CF911F910F91FF90EF90DF9025
:105F4000CF90AF908F9008951092A9041092720391
:105F50001092B0019093A9018093A8017093470318
:105F6000609346030895E091A801F091A9019381FF
:105F70008091A904863020F481E0911111C00DC0F8
:105F8000863021F481E0933058F407C0873039F42B
:105F90002091B00181E0921718F480E0089581E02B
:105FA00008951092A9041092720310929C0110920D
:105FB000740310925D021092B0011092A101089535
:105FC0008091A8019091A901BADD8093A50281E09A
:105FD0008093A9048091A502863008F0E2CF08954D
:105FE0008091A8019091A901AADD8093B00482E07C
:105FF0008093A9048091B004853028F08091B0048A
:106000008F3F09F0CECF08958091A8019091A9010A
:1060100096DD8093720383E08093A90408958091B4
:10602000A8019091A9018BDD8093B00186E0809357
:10603000A9048091B0018F3108F0B3CF0895809109
:10604000A8019091A9017BDD80939C018091A8011A
:106050009091A90174DD809374038091A8019091BF
:10606000A9016DDD80935D0284E08093A904089509
:1060700087E08093A9048091A8019091A9015FDD38
:106080008093A101089585E08093A904E091A8017F
:10609000F091A9011482E0914603F09147033097F3
:1060A00009F009958091A8019091A9012091B00172
:1060B000FC013481321710F442DDF4CF089588E0FA
:1060C0008093A9048091A8019091A90151DD8F3F8F
:1060D00039F48091A8019091A90131DD62CF089532
:1060E00060DF82E08093A90408953DDF8823E9F012
:1060F000E091A9048E2F90E088309105A0F4FC0176
:10610000E251F24E73C15CDFF0CF6ADFEECF7CDF8D
:10611000ECCF85DFEACF93DFE8CFAADFE6CFB3DFAE
:10612000E4CFCDDFE2CF3DDFE0CF0895853048F406
:1061300093E2899FF0011124EA52FC4F12821382EC
:10614000108208950F93FC01603A78F482818130C7
:1061500061F48481861309C08285841306C0838517
:10616000821303C0948581E0901380E00F9108951D
:106170006F927F928F92AF92CF92EF920F931F9375
:10618000CF93DF93CDB7DEB75E857F859889853065
:1061900008F044C0E92FF0E076970CF03FC0682E7D
:1061A000712C33E2839FD0011124FD01E652FC4F94
:1061B000AA52BC4F12961C92129781E013968C93B0
:1061C000139711966C93408383E0890F8183228318
:1061D0000383E482C582A68287828D858087352FDE
:1061E000052F172F89E0851B282F200F402F431BD9
:1061F000491748F4AF01420F511DD8012D918D016F
:10620000DA012C93F1CF83E2869DF001879DF00D9A
:106210001124EA52FC4F208381E08283DF91CF91E9
:106220001F910F91EF90CF90AF908F907F906F90D4
:106230000895A3E0B0E0EEE1F1E3DEC0D82E6B8379
:10624000242EB22E302E4A2D6C2D8E2D02DD8F3F46
:1062500009F445C073DD9A83898386ED682E83E057
:10626000782E412C512C10E093E2F92E0A2D2C2D82
:106270004E2D6D2DC30166DF8823C9F0E981FA81B7
:10628000638162956770888D8F939F928F92AF9292
:106290008C2CAE2CC32CEB2C022D2B814D2D812F61
:1062A00067DF0F900F900F900F9080E019C0F49C63
:1062B000F001F59CF00D1124EA52FC4F828181110E
:1062C00003C083818823D1F21F5FFFEF4F1A5F0A5B
:1062D00083E2680E711C153049F68FEF01C08EEF16
:1062E0002396E2E1A5C04F925F927F928F929F9298
:1062F000AF92BF92CF92DF92EF92FF920F931F93D4
